{
    "contractName": "MyNFT",
    "abi": [
        {
            "inputs": [
                {
                    "internalType": "string",
                    "name": "baseURI",
                    "type": "string"
                }
            ],
            "stateMutability": "nonpayable",
            "type": "constructor"
        },
        {
            "anonymous": false,
            "inputs": [
                {
                    "indexed": true,
                    "internalType": "address",
                    "name": "owner",
                    "type": "address"
                },
                {
                    "indexed": true,
                    "internalType": "address",
                    "name": "approved",
                    "type": "address"
                },
                {
                    "indexed": true,
                    "internalType": "uint256",
                    "name": "tokenId",
                    "type": "uint256"
                }
            ],
            "name": "Approval",
            "type": "event"
        },
        {
            "anonymous": false,
            "inputs": [
                {
                    "indexed": true,
                    "internalType": "address",
                    "name": "owner",
                    "type": "address"
                },
                {
                    "indexed": true,
                    "internalType": "address",
                    "name": "operator",
                    "type": "address"
                },
                {
                    "indexed": false,
                    "internalType": "bool",
                    "name": "approved",
                    "type": "bool"
                }
            ],
            "name": "ApprovalForAll",
            "type": "event"
        },
        {
            "anonymous": false,
            "inputs": [
                {
                    "indexed": true,
                    "internalType": "uint256",
                    "name": "id",
                    "type": "uint256"
                }
            ],
            "name": "CreatePenguin",
            "type": "event"
        },
        {
            "anonymous": false,
            "inputs": [
                {
                    "indexed": true,
                    "internalType": "address",
                    "name": "previousOwner",
                    "type": "address"
                },
                {
                    "indexed": true,
                    "internalType": "address",
                    "name": "newOwner",
                    "type": "address"
                }
            ],
            "name": "OwnershipTransferred",
            "type": "event"
        },
        {
            "anonymous": false,
            "inputs": [
                {
                    "indexed": false,
                    "internalType": "address",
                    "name": "account",
                    "type": "address"
                }
            ],
            "name": "Paused",
            "type": "event"
        },
        {
            "anonymous": false,
            "inputs": [
                {
                    "indexed": true,
                    "internalType": "address",
                    "name": "from",
                    "type": "address"
                },
                {
                    "indexed": true,
                    "internalType": "address",
                    "name": "to",
                    "type": "address"
                },
                {
                    "indexed": true,
                    "internalType": "uint256",
                    "name": "tokenId",
                    "type": "uint256"
                }
            ],
            "name": "Transfer",
            "type": "event"
        },
        {
            "anonymous": false,
            "inputs": [
                {
                    "indexed": false,
                    "internalType": "address",
                    "name": "account",
                    "type": "address"
                }
            ],
            "name": "Unpaused",
            "type": "event"
        },
        {
            "inputs": [],
            "name": "MAX_BY_MINT",
            "outputs": [
                {
                    "internalType": "uint256",
                    "name": "",
                    "type": "uint256"
                }
            ],
            "stateMutability": "view",
            "type": "function"
        },
        {
            "inputs": [],
            "name": "MAX_ELEMENTS",
            "outputs": [
                {
                    "internalType": "uint256",
                    "name": "",
                    "type": "uint256"
                }
            ],
            "stateMutability": "view",
            "type": "function"
        },
        {
            "inputs": [],
            "name": "PRICE",
            "outputs": [
                {
                    "internalType": "uint256",
                    "name": "",
                    "type": "uint256"
                }
            ],
            "stateMutability": "view",
            "type": "function"
        },
        {
            "inputs": [
                {
                    "internalType": "address",
                    "name": "to",
                    "type": "address"
                },
                {
                    "internalType": "uint256",
                    "name": "tokenId",
                    "type": "uint256"
                }
            ],
            "name": "approve",
            "outputs": [],
            "stateMutability": "nonpayable",
            "type": "function"
        },
        {
            "inputs": [
                {
                    "internalType": "address",
                    "name": "owner",
                    "type": "address"
                }
            ],
            "name": "balanceOf",
            "outputs": [
                {
                    "internalType": "uint256",
                    "name": "",
                    "type": "uint256"
                }
            ],
            "stateMutability": "view",
            "type": "function"
        },
        {
            "inputs": [],
            "name": "baseTokenURI",
            "outputs": [
                {
                    "internalType": "string",
                    "name": "",
                    "type": "string"
                }
            ],
            "stateMutability": "view",
            "type": "function"
        },
        {
            "inputs": [
                {
                    "internalType": "uint256",
                    "name": "tokenId",
                    "type": "uint256"
                }
            ],
            "name": "burn",
            "outputs": [],
            "stateMutability": "nonpayable",
            "type": "function"
        },
        {
            "inputs": [],
            "name": "creatorAddress",
            "outputs": [
                {
                    "internalType": "address",
                    "name": "",
                    "type": "address"
                }
            ],
            "stateMutability": "view",
            "type": "function"
        },
        {
            "inputs": [],
            "name": "devAddress",
            "outputs": [
                {
                    "internalType": "address",
                    "name": "",
                    "type": "address"
                }
            ],
            "stateMutability": "view",
            "type": "function"
        },
        {
            "inputs": [
                {
                    "internalType": "uint256",
                    "name": "tokenId",
                    "type": "uint256"
                }
            ],
            "name": "getApproved",
            "outputs": [
                {
                    "internalType": "address",
                    "name": "",
                    "type": "address"
                }
            ],
            "stateMutability": "view",
            "type": "function"
        },
        {
            "inputs": [
                {
                    "internalType": "address",
                    "name": "owner",
                    "type": "address"
                },
                {
                    "internalType": "address",
                    "name": "operator",
                    "type": "address"
                }
            ],
            "name": "isApprovedForAll",
            "outputs": [
                {
                    "internalType": "bool",
                    "name": "",
                    "type": "bool"
                }
            ],
            "stateMutability": "view",
            "type": "function"
        },
        {
            "inputs": [],
            "name": "name",
            "outputs": [
                {
                    "internalType": "string",
                    "name": "",
                    "type": "string"
                }
            ],
            "stateMutability": "view",
            "type": "function"
        },
        {
            "inputs": [],
            "name": "owner",
            "outputs": [
                {
                    "internalType": "address",
                    "name": "",
                    "type": "address"
                }
            ],
            "stateMutability": "view",
            "type": "function"
        },
        {
            "inputs": [
                {
                    "internalType": "uint256",
                    "name": "tokenId",
                    "type": "uint256"
                }
            ],
            "name": "ownerOf",
            "outputs": [
                {
                    "internalType": "address",
                    "name": "",
                    "type": "address"
                }
            ],
            "stateMutability": "view",
            "type": "function"
        },
        {
            "inputs": [],
            "name": "paused",
            "outputs": [
                {
                    "internalType": "bool",
                    "name": "",
                    "type": "bool"
                }
            ],
            "stateMutability": "view",
            "type": "function"
        },
        {
            "inputs": [],
            "name": "renounceOwnership",
            "outputs": [],
            "stateMutability": "nonpayable",
            "type": "function"
        },
        {
            "inputs": [],
            "name": "reveal_timestamp",
            "outputs": [
                {
                    "internalType": "uint256",
                    "name": "",
                    "type": "uint256"
                }
            ],
            "stateMutability": "view",
            "type": "function"
        },
        {
            "inputs": [
                {
                    "internalType": "address",
                    "name": "from",
                    "type": "address"
                },
                {
                    "internalType": "address",
                    "name": "to",
                    "type": "address"
                },
                {
                    "internalType": "uint256",
                    "name": "tokenId",
                    "type": "uint256"
                }
            ],
            "name": "safeTransferFrom",
            "outputs": [],
            "stateMutability": "nonpayable",
            "type": "function"
        },
        {
            "inputs": [
                {
                    "internalType": "address",
                    "name": "from",
                    "type": "address"
                },
                {
                    "internalType": "address",
                    "name": "to",
                    "type": "address"
                },
                {
                    "internalType": "uint256",
                    "name": "tokenId",
                    "type": "uint256"
                },
                {
                    "internalType": "bytes",
                    "name": "_data",
                    "type": "bytes"
                }
            ],
            "name": "safeTransferFrom",
            "outputs": [],
            "stateMutability": "nonpayable",
            "type": "function"
        },
        {
            "inputs": [
                {
                    "internalType": "address",
                    "name": "operator",
                    "type": "address"
                },
                {
                    "internalType": "bool",
                    "name": "approved",
                    "type": "bool"
                }
            ],
            "name": "setApprovalForAll",
            "outputs": [],
            "stateMutability": "nonpayable",
            "type": "function"
        },
        {
            "inputs": [],
            "name": "symbol",
            "outputs": [
                {
                    "internalType": "string",
                    "name": "",
                    "type": "string"
                }
            ],
            "stateMutability": "view",
            "type": "function"
        },
        {
            "inputs": [
                {
                    "internalType": "uint256",
                    "name": "index",
                    "type": "uint256"
                }
            ],
            "name": "tokenByIndex",
            "outputs": [
                {
                    "internalType": "uint256",
                    "name": "",
                    "type": "uint256"
                }
            ],
            "stateMutability": "view",
            "type": "function"
        },
        {
            "inputs": [
                {
                    "internalType": "address",
                    "name": "owner",
                    "type": "address"
                },
                {
                    "internalType": "uint256",
                    "name": "index",
                    "type": "uint256"
                }
            ],
            "name": "tokenOfOwnerByIndex",
            "outputs": [
                {
                    "internalType": "uint256",
                    "name": "",
                    "type": "uint256"
                }
            ],
            "stateMutability": "view",
            "type": "function"
        },
        {
            "inputs": [
                {
                    "internalType": "uint256",
                    "name": "tokenId",
                    "type": "uint256"
                }
            ],
            "name": "tokenURI",
            "outputs": [
                {
                    "internalType": "string",
                    "name": "",
                    "type": "string"
                }
            ],
            "stateMutability": "view",
            "type": "function"
        },
        {
            "inputs": [],
            "name": "totalSupply",
            "outputs": [
                {
                    "internalType": "uint256",
                    "name": "",
                    "type": "uint256"
                }
            ],
            "stateMutability": "view",
            "type": "function"
        },
        {
            "inputs": [
                {
                    "internalType": "address",
                    "name": "from",
                    "type": "address"
                },
                {
                    "internalType": "address",
                    "name": "to",
                    "type": "address"
                },
                {
                    "internalType": "uint256",
                    "name": "tokenId",
                    "type": "uint256"
                }
            ],
            "name": "transferFrom",
            "outputs": [],
            "stateMutability": "nonpayable",
            "type": "function"
        },
        {
            "inputs": [
                {
                    "internalType": "address",
                    "name": "newOwner",
                    "type": "address"
                }
            ],
            "name": "transferOwnership",
            "outputs": [],
            "stateMutability": "nonpayable",
            "type": "function"
        },
        {
            "inputs": [],
            "name": "totalMint",
            "outputs": [
                {
                    "internalType": "uint256",
                    "name": "",
                    "type": "uint256"
                }
            ],
            "stateMutability": "view",
            "type": "function"
        },
        {
            "inputs": [
                {
                    "internalType": "address",
                    "name": "_to",
                    "type": "address"
                },
                {
                    "internalType": "uint256",
                    "name": "_count",
                    "type": "uint256"
                }
            ],
            "name": "mint",
            "outputs": [],
            "stateMutability": "payable",
            "type": "function"
        },
        {
            "inputs": [
                {
                    "internalType": "uint256",
                    "name": "_count",
                    "type": "uint256"
                }
            ],
            "name": "price",
            "outputs": [
                {
                    "internalType": "uint256",
                    "name": "",
                    "type": "uint256"
                }
            ],
            "stateMutability": "pure",
            "type": "function"
        },
        {
            "inputs": [
                {
                    "internalType": "string",
                    "name": "baseURI",
                    "type": "string"
                }
            ],
            "name": "setBaseURI",
            "outputs": [],
            "stateMutability": "nonpayable",
            "type": "function"
        },
        {
            "inputs": [
                {
                    "internalType": "address",
                    "name": "_owner",
                    "type": "address"
                }
            ],
            "name": "walletOfOwner",
            "outputs": [
                {
                    "internalType": "uint256[]",
                    "name": "",
                    "type": "uint256[]"
                }
            ],
            "stateMutability": "view",
            "type": "function"
        },
        {
            "inputs": [
                {
                    "internalType": "bool",
                    "name": "val",
                    "type": "bool"
                }
            ],
            "name": "pause",
            "outputs": [],
            "stateMutability": "nonpayable",
            "type": "function"
        },
        {
            "inputs": [],
            "name": "withdrawAll",
            "outputs": [],
            "stateMutability": "payable",
            "type": "function"
        },
        {
            "inputs": [
                {
                    "internalType": "bytes4",
                    "name": "interfaceId",
                    "type": "bytes4"
                }
            ],
            "name": "supportsInterface",
            "outputs": [
                {
                    "internalType": "bool",
                    "name": "",
                    "type": "bool"
                }
            ],
            "stateMutability": "view",
            "type": "function"
        }
    ],
    "bytecode": "0x60806040523480156200001157600080fd5b50604051620053c6380380620053c683398181016040528101906200003791906200065a565b6040518060400160405280600d81526020017f507564677950656e6775696e73000000000000000000000000000000000000008152506040518060400160405280600381526020017f50504700000000000000000000000000000000000000000000000000000000008152508160009080519060200190620000bb9291906200052c565b508060019080519060200190620000d49291906200052c565b505050620000f7620000eb6200013c60201b60201c565b6200014460201b60201c565b6000600a60146101000a81548160ff02191690831515021790555062000123816200020a60201b60201c565b620001356001620002b560201b60201c565b50620009f8565b600033905090565b6000600a60009054906101000a900473ffffffffffffffffffffffffffffffffffffffff16905081600a60006101000a81548173ffffffffffffffffffffffffffffffffffffffff021916908373ffffffffffffffffffffffffffffffffffffffff1602179055508173ffffffffffffffffffffffffffffffffffffffff168173ffffffffffffffffffffffffffffffffffffffff167f8be0079c531659141344cd1fd0a4f28419497f9722a3daafe3b4186f6b6457e060405160405180910390a35050565b6200021a6200013c60201b60201c565b73ffffffffffffffffffffffffffffffffffffffff16620002406200037c60201b60201c565b73ffffffffffffffffffffffffffffffffffffffff161462000299576040517f08c379a0000000000000000000000000000000000000000000000000000000008152600401620002909062000792565b60405180910390fd5b80600c9080519060200190620002b19291906200052c565b5050565b620002c56200013c60201b60201c565b73ffffffffffffffffffffffffffffffffffffffff16620002eb6200037c60201b60201c565b73ffffffffffffffffffffffffffffffffffffffff161462000344576040517f08c379a00000000000000000000000000000000000000000000000000000000081526004016200033b9062000792565b60405180910390fd5b600115158115151415620003685762000362620003a660201b60201c565b62000379565b620003786200045e60201b60201c565b5b50565b6000600a60009054906101000a900473ffffffffffffffffffffffffffffffffffffffff16905090565b620003b66200051560201b60201c565b15620003f9576040517f08c379a0000000000000000000000000000000000000000000000000000000008152600401620003f09062000770565b60405180910390fd5b6001600a60146101000a81548160ff0219169083151502179055507f62e78cea01bee320cd4e420270b5ea74000d11b0c9f74754ebdbfc544b05a258620004456200013c60201b60201c565b60405162000454919062000731565b60405180910390a1565b6200046e6200051560201b60201c565b620004b0576040517f08c379a0000000000000000000000000000000000000000000000000000000008152600401620004a7906200074e565b60405180910390fd5b6000600a60146101000a81548160ff0219169083151502179055507f5db9ee0a495bf2e6ff9c91a7834c1ba4fdd244a5e8aa4e537bd38aeae4b073aa620004fc6200013c60201b60201c565b6040516200050b919062000731565b60405180910390a1565b6000600a60149054906101000a900460ff16905090565b8280546200053a906200088e565b90600052602060002090601f0160209004810192826200055e5760008555620005aa565b82601f106200057957805160ff1916838001178555620005aa565b82800160010185558215620005aa579182015b82811115620005a95782518255916020019190600101906200058c565b5b509050620005b99190620005bd565b5090565b5b80821115620005d8576000816000905550600101620005be565b5090565b6000620005f3620005ed84620007dd565b620007b4565b9050828152602081018484840111156200061257620006116200095d565b5b6200061f84828562000858565b509392505050565b600082601f8301126200063f576200063e62000958565b5b815162000651848260208601620005dc565b91505092915050565b60006020828403121562000673576200067262000967565b5b600082015167ffffffffffffffff81111562000694576200069362000962565b5b620006a28482850162000627565b91505092915050565b620006b68162000824565b82525050565b6000620006cb60148362000813565b9150620006d8826200097d565b602082019050919050565b6000620006f260108362000813565b9150620006ff82620009a6565b602082019050919050565b60006200071960208362000813565b91506200072682620009cf565b602082019050919050565b6000602082019050620007486000830184620006ab565b92915050565b600060208201905081810360008301526200076981620006bc565b9050919050565b600060208201905081810360008301526200078b81620006e3565b9050919050565b60006020820190508181036000830152620007ad816200070a565b9050919050565b6000620007c0620007d3565b9050620007ce8282620008c4565b919050565b6000604051905090565b600067ffffffffffffffff821115620007fb57620007fa62000929565b5b62000806826200096c565b9050602081019050919050565b600082825260208201905092915050565b6000620008318262000838565b9050919050565b600073ffffffffffffffffffffffffffffffffffffffff82169050919050565b60005b83811015620008785780820151818401526020810190506200085b565b8381111562000888576000848401525b50505050565b60006002820490506001821680620008a757607f821691505b60208210811415620008be57620008bd620008fa565b5b50919050565b620008cf826200096c565b810181811067ffffffffffffffff82111715620008f157620008f062000929565b5b80604052505050565b7f4e487b7100000000000000000000000000000000000000000000000000000000600052602260045260246000fd5b7f4e487b7100000000000000000000000000000000000000000000000000000000600052604160045260246000fd5b600080fd5b600080fd5b600080fd5b600080fd5b6000601f19601f8301169050919050565b7f5061757361626c653a206e6f7420706175736564000000000000000000000000600082015250565b7f5061757361626c653a2070617573656400000000000000000000000000000000600082015250565b7f4f776e61626c653a2063616c6c6572206973206e6f7420746865206f776e6572600082015250565b6149be8062000a086000396000f3fe6080604052600436106102045760003560e01c806359a7715a1161011857806395d89b41116100a0578063d547cfb71161006f578063d547cfb714610761578063e3e1047a1461078c578063e927fc5c146107b7578063e985e9c5146107e2578063f2fde38b1461081f57610204565b806395d89b41146106a7578063a22cb465146106d2578063b88d4fde146106fb578063c87b56dd1461072457610204565b8063715018a6116100e7578063715018a614610605578063853828b61461061c5780638ad5de28146106265780638d859f3e146106515780638da5cb5b1461067c57610204565b806359a7715a146105355780635c975abb146105605780636352211e1461058b57806370a08231146105c857610204565b80632f745c591161019b57806342842e0e1161016a57806342842e0e1461044057806342966c6814610469578063438b6300146104925780634f6ccce7146104cf57806355f804b31461050c57610204565b80632f745c59146103915780633502a716146103ce5780633ad10ef6146103f957806340c10f191461042457610204565b8063095ea7b3116101d7578063095ea7b3146102d757806318160ddd1461030057806323b872dd1461032b57806326a49e371461035457610204565b806301ffc9a71461020957806302329a291461024657806306fdde031461026f578063081812fc1461029a575b600080fd5b34801561021557600080fd5b50610230600480360381019061022b919061330e565b610848565b60405161023d91906139c9565b60405180910390f35b34801561025257600080fd5b5061026d600480360381019061026891906132e1565b61085a565b005b34801561027b57600080fd5b506102846108fc565b60405161029191906139e4565b60405180910390f35b3480156102a657600080fd5b506102c160048036038101906102bc91906133b1565b61098e565b6040516102ce9190613940565b60405180910390f35b3480156102e357600080fd5b506102fe60048036038101906102f991906132a1565b610a13565b005b34801561030c57600080fd5b50610315610b2b565b6040516103229190613d66565b60405180910390f35b34801561033757600080fd5b50610352600480360381019061034d919061318b565b610b38565b005b34801561036057600080fd5b5061037b600480360381019061037691906133b1565b610b98565b6040516103889190613d66565b60405180910390f35b34801561039d57600080fd5b506103b860048036038101906103b391906132a1565b610bbb565b6040516103c59190613d66565b60405180910390f35b3480156103da57600080fd5b506103e3610c60565b6040516103f09190613d66565b60405180910390f35b34801561040557600080fd5b5061040e610c66565b60405161041b9190613940565b60405180910390f35b61043e600480360381019061043991906132a1565b610c7e565b005b34801561044c57600080fd5b506104676004803603810190610462919061318b565b610eb1565b005b34801561047557600080fd5b50610490600480360381019061048b91906133b1565b610ed1565b005b34801561049e57600080fd5b506104b960048036038101906104b4919061311e565b610f2d565b6040516104c691906139a7565b60405180910390f35b3480156104db57600080fd5b506104f660048036038101906104f191906133b1565b610fdb565b6040516105039190613d66565b60405180910390f35b34801561051857600080fd5b50610533600480360381019061052e9190613368565b61104c565b005b34801561054157600080fd5b5061054a6110e2565b6040516105579190613d66565b60405180910390f35b34801561056c57600080fd5b506105756110f1565b60405161058291906139c9565b60405180910390f35b34801561059757600080fd5b506105b260048036038101906105ad91906133b1565b611108565b6040516105bf9190613940565b60405180910390f35b3480156105d457600080fd5b506105ef60048036038101906105ea919061311e565b6111ba565b6040516105fc9190613d66565b60405180910390f35b34801561061157600080fd5b5061061a611272565b005b6106246112fa565b005b34801561063257600080fd5b5061063b6113ed565b6040516106489190613d66565b60405180910390f35b34801561065d57600080fd5b506106666113f2565b6040516106739190613d66565b60405180910390f35b34801561068857600080fd5b506106916113fd565b60405161069e9190613940565b60405180910390f35b3480156106b357600080fd5b506106bc611427565b6040516106c991906139e4565b60405180910390f35b3480156106de57600080fd5b506106f960048036038101906106f49190613261565b6114b9565b005b34801561070757600080fd5b50610722600480360381019061071d91906131de565b61163a565b005b34801561073057600080fd5b5061074b600480360381019061074691906133b1565b61169c565b60405161075891906139e4565b60405180910390f35b34801561076d57600080fd5b50610776611743565b60405161078391906139e4565b60405180910390f35b34801561079857600080fd5b506107a16117d1565b6040516107ae9190613d66565b60405180910390f35b3480156107c357600080fd5b506107cc6117d9565b6040516107d99190613940565b60405180910390f35b3480156107ee57600080fd5b506108096004803603810190610804919061314b565b6117f1565b60405161081691906139c9565b60405180910390f35b34801561082b57600080fd5b506108466004803603810190610841919061311e565b611885565b005b60006108538261197d565b9050919050565b6108626119f7565b73ffffffffffffffffffffffffffffffffffffffff166108806113fd565b73ffffffffffffffffffffffffffffffffffffffff16146108d6576040517f08c379a00000000000000000000000000000000000000000000000000000000081526004016108cd90613c46565b60405180910390fd5b6001151581151514156108f0576108eb6119ff565b6108f9565b6108f8611aa2565b5b50565b60606000805461090b9061405a565b80601f01602080910402602001604051908101604052809291908181526020018280546109379061405a565b80156109845780601f1061095957610100808354040283529160200191610984565b820191906000526020600020905b81548152906001019060200180831161096757829003601f168201915b5050505050905090565b600061099982611b44565b6109d8576040517f08c379a00000000000000000000000000000000000000000000000000000000081526004016109cf90613c26565b60405180910390fd5b6004600083815260200190815260200160002060009054906101000a900473ffffffffffffffffffffffffffffffffffffffff169050919050565b6000610a1e82611108565b90508073ffffffffffffffffffffffffffffffffffffffff168373ffffffffffffffffffffffffffffffffffffffff161415610a8f576040517f08c379a0000000000000000000000000000000000000000000000000000000008152600401610a8690613cc6565b60405180910390fd5b8073ffffffffffffffffffffffffffffffffffffffff16610aae6119f7565b73ffffffffffffffffffffffffffffffffffffffff161480610add5750610adc81610ad76119f7565b6117f1565b5b610b1c576040517f08c379a0000000000000000000000000000000000000000000000000000000008152600401610b1390613b86565b60405180910390fd5b610b268383611bb0565b505050565b6000600880549050905090565b610b49610b436119f7565b82611c69565b610b88576040517f08c379a0000000000000000000000000000000000000000000000000000000008152600401610b7f90613d06565b60405180910390fd5b610b93838383611d47565b505050565b6000610bb482666a94d74f430000611fa390919063ffffffff16565b9050919050565b6000610bc6836111ba565b8210610c07576040517f08c379a0000000000000000000000000000000000000000000000000000000008152600401610bfe90613a66565b60405180910390fd5b600660008473ffffffffffffffffffffffffffffffffffffffff1673ffffffffffffffffffffffffffffffffffffffff168152602001908152602001600020600083815260200190815260200160002054905092915050565b6122b881565b73cbcc84766f2950cf867f42d766c43fb2d2ba325681565b6122b8610c89611fb9565b1115610cca576040517f08c379a0000000000000000000000000000000000000000000000000000000008152600401610cc190613c06565b60405180910390fd5b610cd26113fd565b73ffffffffffffffffffffffffffffffffffffffff16610cf06119f7565b73ffffffffffffffffffffffffffffffffffffffff1614610d5457610d136110f1565b15610d53576040517f08c379a0000000000000000000000000000000000000000000000000000000008152600401610d4a90613b66565b60405180910390fd5b5b6000610d5e611fb9565b90506122b88282610d6f9190613e8f565b1115610db0576040517f08c379a0000000000000000000000000000000000000000000000000000000008152600401610da790613b26565b60405180910390fd5b6122b8811115610df5576040517f08c379a0000000000000000000000000000000000000000000000000000000008152600401610dec90613c06565b60405180910390fd5b6014821115610e39576040517f08c379a0000000000000000000000000000000000000000000000000000000008152600401610e3090613a46565b60405180910390fd5b610e4282610b98565b341015610e84576040517f08c379a0000000000000000000000000000000000000000000000000000000008152600401610e7b90613ca6565b60405180910390fd5b60005b82811015610eab57610e9884611fca565b8080610ea3906140bd565b915050610e87565b50505050565b610ecc8383836040518060200160405280600081525061163a565b505050565b610ee2610edc6119f7565b82611c69565b610f21576040517f08c379a0000000000000000000000000000000000000000000000000000000008152600401610f1890613d46565b60405180910390fd5b610f2a8161201b565b50565b60606000610f3a836111ba565b905060008167ffffffffffffffff811115610f5857610f57614222565b5b604051908082528060200260200182016040528015610f865781602001602082028036833780820191505090505b50905060005b82811015610fd057610f9e8582610bbb565b828281518110610fb157610fb06141f3565b5b6020026020010181815250508080610fc8906140bd565b915050610f8c565b508092505050919050565b6000610fe5610b2b565b8210611026576040517f08c379a000000000000000000000000000000000000000000000000000000000815260040161101d90613d26565b60405180910390fd5b6008828154811061103a576110396141f3565b5b90600052602060002001549050919050565b6110546119f7565b73ffffffffffffffffffffffffffffffffffffffff166110726113fd565b73ffffffffffffffffffffffffffffffffffffffff16146110c8576040517f08c379a00000000000000000000000000000000000000000000000000000000081526004016110bf90613c46565b60405180910390fd5b80600c90805190602001906110de929190612f32565b5050565b60006110ec611fb9565b905090565b6000600a60149054906101000a900460ff16905090565b6000806002600084815260200190815260200160002060009054906101000a900473ffffffffffffffffffffffffffffffffffffffff169050600073ffffffffffffffffffffffffffffffffffffffff168173ffffffffffffffffffffffffffffffffffffffff1614156111b1576040517f08c379a00000000000000000000000000000000000000000000000000000000081526004016111a890613bc6565b60405180910390fd5b80915050919050565b60008073ffffffffffffffffffffffffffffffffffffffff168273ffffffffffffffffffffffffffffffffffffffff16141561122b576040517f08c379a000000000000000000000000000000000000000000000000000000000815260040161122290613ba6565b60405180910390fd5b600360008373ffffffffffffffffffffffffffffffffffffffff1673ffffffffffffffffffffffffffffffffffffffff168152602001908152602001600020549050919050565b61127a6119f7565b73ffffffffffffffffffffffffffffffffffffffff166112986113fd565b73ffffffffffffffffffffffffffffffffffffffff16146112ee576040517f08c379a00000000000000000000000000000000000000000000000000000000081526004016112e590613c46565b60405180910390fd5b6112f8600061212c565b565b6113026119f7565b73ffffffffffffffffffffffffffffffffffffffff166113206113fd565b73ffffffffffffffffffffffffffffffffffffffff1614611376576040517f08c379a000000000000000000000000000000000000000000000000000000000815260040161136d90613c46565b60405180910390fd5b60004790506000811161138857600080fd5b6113cc73cbcc84766f2950cf867f42d766c43fb2d2ba32566113c760646113b9602386611fa390919063ffffffff16565b6121f290919063ffffffff16565b612208565b6113ea736f84fa72ca4554e0eefcb9032e5a4f1fb41b726c47612208565b50565b601481565b666a94d74f43000081565b6000600a60009054906101000a900473ffffffffffffffffffffffffffffffffffffffff16905090565b6060600180546114369061405a565b80601f01602080910402602001604051908101604052809291908181526020018280546114629061405a565b80156114af5780601f10611484576101008083540402835291602001916114af565b820191906000526020600020905b81548152906001019060200180831161149257829003601f168201915b5050505050905090565b6114c16119f7565b73ffffffffffffffffffffffffffffffffffffffff168273ffffffffffffffffffffffffffffffffffffffff16141561152f576040517f08c379a000000000000000000000000000000000000000000000000000000000815260040161152690613b06565b60405180910390fd5b806005600061153c6119f7565b73ffffffffffffffffffffffffffffffffffffffff1673ffffffffffffffffffffffffffffffffffffffff16815260200190815260200160002060008473ffffffffffffffffffffffffffffffffffffffff1673ffffffffffffffffffffffffffffffffffffffff16815260200190815260200160002060006101000a81548160ff0219169083151502179055508173ffffffffffffffffffffffffffffffffffffffff166115e96119f7565b73ffffffffffffffffffffffffffffffffffffffff167f17307eab39ab6107e8899845ad3d59bd9653f200f220920489ca2b5937696c318360405161162e91906139c9565b60405180910390a35050565b61164b6116456119f7565b83611c69565b61168a576040517f08c379a000000000000000000000000000000000000000000000000000000000815260040161168190613d06565b60405180910390fd5b611696848484846122b9565b50505050565b60606116a782611b44565b6116e6576040517f08c379a00000000000000000000000000000000000000000000000000000000081526004016116dd90613c86565b60405180910390fd5b60006116f0612315565b90506000815111611710576040518060200160405280600081525061173b565b8061171a846123a7565b60405160200161172b929190613907565b6040516020818303038152906040525b915050919050565b600c80546117509061405a565b80601f016020809104026020016040519081016040528092919081815260200182805461177c9061405a565b80156117c95780601f1061179e576101008083540402835291602001916117c9565b820191906000526020600020905b8154815290600101906020018083116117ac57829003601f168201915b505050505081565b63610308c081565b736f84fa72ca4554e0eefcb9032e5a4f1fb41b726c81565b6000600560008473ffffffffffffffffffffffffffffffffffffffff1673ffffffffffffffffffffffffffffffffffffffff16815260200190815260200160002060008373ffffffffffffffffffffffffffffffffffffffff1673ffffffffffffffffffffffffffffffffffffffff16815260200190815260200160002060009054906101000a900460ff16905092915050565b61188d6119f7565b73ffffffffffffffffffffffffffffffffffffffff166118ab6113fd565b73ffffffffffffffffffffffffffffffffffffffff1614611901576040517f08c379a00000000000000000000000000000000000000000000000000000000081526004016118f890613c46565b60405180910390fd5b600073ffffffffffffffffffffffffffffffffffffffff168173ffffffffffffffffffffffffffffffffffffffff161415611971576040517f08c379a000000000000000000000000000000000000000000000000000000000815260040161196890613aa6565b60405180910390fd5b61197a8161212c565b50565b60007f780e9d63000000000000000000000000000000000000000000000000000000007bffffffffffffffffffffffffffffffffffffffffffffffffffffffff1916827bffffffffffffffffffffffffffffffffffffffffffffffffffffffff191614806119f057506119ef82612508565b5b9050919050565b600033905090565b611a076110f1565b15611a47576040517f08c379a0000000000000000000000000000000000000000000000000000000008152600401611a3e90613b66565b60405180910390fd5b6001600a60146101000a81548160ff0219169083151502179055507f62e78cea01bee320cd4e420270b5ea74000d11b0c9f74754ebdbfc544b05a258611a8b6119f7565b604051611a989190613940565b60405180910390a1565b611aaa6110f1565b611ae9576040517f08c379a0000000000000000000000000000000000000000000000000000000008152600401611ae090613a26565b60405180910390fd5b6000600a60146101000a81548160ff0219169083151502179055507f5db9ee0a495bf2e6ff9c91a7834c1ba4fdd244a5e8aa4e537bd38aeae4b073aa611b2d6119f7565b604051611b3a9190613940565b60405180910390a1565b60008073ffffffffffffffffffffffffffffffffffffffff166002600084815260200190815260200160002060009054906101000a900473ffffffffffffffffffffffffffffffffffffffff1673ffffffffffffffffffffffffffffffffffffffff1614159050919050565b816004600083815260200190815260200160002060006101000a81548173ffffffffffffffffffffffffffffffffffffffff021916908373ffffffffffffffffffffffffffffffffffffffff160217905550808273ffffffffffffffffffffffffffffffffffffffff16611c2383611108565b73ffffffffffffffffffffffffffffffffffffffff167f8c5be1e5ebec7d5bd14f71427d1e84f3dd0314c0f7b2291e5b200ac8c7c3b92560405160405180910390a45050565b6000611c7482611b44565b611cb3576040517f08c379a0000000000000000000000000000000000000000000000000000000008152600401611caa90613b46565b60405180910390fd5b6000611cbe83611108565b90508073ffffffffffffffffffffffffffffffffffffffff168473ffffffffffffffffffffffffffffffffffffffff161480611d2d57508373ffffffffffffffffffffffffffffffffffffffff16611d158461098e565b73ffffffffffffffffffffffffffffffffffffffff16145b80611d3e5750611d3d81856117f1565b5b91505092915050565b8273ffffffffffffffffffffffffffffffffffffffff16611d6782611108565b73ffffffffffffffffffffffffffffffffffffffff1614611dbd576040517f08c379a0000000000000000000000000000000000000000000000000000000008152600401611db490613c66565b60405180910390fd5b600073ffffffffffffffffffffffffffffffffffffffff168273ffffffffffffffffffffffffffffffffffffffff161415611e2d576040517f08c379a0000000000000000000000000000000000000000000000000000000008152600401611e2490613ae6565b60405180910390fd5b611e388383836125ea565b611e43600082611bb0565b6001600360008573ffffffffffffffffffffffffffffffffffffffff1673ffffffffffffffffffffffffffffffffffffffff1681526020019081526020016000206000828254611e939190613f70565b925050819055506001600360008473ffffffffffffffffffffffffffffffffffffffff1673ffffffffffffffffffffffffffffffffffffffff1681526020019081526020016000206000828254611eea9190613e8f565b92505081905550816002600083815260200190815260200160002060006101000a81548173ffffffffffffffffffffffffffffffffffffffff021916908373ffffffffffffffffffffffffffffffffffffffff160217905550808273ffffffffffffffffffffffffffffffffffffffff168473ffffffffffffffffffffffffffffffffffffffff167fddf252ad1be2c89b69c2b068fc378daa952ba7f163c4a11628f55a4df523b3ef60405160405180910390a4505050565b60008183611fb19190613f16565b905092915050565b6000611fc5600b6125fa565b905090565b6000611fd4611fb9565b9050611fe0600b612608565b611fea828261261e565b807f645f26e653c951cec836533f8fe0616d301c20a17153debc17d7c3dbe4f32b2860405160405180910390a25050565b600061202682611108565b9050612034816000846125ea565b61203f600083611bb0565b6001600360008373ffffffffffffffffffffffffffffffffffffffff1673ffffffffffffffffffffffffffffffffffffffff168152602001908152602001600020600082825461208f9190613f70565b925050819055506002600083815260200190815260200160002060006101000a81549073ffffffffffffffffffffffffffffffffffffffff021916905581600073ffffffffffffffffffffffffffffffffffffffff168273ffffffffffffffffffffffffffffffffffffffff167fddf252ad1be2c89b69c2b068fc378daa952ba7f163c4a11628f55a4df523b3ef60405160405180910390a45050565b6000600a60009054906101000a900473ffffffffffffffffffffffffffffffffffffffff16905081600a60006101000a81548173ffffffffffffffffffffffffffffffffffffffff021916908373ffffffffffffffffffffffffffffffffffffffff1602179055508173ffffffffffffffffffffffffffffffffffffffff168173ffffffffffffffffffffffffffffffffffffffff167f8be0079c531659141344cd1fd0a4f28419497f9722a3daafe3b4186f6b6457e060405160405180910390a35050565b600081836122009190613ee5565b905092915050565b60008273ffffffffffffffffffffffffffffffffffffffff168260405161222e9061392b565b60006040518083038185875af1925050503d806000811461226b576040519150601f19603f3d011682016040523d82523d6000602084013e612270565b606091505b50509050806122b4576040517f08c379a00000000000000000000000000000000000000000000000000000000081526004016122ab90613ce6565b60405180910390fd5b505050565b6122c4848484611d47565b6122d08484848461263c565b61230f576040517f08c379a000000000000000000000000000000000000000000000000000000000815260040161230690613a86565b60405180910390fd5b50505050565b6060600c80546123249061405a565b80601f01602080910402602001604051908101604052809291908181526020018280546123509061405a565b801561239d5780601f106123725761010080835404028352916020019161239d565b820191906000526020600020905b81548152906001019060200180831161238057829003601f168201915b5050505050905090565b606060008214156123ef576040518060400160405280600181526020017f30000000000000000000000000000000000000000000000000000000000000008152509050612503565b600082905060005b6000821461242157808061240a906140bd565b915050600a8261241a9190613ee5565b91506123f7565b60008167ffffffffffffffff81111561243d5761243c614222565b5b6040519080825280601f01601f19166020018201604052801561246f5781602001600182028036833780820191505090505b5090505b600085146124fc576001826124889190613f70565b9150600a856124979190614106565b60306124a39190613e8f565b60f81b8183815181106124b9576124b86141f3565b5b60200101907effffffffffffffffffffffffffffffffffffffffffffffffffffffffffffff1916908160001a905350600a856124f59190613ee5565b9450612473565b8093505050505b919050565b60007f80ac58cd000000000000000000000000000000000000000000000000000000007bffffffffffffffffffffffffffffffffffffffffffffffffffffffff1916827bffffffffffffffffffffffffffffffffffffffffffffffffffffffff191614806125d357507f5b5e139f000000000000000000000000000000000000000000000000000000007bffffffffffffffffffffffffffffffffffffffffffffffffffffffff1916827bffffffffffffffffffffffffffffffffffffffffffffffffffffffff1916145b806125e357506125e2826127d3565b5b9050919050565b6125f583838361283d565b505050565b600081600001549050919050565b6001816000016000828254019250508190555050565b6126388282604051806020016040528060008152506128d7565b5050565b600061265d8473ffffffffffffffffffffffffffffffffffffffff16612932565b156127c6578373ffffffffffffffffffffffffffffffffffffffff1663150b7a026126866119f7565b8786866040518563ffffffff1660e01b81526004016126a8949392919061395b565b602060405180830381600087803b1580156126c257600080fd5b505af19250505080156126f357506040513d601f19601f820116820180604052508101906126f0919061333b565b60015b612776573d8060008114612723576040519150601f19603f3d011682016040523d82523d6000602084013e612728565b606091505b5060008151141561276e576040517f08c379a000000000000000000000000000000000000000000000000000000000815260040161276590613a86565b60405180910390fd5b805181602001fd5b63150b7a0260e01b7bffffffffffffffffffffffffffffffffffffffffffffffffffffffff1916817bffffffffffffffffffffffffffffffffffffffffffffffffffffffff1916149150506127cb565b600190505b949350505050565b60007f01ffc9a7000000000000000000000000000000000000000000000000000000007bffffffffffffffffffffffffffffffffffffffffffffffffffffffff1916827bffffffffffffffffffffffffffffffffffffffffffffffffffffffff1916149050919050565b612848838383612945565b6128506113fd565b73ffffffffffffffffffffffffffffffffffffffff1661286e6119f7565b73ffffffffffffffffffffffffffffffffffffffff16146128d2576128916110f1565b156128d1576040517f08c379a00000000000000000000000000000000000000000000000000000000081526004016128c890613a06565b60405180910390fd5b5b505050565b6128e18383612a59565b6128ee600084848461263c565b61292d576040517f08c379a000000000000000000000000000000000000000000000000000000000815260040161292490613a86565b60405180910390fd5b505050565b600080823b905060008111915050919050565b612950838383612c27565b600073ffffffffffffffffffffffffffffffffffffffff168373ffffffffffffffffffffffffffffffffffffffff1614156129935761298e81612c2c565b6129d2565b8173ffffffffffffffffffffffffffffffffffffffff168373ffffffffffffffffffffffffffffffffffffffff16146129d1576129d08382612c75565b5b5b600073ffffffffffffffffffffffffffffffffffffffff168273ffffffffffffffffffffffffffffffffffffffff161415612a1557612a1081612de2565b612a54565b8273ffffffffffffffffffffffffffffffffffffffff168273ffffffffffffffffffffffffffffffffffffffff1614612a5357612a528282612eb3565b5b5b505050565b600073ffffffffffffffffffffffffffffffffffffffff168273ffffffffffffffffffffffffffffffffffffffff161415612ac9576040517f08c379a0000000000000000000000000000000000000000000000000000000008152600401612ac090613be6565b60405180910390fd5b612ad281611b44565b15612b12576040517f08c379a0000000000000000000000000000000000000000000000000000000008152600401612b0990613ac6565b60405180910390fd5b612b1e600083836125ea565b6001600360008473ffffffffffffffffffffffffffffffffffffffff1673ffffffffffffffffffffffffffffffffffffffff1681526020019081526020016000206000828254612b6e9190613e8f565b92505081905550816002600083815260200190815260200160002060006101000a81548173ffffffffffffffffffffffffffffffffffffffff021916908373ffffffffffffffffffffffffffffffffffffffff160217905550808273ffffffffffffffffffffffffffffffffffffffff16600073ffffffffffffffffffffffffffffffffffffffff167fddf252ad1be2c89b69c2b068fc378daa952ba7f163c4a11628f55a4df523b3ef60405160405180910390a45050565b505050565b6008805490506009600083815260200190815260200160002081905550600881908060018154018082558091505060019003906000526020600020016000909190919091505550565b60006001612c82846111ba565b612c8c9190613f70565b9050600060076000848152602001908152602001600020549050818114612d71576000600660008673ffffffffffffffffffffffffffffffffffffffff1673ffffffffffffffffffffffffffffffffffffffff168152602001908152602001600020600084815260200190815260200160002054905080600660008773ffffffffffffffffffffffffffffffffffffffff1673ffffffffffffffffffffffffffffffffffffffff168152602001908152602001600020600084815260200190815260200160002081905550816007600083815260200190815260200160002081905550505b6007600084815260200190815260200160002060009055600660008573ffffffffffffffffffffffffffffffffffffffff1673ffffffffffffffffffffffffffffffffffffffff16815260200190815260200160002060008381526020019081526020016000206000905550505050565b60006001600880549050612df69190613f70565b9050600060096000848152602001908152602001600020549050600060088381548110612e2657612e256141f3565b5b906000526020600020015490508060088381548110612e4857612e476141f3565b5b906000526020600020018190555081600960008381526020019081526020016000208190555060096000858152602001908152602001600020600090556008805480612e9757612e966141c4565b5b6001900381819060005260206000200160009055905550505050565b6000612ebe836111ba565b905081600660008573ffffffffffffffffffffffffffffffffffffffff1673ffffffffffffffffffffffffffffffffffffffff168152602001908152602001600020600083815260200190815260200160002081905550806007600084815260200190815260200160002081905550505050565b828054612f3e9061405a565b90600052602060002090601f016020900481019282612f605760008555612fa7565b82601f10612f7957805160ff1916838001178555612fa7565b82800160010185558215612fa7579182015b82811115612fa6578251825591602001919060010190612f8b565b5b509050612fb49190612fb8565b5090565b5b80821115612fd1576000816000905550600101612fb9565b5090565b6000612fe8612fe384613da6565b613d81565b90508281526020810184848401111561300457613003614256565b5b61300f848285614018565b509392505050565b600061302a61302584613dd7565b613d81565b90508281526020810184848401111561304657613045614256565b5b613051848285614018565b509392505050565b6000813590506130688161492c565b92915050565b60008135905061307d81614943565b92915050565b6000813590506130928161495a565b92915050565b6000815190506130a78161495a565b92915050565b600082601f8301126130c2576130c1614251565b5b81356130d2848260208601612fd5565b91505092915050565b600082601f8301126130f0576130ef614251565b5b8135613100848260208601613017565b91505092915050565b60008135905061311881614971565b92915050565b60006020828403121561313457613133614260565b5b600061314284828501613059565b91505092915050565b6000806040838503121561316257613161614260565b5b600061317085828601613059565b925050602061318185828601613059565b9150509250929050565b6000806000606084860312156131a4576131a3614260565b5b60006131b286828701613059565b93505060206131c386828701613059565b92505060406131d486828701613109565b9150509250925092565b600080600080608085870312156131f8576131f7614260565b5b600061320687828801613059565b945050602061321787828801613059565b935050604061322887828801613109565b925050606085013567ffffffffffffffff8111156132495761324861425b565b5b613255878288016130ad565b91505092959194509250565b6000806040838503121561327857613277614260565b5b600061328685828601613059565b92505060206132978582860161306e565b9150509250929050565b600080604083850312156132b8576132b7614260565b5b60006132c685828601613059565b92505060206132d785828601613109565b9150509250929050565b6000602082840312156132f7576132f6614260565b5b60006133058482850161306e565b91505092915050565b60006020828403121561332457613323614260565b5b600061333284828501613083565b91505092915050565b60006020828403121561335157613350614260565b5b600061335f84828501613098565b91505092915050565b60006020828403121561337e5761337d614260565b5b600082013567ffffffffffffffff81111561339c5761339b61425b565b5b6133a8848285016130db565b91505092915050565b6000602082840312156133c7576133c6614260565b5b60006133d584828501613109565b91505092915050565b60006133ea83836138e9565b60208301905092915050565b6133ff81613fa4565b82525050565b600061341082613e18565b61341a8185613e46565b935061342583613e08565b8060005b8381101561345657815161343d88826133de565b975061344883613e39565b925050600181019050613429565b5085935050505092915050565b61346c81613fb6565b82525050565b600061347d82613e23565b6134878185613e57565b9350613497818560208601614027565b6134a081614265565b840191505092915050565b60006134b682613e2e565b6134c08185613e73565b93506134d0818560208601614027565b6134d981614265565b840191505092915050565b60006134ef82613e2e565b6134f98185613e84565b9350613509818560208601614027565b80840191505092915050565b6000613522602b83613e73565b915061352d82614276565b604082019050919050565b6000613545601483613e73565b9150613550826142c5565b602082019050919050565b6000613568600e83613e73565b9150613573826142ee565b602082019050919050565b600061358b602b83613e73565b915061359682614317565b604082019050919050565b60006135ae603283613e73565b91506135b982614366565b604082019050919050565b60006135d1602683613e73565b91506135dc826143b5565b604082019050919050565b60006135f4601c83613e73565b91506135ff82614404565b602082019050919050565b6000613617602483613e73565b91506136228261442d565b604082019050919050565b600061363a601983613e73565b91506136458261447c565b602082019050919050565b600061365d600983613e73565b9150613668826144a5565b602082019050919050565b6000613680602c83613e73565b915061368b826144ce565b604082019050919050565b60006136a3601083613e73565b91506136ae8261451d565b602082019050919050565b60006136c6603883613e73565b91506136d182614546565b604082019050919050565b60006136e9602a83613e73565b91506136f482614595565b604082019050919050565b600061370c602983613e73565b9150613717826145e4565b604082019050919050565b600061372f602083613e73565b915061373a82614633565b602082019050919050565b6000613752600883613e73565b915061375d8261465c565b602082019050919050565b6000613775602c83613e73565b915061378082614685565b604082019050919050565b6000613798602083613e73565b91506137a3826146d4565b602082019050919050565b60006137bb602983613e73565b91506137c6826146fd565b604082019050919050565b60006137de602f83613e73565b91506137e98261474c565b604082019050919050565b6000613801601183613e73565b915061380c8261479b565b602082019050919050565b6000613824602183613e73565b915061382f826147c4565b604082019050919050565b6000613847600083613e68565b915061385282614813565b600082019050919050565b600061386a601083613e73565b915061387582614816565b602082019050919050565b600061388d603183613e73565b91506138988261483f565b604082019050919050565b60006138b0602c83613e73565b91506138bb8261488e565b604082019050919050565b60006138d3603083613e73565b91506138de826148dd565b604082019050919050565b6138f28161400e565b82525050565b6139018161400e565b82525050565b600061391382856134e4565b915061391f82846134e4565b91508190509392505050565b60006139368261383a565b9150819050919050565b600060208201905061395560008301846133f6565b92915050565b600060808201905061397060008301876133f6565b61397d60208301866133f6565b61398a60408301856138f8565b818103606083015261399c8184613472565b905095945050505050565b600060208201905081810360008301526139c18184613405565b905092915050565b60006020820190506139de6000830184613463565b92915050565b600060208201905081810360008301526139fe81846134ab565b905092915050565b60006020820190508181036000830152613a1f81613515565b9050919050565b60006020820190508181036000830152613a3f81613538565b9050919050565b60006020820190508181036000830152613a5f8161355b565b9050919050565b60006020820190508181036000830152613a7f8161357e565b9050919050565b60006020820190508181036000830152613a9f816135a1565b9050919050565b60006020820190508181036000830152613abf816135c4565b9050919050565b60006020820190508181036000830152613adf816135e7565b9050919050565b60006020820190508181036000830152613aff8161360a565b9050919050565b60006020820190508181036000830152613b1f8161362d565b9050919050565b60006020820190508181036000830152613b3f81613650565b9050919050565b60006020820190508181036000830152613b5f81613673565b9050919050565b60006020820190508181036000830152613b7f81613696565b9050919050565b60006020820190508181036000830152613b9f816136b9565b9050919050565b60006020820190508181036000830152613bbf816136dc565b9050919050565b60006020820190508181036000830152613bdf816136ff565b9050919050565b60006020820190508181036000830152613bff81613722565b9050919050565b60006020820190508181036000830152613c1f81613745565b9050919050565b60006020820190508181036000830152613c3f81613768565b9050919050565b60006020820190508181036000830152613c5f8161378b565b9050919050565b60006020820190508181036000830152613c7f816137ae565b9050919050565b60006020820190508181036000830152613c9f816137d1565b9050919050565b60006020820190508181036000830152613cbf816137f4565b9050919050565b60006020820190508181036000830152613cdf81613817565b9050919050565b60006020820190508181036000830152613cff8161385d565b9050919050565b60006020820190508181036000830152613d1f81613880565b9050919050565b60006020820190508181036000830152613d3f816138a3565b9050919050565b60006020820190508181036000830152613d5f816138c6565b9050919050565b6000602082019050613d7b60008301846138f8565b92915050565b6000613d8b613d9c565b9050613d97828261408c565b919050565b6000604051905090565b600067ffffffffffffffff821115613dc157613dc0614222565b5b613dca82614265565b9050602081019050919050565b600067ffffffffffffffff821115613df257613df1614222565b5b613dfb82614265565b9050602081019050919050565b6000819050602082019050919050565b600081519050919050565b600081519050919050565b600081519050919050565b6000602082019050919050565b600082825260208201905092915050565b600082825260208201905092915050565b600081905092915050565b600082825260208201905092915050565b600081905092915050565b6000613e9a8261400e565b9150613ea58361400e565b9250827fffffffffffffffffffffffffffffffffffffffffffffffffffffffffffffffff03821115613eda57613ed9614137565b5b828201905092915050565b6000613ef08261400e565b9150613efb8361400e565b925082613f0b57613f0a614166565b5b828204905092915050565b6000613f218261400e565b9150613f2c8361400e565b9250817fffffffffffffffffffffffffffffffffffffffffffffffffffffffffffffffff0483118215151615613f6557613f64614137565b5b828202905092915050565b6000613f7b8261400e565b9150613f868361400e565b925082821015613f9957613f98614137565b5b828203905092915050565b6000613faf82613fee565b9050919050565b60008115159050919050565b60007fffffffff0000000000000000000000000000000000000000000000000000000082169050919050565b600073ffffffffffffffffffffffffffffffffffffffff82169050919050565b6000819050919050565b82818337600083830152505050565b60005b8381101561404557808201518184015260208101905061402a565b83811115614054576000848401525b50505050565b6000600282049050600182168061407257607f821691505b6020821081141561408657614085614195565b5b50919050565b61409582614265565b810181811067ffffffffffffffff821117156140b4576140b3614222565b5b80604052505050565b60006140c88261400e565b91507fffffffffffffffffffffffffffffffffffffffffffffffffffffffffffffffff8214156140fb576140fa614137565b5b600182019050919050565b60006141118261400e565b915061411c8361400e565b92508261412c5761412b614166565b5b828206905092915050565b7f4e487b7100000000000000000000000000000000000000000000000000000000600052601160045260246000fd5b7f4e487b7100000000000000000000000000000000000000000000000000000000600052601260045260246000fd5b7f4e487b7100000000000000000000000000000000000000000000000000000000600052602260045260246000fd5b7f4e487b7100000000000000000000000000000000000000000000000000000000600052603160045260246000fd5b7f4e487b7100000000000000000000000000000000000000000000000000000000600052603260045260246000fd5b7f4e487b7100000000000000000000000000000000000000000000000000000000600052604160045260246000fd5b600080fd5b600080fd5b600080fd5b600080fd5b6000601f19601f8301169050919050565b7f4552433732315061757361626c653a20746f6b656e207472616e73666572207760008201527f68696c6520706175736564000000000000000000000000000000000000000000602082015250565b7f5061757361626c653a206e6f7420706175736564000000000000000000000000600082015250565b7f45786365656473206e756d626572000000000000000000000000000000000000600082015250565b7f455243373231456e756d657261626c653a206f776e657220696e646578206f7560008201527f74206f6620626f756e6473000000000000000000000000000000000000000000602082015250565b7f4552433732313a207472616e7366657220746f206e6f6e20455243373231526560008201527f63656976657220696d706c656d656e7465720000000000000000000000000000602082015250565b7f4f776e61626c653a206e6577206f776e657220697320746865207a65726f206160008201527f6464726573730000000000000000000000000000000000000000000000000000602082015250565b7f4552433732313a20746f6b656e20616c7265616479206d696e74656400000000600082015250565b7f4552433732313a207472616e7366657220746f20746865207a65726f2061646460008201527f7265737300000000000000000000000000000000000000000000000000000000602082015250565b7f4552433732313a20617070726f766520746f2063616c6c657200000000000000600082015250565b7f4d6178206c696d69740000000000000000000000000000000000000000000000600082015250565b7f4552433732313a206f70657261746f7220717565727920666f72206e6f6e657860008201527f697374656e7420746f6b656e0000000000000000000000000000000000000000602082015250565b7f5061757361626c653a2070617573656400000000000000000000000000000000600082015250565b7f4552433732313a20617070726f76652063616c6c6572206973206e6f74206f7760008201527f6e6572206e6f7220617070726f76656420666f7220616c6c0000000000000000602082015250565b7f4552433732313a2062616c616e636520717565727920666f7220746865207a6560008201527f726f206164647265737300000000000000000000000000000000000000000000602082015250565b7f4552433732313a206f776e657220717565727920666f72206e6f6e657869737460008201527f656e7420746f6b656e0000000000000000000000000000000000000000000000602082015250565b7f4552433732313a206d696e7420746f20746865207a65726f2061646472657373600082015250565b7f53616c6520656e64000000000000000000000000000000000000000000000000600082015250565b7f4552433732313a20617070726f76656420717565727920666f72206e6f6e657860008201527f697374656e7420746f6b656e0000000000000000000000000000000000000000602082015250565b7f4f776e61626c653a2063616c6c6572206973206e6f7420746865206f776e6572600082015250565b7f4552433732313a207472616e73666572206f6620746f6b656e2074686174206960008201527f73206e6f74206f776e0000000000000000000000000000000000000000000000602082015250565b7f4552433732314d657461646174613a2055524920717565727920666f72206e6f60008201527f6e6578697374656e7420746f6b656e0000000000000000000000000000000000602082015250565b7f56616c75652062656c6f77207072696365000000000000000000000000000000600082015250565b7f4552433732313a20617070726f76616c20746f2063757272656e74206f776e6560008201527f7200000000000000000000000000000000000000000000000000000000000000602082015250565b50565b7f5472616e73666572206661696c65642e00000000000000000000000000000000600082015250565b7f4552433732313a207472616e736665722063616c6c6572206973206e6f74206f60008201527f776e6572206e6f7220617070726f766564000000000000000000000000000000602082015250565b7f455243373231456e756d657261626c653a20676c6f62616c20696e646578206f60008201527f7574206f6620626f756e64730000000000000000000000000000000000000000602082015250565b7f4552433732314275726e61626c653a2063616c6c6572206973206e6f74206f7760008201527f6e6572206e6f7220617070726f76656400000000000000000000000000000000602082015250565b61493581613fa4565b811461494057600080fd5b50565b61494c81613fb6565b811461495757600080fd5b50565b61496381613fc2565b811461496e57600080fd5b50565b61497a8161400e565b811461498557600080fd5b5056fea264697066735822122081effc5f86ce4642f2d36662df4d54f8be99c5b512ef715ab68de08b00ba9d8f64736f6c63430008060033",
    "immutableReferences": {},
    "source": "// SPDX-License-Identifier: MIT\npragma solidity 0.8.6;\n\nimport \"@openzeppelin/contracts/token/ERC721/ERC721.sol\";\nimport \"@openzeppelin/contracts/token/ERC721/extensions/ERC721Enumerable.sol\";\nimport \"@openzeppelin/contracts/token/ERC721/extensions/ERC721Burnable.sol\";\nimport \"@openzeppelin/contracts/access/Ownable.sol\";\nimport \"@openzeppelin/contracts/utils/math/SafeMath.sol\";\nimport \"@openzeppelin/contracts/utils/Counters.sol\";\n\n/**\n * @dev ERC721 token with pausable token transfers, minting and burning.\n *\n * Useful for scenarios such as preventing trades until the end of an evaluation\n * period, or having an emergency switch for freezing all token transfers in the\n * event of a large bug.\n */\n\nabstract contract Pausable is Context {\n    /**\n     * @dev Emitted when the pause is triggered by `account`.\n     */\n    event Paused(address account);\n\n    /**\n     * @dev Emitted when the pause is lifted by `account`.\n     */\n    event Unpaused(address account);\n\n    bool private _paused;\n\n    /**\n     * @dev Initializes the contract in unpaused state.\n     */\n    constructor() {\n        _paused = false;\n    }\n\n    /**\n     * @dev Returns true if the contract is paused, and false otherwise.\n     */\n    function paused() public view virtual returns (bool) {\n        return _paused;\n    }\n\n    /**\n     * @dev Modifier to make a function callable only when the contract is not paused.\n     *\n     * Requirements:\n     *\n     * - The contract must not be paused.\n     */\n    modifier whenNotPaused() {\n        require(!paused(), \"Pausable: paused\");\n        _;\n    }\n\n    /**\n     * @dev Modifier to make a function callable only when the contract is paused.\n     *\n     * Requirements:\n     *\n     * - The contract must be paused.\n     */\n    modifier whenPaused() {\n        require(paused(), \"Pausable: not paused\");\n        _;\n    }\n\n    /**\n     * @dev Triggers stopped state.\n     *\n     * Requirements:\n     *\n     * - The contract must not be paused.\n     */\n    function _pause() internal virtual whenNotPaused {\n        _paused = true;\n        emit Paused(_msgSender());\n    }\n\n    /**\n     * @dev Returns to normal state.\n     *\n     * Requirements:\n     *\n     * - The contract must be paused.\n     */\n    function _unpause() internal virtual whenPaused {\n        _paused = false;\n        emit Unpaused(_msgSender());\n    }\n}\n\nabstract contract ERC721Pausable is ERC721, Ownable, Pausable {\n    /**\n     * @dev See {ERC721-_beforeTokenTransfer}.\n     *\n     * Requirements:\n     *\n     * - the contract must not be paused.\n     */\n    function _beforeTokenTransfer(\n        address from,\n        address to,\n        uint256 tokenId\n    ) internal virtual override {\n        super._beforeTokenTransfer(from, to, tokenId);\n        if (_msgSender() != owner()) {\n            require(!paused(), \"ERC721Pausable: token transfer while paused\");\n        }\n    }\n}\n\ncontract MyNFT is ERC721Enumerable, Ownable, ERC721Burnable, ERC721Pausable {\n    using SafeMath for uint256;\n    using Counters for Counters.Counter;\n\n    Counters.Counter private _tokenIdTracker;\n\n    uint256 public constant MAX_ELEMENTS = 8888;\n    uint256 public constant PRICE = 3 * 10**16;\n    uint256 public constant MAX_BY_MINT = 20;\n    uint256 public constant reveal_timestamp = 1627588800; // Thu Jul 29 2021 20:00:00 GMT+0000\n    address public constant creatorAddress = 0x6F84Fa72Ca4554E0eEFcB9032e5A4F1FB41b726C;\n    address public constant devAddress = 0xcBCc84766F2950CF867f42D766c43fB2D2Ba3256;\n    string public baseTokenURI;\n\n    event CreatePenguin(uint256 indexed id);\n    constructor(string memory baseURI) ERC721(\"PudgyPenguins\", \"PPG\") {\n        setBaseURI(baseURI);\n        pause(true);\n    }\n\n    modifier saleIsOpen {\n        require(_totalSupply() <= MAX_ELEMENTS, \"Sale end\");\n        if (_msgSender() != owner()) {\n            require(!paused(), \"Pausable: paused\");\n        }\n        _;\n    }\n    function _totalSupply() internal view returns (uint) {\n        return _tokenIdTracker.current();\n    }\n    function totalMint() public view returns (uint256) {\n        return _totalSupply();\n    }\n    function mint(address _to, uint256 _count) public payable saleIsOpen {\n        uint256 total = _totalSupply();\n        require(total + _count <= MAX_ELEMENTS, \"Max limit\");\n        require(total <= MAX_ELEMENTS, \"Sale end\");\n        require(_count <= MAX_BY_MINT, \"Exceeds number\");\n        require(msg.value >= price(_count), \"Value below price\");\n\n        for (uint256 i = 0; i < _count; i++) {\n            _mintAnElement(_to);\n        }\n    }\n    function _mintAnElement(address _to) private {\n        uint id = _totalSupply();\n        _tokenIdTracker.increment();\n        _safeMint(_to, id);\n        emit CreatePenguin(id);\n    }\n    function price(uint256 _count) public pure returns (uint256) {\n        return PRICE.mul(_count);\n    }\n\n    function _baseURI() internal view virtual override returns (string memory) {\n        return baseTokenURI;\n    }\n\n    function setBaseURI(string memory baseURI) public onlyOwner {\n        baseTokenURI = baseURI;\n    }\n\n    function walletOfOwner(address _owner) external view returns (uint256[] memory) {\n        uint256 tokenCount = balanceOf(_owner);\n\n        uint256[] memory tokensId = new uint256[](tokenCount);\n        for (uint256 i = 0; i < tokenCount; i++) {\n            tokensId[i] = tokenOfOwnerByIndex(_owner, i);\n        }\n\n        return tokensId;\n    }\n\n    function pause(bool val) public onlyOwner {\n        if (val == true) {\n            _pause();\n            return;\n        }\n        _unpause();\n    }\n\n    function withdrawAll() public payable onlyOwner {\n        uint256 balance = address(this).balance;\n        require(balance > 0);\n        _widthdraw(devAddress, balance.mul(35).div(100));\n        _widthdraw(creatorAddress, address(this).balance);\n    }\n\n    function _widthdraw(address _address, uint256 _amount) private {\n        (bool success, ) = _address.call{value: _amount}(\"\");\n        require(success, \"Transfer failed.\");\n    }\n\n    function _beforeTokenTransfer(\n        address from,\n        address to,\n        uint256 tokenId\n    ) internal virtual override(ERC721, ERC721Enumerable, ERC721Pausable) {\n        super._beforeTokenTransfer(from, to, tokenId);\n    }\n\n    function supportsInterface(bytes4 interfaceId) public view virtual override(ERC721, ERC721Enumerable) returns (bool) {\n        return super.supportsInterface(interfaceId);\n    }\n    \n}",
    "sourcePath": "/home/turupawn/Projects/MyNFT/contracts/MyNFT.sol",
    "compiler": {
        "name": "solc",
        "version": "0.8.6+commit.11564f7e.Emscripten.clang"
    },
    "schemaVersion": "3.4.3",
    "updatedAt": "2021-09-02T15:12:39.887Z",
    "devdoc": {
        "kind": "dev",
        "methods": {
            "approve(address,uint256)": {
                "details": "See {IERC721-approve}."
            },
            "balanceOf(address)": {
                "details": "See {IERC721-balanceOf}."
            },
            "burn(uint256)": {
                "details": "Burns `tokenId`. See {ERC721-_burn}. Requirements: - The caller must own `tokenId` or be an approved operator."
            },
            "getApproved(uint256)": {
                "details": "See {IERC721-getApproved}."
            },
            "isApprovedForAll(address,address)": {
                "details": "See {IERC721-isApprovedForAll}."
            },
            "name()": {
                "details": "See {IERC721Metadata-name}."
            },
            "owner()": {
                "details": "Returns the address of the current owner."
            },
            "ownerOf(uint256)": {
                "details": "See {IERC721-ownerOf}."
            },
            "paused()": {
                "details": "Returns true if the contract is paused, and false otherwise."
            },
            "renounceOwnership()": {
                "details": "Leaves the contract without owner. It will not be possible to call `onlyOwner` functions anymore. Can only be called by the current owner. NOTE: Renouncing ownership will leave the contract without an owner, thereby removing any functionality that is only available to the owner."
            },
            "safeTransferFrom(address,address,uint256)": {
                "details": "See {IERC721-safeTransferFrom}."
            },
            "safeTransferFrom(address,address,uint256,bytes)": {
                "details": "See {IERC721-safeTransferFrom}."
            },
            "setApprovalForAll(address,bool)": {
                "details": "See {IERC721-setApprovalForAll}."
            },
            "symbol()": {
                "details": "See {IERC721Metadata-symbol}."
            },
            "tokenByIndex(uint256)": {
                "details": "See {IERC721Enumerable-tokenByIndex}."
            },
            "tokenOfOwnerByIndex(address,uint256)": {
                "details": "See {IERC721Enumerable-tokenOfOwnerByIndex}."
            },
            "tokenURI(uint256)": {
                "details": "See {IERC721Metadata-tokenURI}."
            },
            "totalSupply()": {
                "details": "See {IERC721Enumerable-totalSupply}."
            },
            "transferFrom(address,address,uint256)": {
                "details": "See {IERC721-transferFrom}."
            },
            "transferOwnership(address)": {
                "details": "Transfers ownership of the contract to a new account (`newOwner`). Can only be called by the current owner."
            }
        },
        "version": 1
    },
    "userdoc": {
        "kind": "user",
        "methods": {},
        "version": 1
    }
}