{
  "contractName": "FunkyCrocs",
  "abi": [
    {
      "inputs": [],
      "stateMutability": "nonpayable",
      "type": "constructor"
    },
    {
      "anonymous": false,
      "inputs": [
        {
          "indexed": true,
          "internalType": "address",
          "name": "owner",
          "type": "address"
        },
        {
          "indexed": true,
          "internalType": "address",
          "name": "approved",
          "type": "address"
        },
        {
          "indexed": true,
          "internalType": "uint256",
          "name": "tokenId",
          "type": "uint256"
        }
      ],
      "name": "Approval",
      "type": "event"
    },
    {
      "anonymous": false,
      "inputs": [
        {
          "indexed": true,
          "internalType": "address",
          "name": "owner",
          "type": "address"
        },
        {
          "indexed": true,
          "internalType": "address",
          "name": "operator",
          "type": "address"
        },
        {
          "indexed": false,
          "internalType": "bool",
          "name": "approved",
          "type": "bool"
        }
      ],
      "name": "ApprovalForAll",
      "type": "event"
    },
    {
      "anonymous": false,
      "inputs": [
        {
          "indexed": true,
          "internalType": "address",
          "name": "previousOwner",
          "type": "address"
        },
        {
          "indexed": true,
          "internalType": "address",
          "name": "newOwner",
          "type": "address"
        }
      ],
      "name": "OwnershipTransferred",
      "type": "event"
    },
    {
      "anonymous": false,
      "inputs": [
        {
          "indexed": true,
          "internalType": "address",
          "name": "from",
          "type": "address"
        },
        {
          "indexed": true,
          "internalType": "address",
          "name": "to",
          "type": "address"
        },
        {
          "indexed": true,
          "internalType": "uint256",
          "name": "tokenId",
          "type": "uint256"
        }
      ],
      "name": "Transfer",
      "type": "event"
    },
    {
      "inputs": [],
      "name": "MAX_MINT_PER_TX",
      "outputs": [
        {
          "internalType": "uint256",
          "name": "",
          "type": "uint256"
        }
      ],
      "stateMutability": "view",
      "type": "function",
      "constant": true
    },
    {
      "inputs": [],
      "name": "MAX_PRESALE_SUPPLY",
      "outputs": [
        {
          "internalType": "uint256",
          "name": "",
          "type": "uint256"
        }
      ],
      "stateMutability": "view",
      "type": "function",
      "constant": true
    },
    {
      "inputs": [],
      "name": "MAX_SUPPLY",
      "outputs": [
        {
          "internalType": "uint256",
          "name": "",
          "type": "uint256"
        }
      ],
      "stateMutability": "view",
      "type": "function",
      "constant": true
    },
    {
      "inputs": [],
      "name": "a1",
      "outputs": [
        {
          "internalType": "address",
          "name": "",
          "type": "address"
        }
      ],
      "stateMutability": "view",
      "type": "function",
      "constant": true
    },
    {
      "inputs": [],
      "name": "a2",
      "outputs": [
        {
          "internalType": "address",
          "name": "",
          "type": "address"
        }
      ],
      "stateMutability": "view",
      "type": "function",
      "constant": true
    },
    {
      "inputs": [],
      "name": "a3",
      "outputs": [
        {
          "internalType": "address",
          "name": "",
          "type": "address"
        }
      ],
      "stateMutability": "view",
      "type": "function",
      "constant": true
    },
    {
      "inputs": [],
      "name": "a4",
      "outputs": [
        {
          "internalType": "address",
          "name": "",
          "type": "address"
        }
      ],
      "stateMutability": "view",
      "type": "function",
      "constant": true
    },
    {
      "inputs": [],
      "name": "a5",
      "outputs": [
        {
          "internalType": "address",
          "name": "",
          "type": "address"
        }
      ],
      "stateMutability": "view",
      "type": "function",
      "constant": true
    },
    {
      "inputs": [
        {
          "internalType": "address",
          "name": "to",
          "type": "address"
        },
        {
          "internalType": "uint256",
          "name": "tokenId",
          "type": "uint256"
        }
      ],
      "name": "approve",
      "outputs": [],
      "stateMutability": "nonpayable",
      "type": "function"
    },
    {
      "inputs": [
        {
          "internalType": "address",
          "name": "owner",
          "type": "address"
        }
      ],
      "name": "balanceOf",
      "outputs": [
        {
          "internalType": "uint256",
          "name": "",
          "type": "uint256"
        }
      ],
      "stateMutability": "view",
      "type": "function",
      "constant": true
    },
    {
      "inputs": [],
      "name": "baseTokenURI",
      "outputs": [
        {
          "internalType": "string",
          "name": "",
          "type": "string"
        }
      ],
      "stateMutability": "view",
      "type": "function",
      "constant": true
    },
    {
      "inputs": [
        {
          "internalType": "uint256",
          "name": "tokenId",
          "type": "uint256"
        }
      ],
      "name": "getApproved",
      "outputs": [
        {
          "internalType": "address",
          "name": "",
          "type": "address"
        }
      ],
      "stateMutability": "view",
      "type": "function",
      "constant": true
    },
    {
      "inputs": [],
      "name": "initial_price",
      "outputs": [
        {
          "internalType": "uint256",
          "name": "",
          "type": "uint256"
        }
      ],
      "stateMutability": "view",
      "type": "function",
      "constant": true
    },
    {
      "inputs": [
        {
          "internalType": "address",
          "name": "owner",
          "type": "address"
        },
        {
          "internalType": "address",
          "name": "operator",
          "type": "address"
        }
      ],
      "name": "isApprovedForAll",
      "outputs": [
        {
          "internalType": "bool",
          "name": "",
          "type": "bool"
        }
      ],
      "stateMutability": "view",
      "type": "function",
      "constant": true
    },
    {
      "inputs": [],
      "name": "name",
      "outputs": [
        {
          "internalType": "string",
          "name": "",
          "type": "string"
        }
      ],
      "stateMutability": "view",
      "type": "function",
      "constant": true
    },
    {
      "inputs": [],
      "name": "owner",
      "outputs": [
        {
          "internalType": "address",
          "name": "",
          "type": "address"
        }
      ],
      "stateMutability": "view",
      "type": "function",
      "constant": true
    },
    {
      "inputs": [
        {
          "internalType": "uint256",
          "name": "tokenId",
          "type": "uint256"
        }
      ],
      "name": "ownerOf",
      "outputs": [
        {
          "internalType": "address",
          "name": "",
          "type": "address"
        }
      ],
      "stateMutability": "view",
      "type": "function",
      "constant": true
    },
    {
      "inputs": [],
      "name": "presaleActive",
      "outputs": [
        {
          "internalType": "bool",
          "name": "",
          "type": "bool"
        }
      ],
      "stateMutability": "view",
      "type": "function",
      "constant": true
    },
    {
      "inputs": [],
      "name": "presale_price",
      "outputs": [
        {
          "internalType": "uint256",
          "name": "",
          "type": "uint256"
        }
      ],
      "stateMutability": "view",
      "type": "function",
      "constant": true
    },
    {
      "inputs": [],
      "name": "price",
      "outputs": [
        {
          "internalType": "uint256",
          "name": "",
          "type": "uint256"
        }
      ],
      "stateMutability": "view",
      "type": "function",
      "constant": true
    },
    {
      "inputs": [],
      "name": "renounceOwnership",
      "outputs": [],
      "stateMutability": "nonpayable",
      "type": "function"
    },
    {
      "inputs": [],
      "name": "reserved",
      "outputs": [
        {
          "internalType": "uint256",
          "name": "",
          "type": "uint256"
        }
      ],
      "stateMutability": "view",
      "type": "function",
      "constant": true
    },
    {
      "inputs": [
        {
          "internalType": "address",
          "name": "from",
          "type": "address"
        },
        {
          "internalType": "address",
          "name": "to",
          "type": "address"
        },
        {
          "internalType": "uint256",
          "name": "tokenId",
          "type": "uint256"
        }
      ],
      "name": "safeTransferFrom",
      "outputs": [],
      "stateMutability": "nonpayable",
      "type": "function"
    },
    {
      "inputs": [
        {
          "internalType": "address",
          "name": "from",
          "type": "address"
        },
        {
          "internalType": "address",
          "name": "to",
          "type": "address"
        },
        {
          "internalType": "uint256",
          "name": "tokenId",
          "type": "uint256"
        },
        {
          "internalType": "bytes",
          "name": "_data",
          "type": "bytes"
        }
      ],
      "name": "safeTransferFrom",
      "outputs": [],
      "stateMutability": "nonpayable",
      "type": "function"
    },
    {
      "inputs": [],
      "name": "saleActive",
      "outputs": [
        {
          "internalType": "bool",
          "name": "",
          "type": "bool"
        }
      ],
      "stateMutability": "view",
      "type": "function",
      "constant": true
    },
    {
      "inputs": [
        {
          "internalType": "address",
          "name": "operator",
          "type": "address"
        },
        {
          "internalType": "bool",
          "name": "approved",
          "type": "bool"
        }
      ],
      "name": "setApprovalForAll",
      "outputs": [],
      "stateMutability": "nonpayable",
      "type": "function"
    },
    {
      "inputs": [
        {
          "internalType": "bytes4",
          "name": "interfaceId",
          "type": "bytes4"
        }
      ],
      "name": "supportsInterface",
      "outputs": [
        {
          "internalType": "bool",
          "name": "",
          "type": "bool"
        }
      ],
      "stateMutability": "view",
      "type": "function",
      "constant": true
    },
    {
      "inputs": [],
      "name": "symbol",
      "outputs": [
        {
          "internalType": "string",
          "name": "",
          "type": "string"
        }
      ],
      "stateMutability": "view",
      "type": "function",
      "constant": true
    },
    {
      "inputs": [
        {
          "internalType": "uint256",
          "name": "index",
          "type": "uint256"
        }
      ],
      "name": "tokenByIndex",
      "outputs": [
        {
          "internalType": "uint256",
          "name": "",
          "type": "uint256"
        }
      ],
      "stateMutability": "view",
      "type": "function",
      "constant": true
    },
    {
      "inputs": [
        {
          "internalType": "address",
          "name": "owner",
          "type": "address"
        },
        {
          "internalType": "uint256",
          "name": "index",
          "type": "uint256"
        }
      ],
      "name": "tokenOfOwnerByIndex",
      "outputs": [
        {
          "internalType": "uint256",
          "name": "",
          "type": "uint256"
        }
      ],
      "stateMutability": "view",
      "type": "function",
      "constant": true
    },
    {
      "inputs": [
        {
          "internalType": "uint256",
          "name": "tokenId",
          "type": "uint256"
        }
      ],
      "name": "tokenURI",
      "outputs": [
        {
          "internalType": "string",
          "name": "",
          "type": "string"
        }
      ],
      "stateMutability": "view",
      "type": "function",
      "constant": true
    },
    {
      "inputs": [],
      "name": "totalSupply",
      "outputs": [
        {
          "internalType": "uint256",
          "name": "",
          "type": "uint256"
        }
      ],
      "stateMutability": "view",
      "type": "function",
      "constant": true
    },
    {
      "inputs": [
        {
          "internalType": "address",
          "name": "from",
          "type": "address"
        },
        {
          "internalType": "address",
          "name": "to",
          "type": "address"
        },
        {
          "internalType": "uint256",
          "name": "tokenId",
          "type": "uint256"
        }
      ],
      "name": "transferFrom",
      "outputs": [],
      "stateMutability": "nonpayable",
      "type": "function"
    },
    {
      "inputs": [
        {
          "internalType": "address",
          "name": "newOwner",
          "type": "address"
        }
      ],
      "name": "transferOwnership",
      "outputs": [],
      "stateMutability": "nonpayable",
      "type": "function"
    },
    {
      "inputs": [],
      "name": "whitelistActive",
      "outputs": [
        {
          "internalType": "bool",
          "name": "",
          "type": "bool"
        }
      ],
      "stateMutability": "view",
      "type": "function",
      "constant": true
    },
    {
      "inputs": [
        {
          "internalType": "address",
          "name": "",
          "type": "address"
        }
      ],
      "name": "whitelistReserved",
      "outputs": [
        {
          "internalType": "uint256",
          "name": "",
          "type": "uint256"
        }
      ],
      "stateMutability": "view",
      "type": "function",
      "constant": true
    },
    {
      "inputs": [
        {
          "internalType": "address",
          "name": "addr",
          "type": "address"
        }
      ],
      "name": "tokensOfOwner",
      "outputs": [
        {
          "internalType": "uint256[]",
          "name": "",
          "type": "uint256[]"
        }
      ],
      "stateMutability": "view",
      "type": "function",
      "constant": true
    },
    {
      "inputs": [
        {
          "internalType": "uint256",
          "name": "_amount",
          "type": "uint256"
        }
      ],
      "name": "mintWhitelist",
      "outputs": [],
      "stateMutability": "payable",
      "type": "function",
      "payable": true
    },
    {
      "inputs": [
        {
          "internalType": "uint256",
          "name": "_amount",
          "type": "uint256"
        }
      ],
      "name": "mintPresale",
      "outputs": [],
      "stateMutability": "payable",
      "type": "function",
      "payable": true
    },
    {
      "inputs": [
        {
          "internalType": "uint256",
          "name": "_amount",
          "type": "uint256"
        }
      ],
      "name": "mintToken",
      "outputs": [],
      "stateMutability": "payable",
      "type": "function",
      "payable": true
    },
    {
      "inputs": [
        {
          "internalType": "uint256",
          "name": "_amount",
          "type": "uint256"
        }
      ],
      "name": "mintReserved",
      "outputs": [],
      "stateMutability": "nonpayable",
      "type": "function"
    },
    {
      "inputs": [
        {
          "internalType": "address[]",
          "name": "_a",
          "type": "address[]"
        },
        {
          "internalType": "uint256[]",
          "name": "_amount",
          "type": "uint256[]"
        }
      ],
      "name": "editWhitelistReserved",
      "outputs": [],
      "stateMutability": "nonpayable",
      "type": "function"
    },
    {
      "inputs": [
        {
          "internalType": "bool",
          "name": "val",
          "type": "bool"
        }
      ],
      "name": "setWhitelistActive",
      "outputs": [],
      "stateMutability": "nonpayable",
      "type": "function"
    },
    {
      "inputs": [
        {
          "internalType": "bool",
          "name": "val",
          "type": "bool"
        }
      ],
      "name": "setPresaleActive",
      "outputs": [],
      "stateMutability": "nonpayable",
      "type": "function"
    },
    {
      "inputs": [
        {
          "internalType": "bool",
          "name": "val",
          "type": "bool"
        }
      ],
      "name": "setSaleActive",
      "outputs": [],
      "stateMutability": "nonpayable",
      "type": "function"
    },
    {
      "inputs": [
        {
          "internalType": "string",
          "name": "baseURI",
          "type": "string"
        }
      ],
      "name": "setBaseURI",
      "outputs": [],
      "stateMutability": "nonpayable",
      "type": "function"
    },
    {
      "inputs": [
        {
          "internalType": "uint256",
          "name": "newPrice",
          "type": "uint256"
        }
      ],
      "name": "setPrice",
      "outputs": [],
      "stateMutability": "nonpayable",
      "type": "function"
    },
    {
      "inputs": [
        {
          "internalType": "address[]",
          "name": "_a",
          "type": "address[]"
        }
      ],
      "name": "setAddresses",
      "outputs": [],
      "stateMutability": "nonpayable",
      "type": "function"
    },
    {
      "inputs": [
        {
          "internalType": "uint256",
          "name": "amount",
          "type": "uint256"
        }
      ],
      "name": "withdrawTeam",
      "outputs": [],
      "stateMutability": "payable",
      "type": "function",
      "payable": true
    }
  ],
  "bytecode": "0x60806040526000600a60146101000a81548160ff0219169083151502179055506000600a60156101000a81548160ff0219169083151502179055506000600a60166101000a81548160ff0219169083151502179055506096600b55668e1bc9bf040000600c55666a94d74f430000600d556040518060400160405280601a81526020017f68747470733a2f2f6170692e66756e6b7963726f63732e696f2f000000000000815250600f9080519060200190620000bd92919062000269565b50348015620000cb57600080fd5b506040518060400160405280600b81526020017f46756e6b792043726f63730000000000000000000000000000000000000000008152506040518060400160405280600381526020017f464e4b000000000000000000000000000000000000000000000000000000000081525081600090805190602001906200015092919062000269565b5080600190805190602001906200016992919062000269565b5050506200018c620001806200019b60201b60201c565b620001a360201b60201c565b600c54600e819055506200037e565b600033905090565b6000600a60009054906101000a900473ffffffffffffffffffffffffffffffffffffffff16905081600a60006101000a81548173ffffffffffffffffffffffffffffffffffffffff021916908373ffffffffffffffffffffffffffffffffffffffff1602179055508173ffffffffffffffffffffffffffffffffffffffff168173ffffffffffffffffffffffffffffffffffffffff167f8be0079c531659141344cd1fd0a4f28419497f9722a3daafe3b4186f6b6457e060405160405180910390a35050565b828054620002779062000348565b90600052602060002090601f0160209004810192826200029b5760008555620002e7565b82601f10620002b657805160ff1916838001178555620002e7565b82800160010185558215620002e7579182015b82811115620002e6578251825591602001919060010190620002c9565b5b509050620002f69190620002fa565b5090565b5b8082111562000315576000816000905550600101620002fb565b5090565b7f4e487b7100000000000000000000000000000000000000000000000000000000600052602260045260246000fd5b600060028204905060018216806200036157607f821691505b6020821081141562000378576200037762000319565b5b50919050565b6155d5806200038e6000396000f3fe6080604052600436106102ae5760003560e01c80638462151c11610175578063b88d4fde116100dc578063e985e9c511610095578063f74ea4181161006f578063f74ea41814610aa8578063f759867a14610ad3578063fd2b049214610aef578063fe60d12c14610b0b576102ae565b8063e985e9c514610a19578063f14c0bcc14610a56578063f2fde38b14610a7f576102ae565b8063b88d4fde1461091a578063b957172114610943578063c3b754dc1461096c578063c634d03214610995578063c87b56dd146109b1578063d547cfb7146109ee576102ae565b8063969745e81161012e578063969745e81461081c578063969e9d0c146108475780639a5d140b14610872578063a035b1fe1461089b578063a22cb465146108c6578063ab3f5a1a146108ef576102ae565b80638462151c1461070a5780638da5cb5b146107475780638ecad7211461077257806391b7f5ed1461079d5780639426eef8146107c657806395d89b41146107f1576102ae565b80634618163e1161021957806368428a1b116101d257806368428a1b146105fa5780636b8dc3551461062557806370a0823114610650578063715018a61461068d57806372e3a3eb146106a4578063841718a6146106e1576102ae565b80634618163e146104e55780634f6ccce71461050157806353135ca01461053e57806355f804b314610569578063615db6e1146105925780636352211e146105bd576102ae565b806318160ddd1161026b57806318160ddd146103d757806323b872dd146104025780632f745c591461042b57806332cb6b0c146104685780633f8121a21461049357806342842e0e146104bc576102ae565b806301ffc9a7146102b357806302ce5813146102f057806306fdde031461031b578063081812fc14610346578063095ea7b314610383578063119552a1146103ac575b600080fd5b3480156102bf57600080fd5b506102da60048036038101906102d59190613a06565b610b36565b6040516102e79190613a4e565b60405180910390f35b3480156102fc57600080fd5b50610305610bb0565b6040516103129190613a4e565b60405180910390f35b34801561032757600080fd5b50610330610bc3565b60405161033d9190613b02565b60405180910390f35b34801561035257600080fd5b5061036d60048036038101906103689190613b5a565b610c55565b60405161037a9190613bc8565b60405180910390f35b34801561038f57600080fd5b506103aa60048036038101906103a59190613c0f565b610cda565b005b3480156103b857600080fd5b506103c1610df2565b6040516103ce9190613bc8565b60405180910390f35b3480156103e357600080fd5b506103ec610e18565b6040516103f99190613c5e565b60405180910390f35b34801561040e57600080fd5b5061042960048036038101906104249190613c79565b610e25565b005b34801561043757600080fd5b50610452600480360381019061044d9190613c0f565b610e85565b60405161045f9190613c5e565b60405180910390f35b34801561047457600080fd5b5061047d610f2a565b60405161048a9190613c5e565b60405180910390f35b34801561049f57600080fd5b506104ba60048036038101906104b59190613cf8565b610f30565b005b3480156104c857600080fd5b506104e360048036038101906104de9190613c79565b610fc9565b005b6104ff60048036038101906104fa9190613b5a565b610fe9565b005b34801561050d57600080fd5b5061052860048036038101906105239190613b5a565b611235565b6040516105359190613c5e565b60405180910390f35b34801561054a57600080fd5b506105536112a6565b6040516105609190613a4e565b60405180910390f35b34801561057557600080fd5b50610590600480360381019061058b9190613e5a565b6112b9565b005b34801561059e57600080fd5b506105a761134f565b6040516105b49190613bc8565b60405180910390f35b3480156105c957600080fd5b506105e460048036038101906105df9190613b5a565b611375565b6040516105f19190613bc8565b60405180910390f35b34801561060657600080fd5b5061060f611427565b60405161061c9190613a4e565b60405180910390f35b34801561063157600080fd5b5061063a61143a565b6040516106479190613c5e565b60405180910390f35b34801561065c57600080fd5b5061067760048036038101906106729190613ea3565b611440565b6040516106849190613c5e565b60405180910390f35b34801561069957600080fd5b506106a26114f8565b005b3480156106b057600080fd5b506106cb60048036038101906106c69190613ea3565b611580565b6040516106d89190613c5e565b60405180910390f35b3480156106ed57600080fd5b5061070860048036038101906107039190613cf8565b611598565b005b34801561071657600080fd5b50610731600480360381019061072c9190613ea3565b611631565b60405161073e9190613f8e565b60405180910390f35b34801561075357600080fd5b5061075c6116df565b6040516107699190613bc8565b60405180910390f35b34801561077e57600080fd5b50610787611709565b6040516107949190613c5e565b60405180910390f35b3480156107a957600080fd5b506107c460048036038101906107bf9190613b5a565b61170e565b005b3480156107d257600080fd5b506107db611794565b6040516107e89190613bc8565b60405180910390f35b3480156107fd57600080fd5b506108066117ba565b6040516108139190613b02565b60405180910390f35b34801561082857600080fd5b5061083161184c565b60405161083e9190613c5e565b60405180910390f35b34801561085357600080fd5b5061085c611852565b6040516108699190613bc8565b60405180910390f35b34801561087e57600080fd5b5061089960048036038101906108949190613b5a565b611878565b005b3480156108a757600080fd5b506108b0611996565b6040516108bd9190613c5e565b60405180910390f35b3480156108d257600080fd5b506108ed60048036038101906108e89190613fb0565b61199c565b005b3480156108fb57600080fd5b50610904611b1d565b6040516109119190613c5e565b60405180910390f35b34801561092657600080fd5b50610941600480360381019061093c9190614091565b611b23565b005b34801561094f57600080fd5b5061096a600480360381019061096591906141dc565b611b85565b005b34801561097857600080fd5b50610993600480360381019061098e9190613cf8565b611dd0565b005b6109af60048036038101906109aa9190613b5a565b611e69565b005b3480156109bd57600080fd5b506109d860048036038101906109d39190613b5a565b611feb565b6040516109e59190613b02565b60405180910390f35b3480156109fa57600080fd5b50610a03612092565b604051610a109190613b02565b60405180910390f35b348015610a2557600080fd5b50610a406004803603810190610a3b9190614225565b612120565b604051610a4d9190613a4e565b60405180910390f35b348015610a6257600080fd5b50610a7d6004803603810190610a789190614328565b6121b4565b005b348015610a8b57600080fd5b50610aa66004803603810190610aa19190613ea3565b6122cc565b005b348015610ab457600080fd5b50610abd6123c4565b604051610aca9190613bc8565b60405180910390f35b610aed6004803603810190610ae89190613b5a565b6123ea565b005b610b096004803603810190610b049190613b5a565b61256c565b005b348015610b1757600080fd5b50610b20612819565b604051610b2d9190613c5e565b60405180910390f35b60007f780e9d63000000000000000000000000000000000000000000000000000000007bffffffffffffffffffffffffffffffffffffffffffffffffffffffff1916827bffffffffffffffffffffffffffffffffffffffffffffffffffffffff19161480610ba95750610ba88261281f565b5b9050919050565b600a60159054906101000a900460ff1681565b606060008054610bd2906143cf565b80601f0160208091040260200160405190810160405280929190818152602001828054610bfe906143cf565b8015610c4b5780601f10610c2057610100808354040283529160200191610c4b565b820191906000526020600020905b815481529060010190602001808311610c2e57829003601f168201915b5050505050905090565b6000610c6082612901565b610c9f576040517f08c379a0000000000000000000000000000000000000000000000000000000008152600401610c9690614473565b60405180910390fd5b6004600083815260200190815260200160002060009054906101000a900473ffffffffffffffffffffffffffffffffffffffff169050919050565b6000610ce582611375565b90508073ffffffffffffffffffffffffffffffffffffffff168373ffffffffffffffffffffffffffffffffffffffff161415610d56576040517f08c379a0000000000000000000000000000000000000000000000000000000008152600401610d4d90614505565b60405180910390fd5b8073ffffffffffffffffffffffffffffffffffffffff16610d7561296d565b73ffffffffffffffffffffffffffffffffffffffff161480610da45750610da381610d9e61296d565b612120565b5b610de3576040517f08c379a0000000000000000000000000000000000000000000000000000000008152600401610dda90614597565b60405180910390fd5b610ded8383612975565b505050565b601060009054906101000a900473ffffffffffffffffffffffffffffffffffffffff1681565b6000600880549050905090565b610e36610e3061296d565b82612a2e565b610e75576040517f08c379a0000000000000000000000000000000000000000000000000000000008152600401610e6c90614629565b60405180910390fd5b610e80838383612b0c565b505050565b6000610e9083611440565b8210610ed1576040517f08c379a0000000000000000000000000000000000000000000000000000000008152600401610ec8906146bb565b60405180910390fd5b600660008473ffffffffffffffffffffffffffffffffffffffff1673ffffffffffffffffffffffffffffffffffffffff168152602001908152602001600020600083815260200190815260200160002054905092915050565b61271081565b610f3861296d565b73ffffffffffffffffffffffffffffffffffffffff16610f566116df565b73ffffffffffffffffffffffffffffffffffffffff1614610fac576040517f08c379a0000000000000000000000000000000000000000000000000000000008152600401610fa390614727565b60405180910390fd5b80600a60166101000a81548160ff02191690831515021790555050565b610fe483838360405180602001604052806000815250611b23565b505050565b6000610ff3610e18565b90506000601560003373ffffffffffffffffffffffffffffffffffffffff1673ffffffffffffffffffffffffffffffffffffffff168152602001908152602001600020549050600a60159054906101000a900460ff16611088576040517f08c379a000000000000000000000000000000000000000000000000000000000815260040161107f90614793565b60405180910390fd5b600081116110cb576040517f08c379a00000000000000000000000000000000000000000000000000000000081526004016110c290614825565b60405180910390fd5b8083111561110e576040517f08c379a000000000000000000000000000000000000000000000000000000000815260040161110590614891565b60405180910390fd5b612710838361111d91906148e0565b111561115e576040517f08c379a000000000000000000000000000000000000000000000000000000000815260040161115590614982565b60405180910390fd5b82600e5461116c91906149a2565b34146111ad576040517f08c379a00000000000000000000000000000000000000000000000000000000081526004016111a490614a48565b60405180910390fd5b82816111b99190614a68565b601560003373ffffffffffffffffffffffffffffffffffffffff1673ffffffffffffffffffffffffffffffffffffffff1681526020019081526020016000208190555060005b8381101561122f5761121c33828561121791906148e0565b612d68565b808061122790614a9c565b9150506111ff565b50505050565b600061123f610e18565b8210611280576040517f08c379a000000000000000000000000000000000000000000000000000000000815260040161127790614b57565b60405180910390fd5b6008828154811061129457611293614b77565b5b90600052602060002001549050919050565b600a60169054906101000a900460ff1681565b6112c161296d565b73ffffffffffffffffffffffffffffffffffffffff166112df6116df565b73ffffffffffffffffffffffffffffffffffffffff1614611335576040517f08c379a000000000000000000000000000000000000000000000000000000000815260040161132c90614727565b60405180910390fd5b80600f908051906020019061134b9291906138f7565b5050565b601460009054906101000a900473ffffffffffffffffffffffffffffffffffffffff1681565b6000806002600084815260200190815260200160002060009054906101000a900473ffffffffffffffffffffffffffffffffffffffff169050600073ffffffffffffffffffffffffffffffffffffffff168173ffffffffffffffffffffffffffffffffffffffff16141561141e576040517f08c379a000000000000000000000000000000000000000000000000000000000815260040161141590614c18565b60405180910390fd5b80915050919050565b600a60149054906101000a900460ff1681565b6101f481565b60008073ffffffffffffffffffffffffffffffffffffffff168273ffffffffffffffffffffffffffffffffffffffff1614156114b1576040517f08c379a00000000000000000000000000000000000000000000000000000000081526004016114a890614caa565b60405180910390fd5b600360008373ffffffffffffffffffffffffffffffffffffffff1673ffffffffffffffffffffffffffffffffffffffff168152602001908152602001600020549050919050565b61150061296d565b73ffffffffffffffffffffffffffffffffffffffff1661151e6116df565b73ffffffffffffffffffffffffffffffffffffffff1614611574576040517f08c379a000000000000000000000000000000000000000000000000000000000815260040161156b90614727565b60405180910390fd5b61157e6000612d86565b565b60156020528060005260406000206000915090505481565b6115a061296d565b73ffffffffffffffffffffffffffffffffffffffff166115be6116df565b73ffffffffffffffffffffffffffffffffffffffff1614611614576040517f08c379a000000000000000000000000000000000000000000000000000000000815260040161160b90614727565b60405180910390fd5b80600a60146101000a81548160ff02191690831515021790555050565b6060600061163e83611440565b905060008167ffffffffffffffff81111561165c5761165b613d2f565b5b60405190808252806020026020018201604052801561168a5781602001602082028036833780820191505090505b50905060005b828110156116d4576116a28582610e85565b8282815181106116b5576116b4614b77565b5b60200260200101818152505080806116cc90614a9c565b915050611690565b508092505050919050565b6000600a60009054906101000a900473ffffffffffffffffffffffffffffffffffffffff16905090565b601481565b61171661296d565b73ffffffffffffffffffffffffffffffffffffffff166117346116df565b73ffffffffffffffffffffffffffffffffffffffff161461178a576040517f08c379a000000000000000000000000000000000000000000000000000000000815260040161178190614727565b60405180910390fd5b80600e8190555050565b601260009054906101000a900473ffffffffffffffffffffffffffffffffffffffff1681565b6060600180546117c9906143cf565b80601f01602080910402602001604051908101604052809291908181526020018280546117f5906143cf565b80156118425780601f1061181757610100808354040283529160200191611842565b820191906000526020600020905b81548152906001019060200180831161182557829003601f168201915b5050505050905090565b600d5481565b601160009054906101000a900473ffffffffffffffffffffffffffffffffffffffff1681565b61188061296d565b73ffffffffffffffffffffffffffffffffffffffff1661189e6116df565b73ffffffffffffffffffffffffffffffffffffffff16146118f4576040517f08c379a00000000000000000000000000000000000000000000000000000000081526004016118eb90614727565b60405180910390fd5b600b54811115611939576040517f08c379a000000000000000000000000000000000000000000000000000000000815260040161193090614d3c565b60405180910390fd5b80600b600082825461194b9190614a68565b92505081905550600061195c610e18565b905060005b828110156119915761197e33828461197991906148e0565b612d68565b808061198990614a9c565b915050611961565b505050565b600e5481565b6119a461296d565b73ffffffffffffffffffffffffffffffffffffffff168273ffffffffffffffffffffffffffffffffffffffff161415611a12576040517f08c379a0000000000000000000000000000000000000000000000000000000008152600401611a0990614da8565b60405180910390fd5b8060056000611a1f61296d565b73ffffffffffffffffffffffffffffffffffffffff1673ffffffffffffffffffffffffffffffffffffffff16815260200190815260200160002060008473ffffffffffffffffffffffffffffffffffffffff1673ffffffffffffffffffffffffffffffffffffffff16815260200190815260200160002060006101000a81548160ff0219169083151502179055508173ffffffffffffffffffffffffffffffffffffffff16611acc61296d565b73ffffffffffffffffffffffffffffffffffffffff167f17307eab39ab6107e8899845ad3d59bd9653f200f220920489ca2b5937696c3183604051611b119190613a4e565b60405180910390a35050565b600c5481565b611b34611b2e61296d565b83612a2e565b611b73576040517f08c379a0000000000000000000000000000000000000000000000000000000008152600401611b6a90614629565b60405180910390fd5b611b7f84848484612e4c565b50505050565b611b8d61296d565b73ffffffffffffffffffffffffffffffffffffffff16611bab6116df565b73ffffffffffffffffffffffffffffffffffffffff1614611c01576040517f08c379a0000000000000000000000000000000000000000000000000000000008152600401611bf890614727565b60405180910390fd5b80600081518110611c1557611c14614b77565b5b6020026020010151601060006101000a81548173ffffffffffffffffffffffffffffffffffffffff021916908373ffffffffffffffffffffffffffffffffffffffff16021790555080600181518110611c7157611c70614b77565b5b6020026020010151601160006101000a81548173ffffffffffffffffffffffffffffffffffffffff021916908373ffffffffffffffffffffffffffffffffffffffff16021790555080600281518110611ccd57611ccc614b77565b5b6020026020010151601260006101000a81548173ffffffffffffffffffffffffffffffffffffffff021916908373ffffffffffffffffffffffffffffffffffffffff16021790555080600381518110611d2957611d28614b77565b5b6020026020010151601360006101000a81548173ffffffffffffffffffffffffffffffffffffffff021916908373ffffffffffffffffffffffffffffffffffffffff16021790555080600481518110611d8557611d84614b77565b5b6020026020010151601460006101000a81548173ffffffffffffffffffffffffffffffffffffffff021916908373ffffffffffffffffffffffffffffffffffffffff16021790555050565b611dd861296d565b73ffffffffffffffffffffffffffffffffffffffff16611df66116df565b73ffffffffffffffffffffffffffffffffffffffff1614611e4c576040517f08c379a0000000000000000000000000000000000000000000000000000000008152600401611e4390614727565b60405180910390fd5b80600a60156101000a81548160ff02191690831515021790555050565b6000611e73610e18565b9050600a60149054906101000a900460ff16611ec4576040517f08c379a0000000000000000000000000000000000000000000000000000000008152600401611ebb90614e14565b60405180910390fd5b600082118015611ed5575060148211155b611f14576040517f08c379a0000000000000000000000000000000000000000000000000000000008152600401611f0b90614ea6565b60405180910390fd5b6127108282611f2391906148e0565b1115611f64576040517f08c379a0000000000000000000000000000000000000000000000000000000008152600401611f5b90614982565b60405180910390fd5b81600e54611f7291906149a2565b3414611fb3576040517f08c379a0000000000000000000000000000000000000000000000000000000008152600401611faa90614a48565b60405180910390fd5b60005b82811015611fe657611fd3338284611fce91906148e0565b612d68565b8080611fde90614a9c565b915050611fb6565b505050565b6060611ff682612901565b612035576040517f08c379a000000000000000000000000000000000000000000000000000000000815260040161202c90614f38565b60405180910390fd5b600061203f612ea8565b9050600081511161205f576040518060200160405280600081525061208a565b8061206984612f3a565b60405160200161207a929190614f94565b6040516020818303038152906040525b915050919050565b600f805461209f906143cf565b80601f01602080910402602001604051908101604052809291908181526020018280546120cb906143cf565b80156121185780601f106120ed57610100808354040283529160200191612118565b820191906000526020600020905b8154815290600101906020018083116120fb57829003601f168201915b505050505081565b6000600560008473ffffffffffffffffffffffffffffffffffffffff1673ffffffffffffffffffffffffffffffffffffffff16815260200190815260200160002060008373ffffffffffffffffffffffffffffffffffffffff1673ffffffffffffffffffffffffffffffffffffffff16815260200190815260200160002060009054906101000a900460ff16905092915050565b6121bc61296d565b73ffffffffffffffffffffffffffffffffffffffff166121da6116df565b73ffffffffffffffffffffffffffffffffffffffff1614612230576040517f08c379a000000000000000000000000000000000000000000000000000000000815260040161222790614727565b60405180910390fd5b60005b82518110156122c75781818151811061224f5761224e614b77565b5b60200260200101516015600085848151811061226e5761226d614b77565b5b602002602001015173ffffffffffffffffffffffffffffffffffffffff1673ffffffffffffffffffffffffffffffffffffffff1681526020019081526020016000208190555080806122bf90614a9c565b915050612233565b505050565b6122d461296d565b73ffffffffffffffffffffffffffffffffffffffff166122f26116df565b73ffffffffffffffffffffffffffffffffffffffff1614612348576040517f08c379a000000000000000000000000000000000000000000000000000000000815260040161233f90614727565b60405180910390fd5b600073ffffffffffffffffffffffffffffffffffffffff168173ffffffffffffffffffffffffffffffffffffffff1614156123b8576040517f08c379a00000000000000000000000000000000000000000000000000000000081526004016123af9061502a565b60405180910390fd5b6123c181612d86565b50565b601360009054906101000a900473ffffffffffffffffffffffffffffffffffffffff1681565b60006123f4610e18565b9050600a60169054906101000a900460ff16612445576040517f08c379a000000000000000000000000000000000000000000000000000000000815260040161243c90614e14565b60405180910390fd5b600082118015612456575060148211155b612495576040517f08c379a000000000000000000000000000000000000000000000000000000000815260040161248c906150bc565b60405180910390fd5b6101f482826124a491906148e0565b11156124e5576040517f08c379a00000000000000000000000000000000000000000000000000000000081526004016124dc90614982565b60405180910390fd5b81600e546124f391906149a2565b3414612534576040517f08c379a000000000000000000000000000000000000000000000000000000000815260040161252b90614a48565b60405180910390fd5b60005b828110156125675761255433828461254f91906148e0565b612d68565b808061255f90614a9c565b915050612537565b505050565b61257461296d565b73ffffffffffffffffffffffffffffffffffffffff166125926116df565b73ffffffffffffffffffffffffffffffffffffffff16146125e8576040517f08c379a00000000000000000000000000000000000000000000000000000000081526004016125df90614727565b60405180910390fd5b60006064826125f7919061510b565b9050601060009054906101000a900473ffffffffffffffffffffffffffffffffffffffff1673ffffffffffffffffffffffffffffffffffffffff166108fc60158361264291906149a2565b9081150290604051600060405180830381858888f1935050505061266557600080fd5b601160009054906101000a900473ffffffffffffffffffffffffffffffffffffffff1673ffffffffffffffffffffffffffffffffffffffff166108fc6015836126ae91906149a2565b9081150290604051600060405180830381858888f193505050506126d157600080fd5b601260009054906101000a900473ffffffffffffffffffffffffffffffffffffffff1673ffffffffffffffffffffffffffffffffffffffff166108fc60158361271a91906149a2565b9081150290604051600060405180830381858888f1935050505061273d57600080fd5b601360009054906101000a900473ffffffffffffffffffffffffffffffffffffffff1673ffffffffffffffffffffffffffffffffffffffff166108fc60158361278691906149a2565b9081150290604051600060405180830381858888f193505050506127a957600080fd5b601460009054906101000a900473ffffffffffffffffffffffffffffffffffffffff1673ffffffffffffffffffffffffffffffffffffffff166108fc6010836127f291906149a2565b9081150290604051600060405180830381858888f1935050505061281557600080fd5b5050565b600b5481565b60007f80ac58cd000000000000000000000000000000000000000000000000000000007bffffffffffffffffffffffffffffffffffffffffffffffffffffffff1916827bffffffffffffffffffffffffffffffffffffffffffffffffffffffff191614806128ea57507f5b5e139f000000000000000000000000000000000000000000000000000000007bffffffffffffffffffffffffffffffffffffffffffffffffffffffff1916827bffffffffffffffffffffffffffffffffffffffffffffffffffffffff1916145b806128fa57506128f98261309b565b5b9050919050565b60008073ffffffffffffffffffffffffffffffffffffffff166002600084815260200190815260200160002060009054906101000a900473ffffffffffffffffffffffffffffffffffffffff1673ffffffffffffffffffffffffffffffffffffffff1614159050919050565b600033905090565b816004600083815260200190815260200160002060006101000a81548173ffffffffffffffffffffffffffffffffffffffff021916908373ffffffffffffffffffffffffffffffffffffffff160217905550808273ffffffffffffffffffffffffffffffffffffffff166129e883611375565b73ffffffffffffffffffffffffffffffffffffffff167f8c5be1e5ebec7d5bd14f71427d1e84f3dd0314c0f7b2291e5b200ac8c7c3b92560405160405180910390a45050565b6000612a3982612901565b612a78576040517f08c379a0000000000000000000000000000000000000000000000000000000008152600401612a6f906151ae565b60405180910390fd5b6000612a8383611375565b90508073ffffffffffffffffffffffffffffffffffffffff168473ffffffffffffffffffffffffffffffffffffffff161480612af257508373ffffffffffffffffffffffffffffffffffffffff16612ada84610c55565b73ffffffffffffffffffffffffffffffffffffffff16145b80612b035750612b028185612120565b5b91505092915050565b8273ffffffffffffffffffffffffffffffffffffffff16612b2c82611375565b73ffffffffffffffffffffffffffffffffffffffff1614612b82576040517f08c379a0000000000000000000000000000000000000000000000000000000008152600401612b7990615240565b60405180910390fd5b600073ffffffffffffffffffffffffffffffffffffffff168273ffffffffffffffffffffffffffffffffffffffff161415612bf2576040517f08c379a0000000000000000000000000000000000000000000000000000000008152600401612be9906152d2565b60405180910390fd5b612bfd838383613105565b612c08600082612975565b6001600360008573ffffffffffffffffffffffffffffffffffffffff1673ffffffffffffffffffffffffffffffffffffffff1681526020019081526020016000206000828254612c589190614a68565b925050819055506001600360008473ffffffffffffffffffffffffffffffffffffffff1673ffffffffffffffffffffffffffffffffffffffff1681526020019081526020016000206000828254612caf91906148e0565b92505081905550816002600083815260200190815260200160002060006101000a81548173ffffffffffffffffffffffffffffffffffffffff021916908373ffffffffffffffffffffffffffffffffffffffff160217905550808273ffffffffffffffffffffffffffffffffffffffff168473ffffffffffffffffffffffffffffffffffffffff167fddf252ad1be2c89b69c2b068fc378daa952ba7f163c4a11628f55a4df523b3ef60405160405180910390a4505050565b612d82828260405180602001604052806000815250613219565b5050565b6000600a60009054906101000a900473ffffffffffffffffffffffffffffffffffffffff16905081600a60006101000a81548173ffffffffffffffffffffffffffffffffffffffff021916908373ffffffffffffffffffffffffffffffffffffffff1602179055508173ffffffffffffffffffffffffffffffffffffffff168173ffffffffffffffffffffffffffffffffffffffff167f8be0079c531659141344cd1fd0a4f28419497f9722a3daafe3b4186f6b6457e060405160405180910390a35050565b612e57848484612b0c565b612e6384848484613274565b612ea2576040517f08c379a0000000000000000000000000000000000000000000000000000000008152600401612e9990615364565b60405180910390fd5b50505050565b6060600f8054612eb7906143cf565b80601f0160208091040260200160405190810160405280929190818152602001828054612ee3906143cf565b8015612f305780601f10612f0557610100808354040283529160200191612f30565b820191906000526020600020905b815481529060010190602001808311612f1357829003601f168201915b5050505050905090565b60606000821415612f82576040518060400160405280600181526020017f30000000000000000000000000000000000000000000000000000000000000008152509050613096565b600082905060005b60008214612fb4578080612f9d90614a9c565b915050600a82612fad919061510b565b9150612f8a565b60008167ffffffffffffffff811115612fd057612fcf613d2f565b5b6040519080825280601f01601f1916602001820160405280156130025781602001600182028036833780820191505090505b5090505b6000851461308f5760018261301b9190614a68565b9150600a8561302a9190615384565b603061303691906148e0565b60f81b81838151811061304c5761304b614b77565b5b60200101907effffffffffffffffffffffffffffffffffffffffffffffffffffffffffffff1916908160001a905350600a85613088919061510b565b9450613006565b8093505050505b919050565b60007f01ffc9a7000000000000000000000000000000000000000000000000000000007bffffffffffffffffffffffffffffffffffffffffffffffffffffffff1916827bffffffffffffffffffffffffffffffffffffffffffffffffffffffff1916149050919050565b61311083838361340b565b600073ffffffffffffffffffffffffffffffffffffffff168373ffffffffffffffffffffffffffffffffffffffff1614156131535761314e81613410565b613192565b8173ffffffffffffffffffffffffffffffffffffffff168373ffffffffffffffffffffffffffffffffffffffff1614613191576131908382613459565b5b5b600073ffffffffffffffffffffffffffffffffffffffff168273ffffffffffffffffffffffffffffffffffffffff1614156131d5576131d0816135c6565b613214565b8273ffffffffffffffffffffffffffffffffffffffff168273ffffffffffffffffffffffffffffffffffffffff1614613213576132128282613697565b5b5b505050565b6132238383613716565b6132306000848484613274565b61326f576040517f08c379a000000000000000000000000000000000000000000000000000000000815260040161326690615364565b60405180910390fd5b505050565b60006132958473ffffffffffffffffffffffffffffffffffffffff166138e4565b156133fe578373ffffffffffffffffffffffffffffffffffffffff1663150b7a026132be61296d565b8786866040518563ffffffff1660e01b81526004016132e0949392919061540a565b602060405180830381600087803b1580156132fa57600080fd5b505af192505050801561332b57506040513d601f19601f82011682018060405250810190613328919061546b565b60015b6133ae573d806000811461335b576040519150601f19603f3d011682016040523d82523d6000602084013e613360565b606091505b506000815114156133a6576040517f08c379a000000000000000000000000000000000000000000000000000000000815260040161339d90615364565b60405180910390fd5b805181602001fd5b63150b7a0260e01b7bffffffffffffffffffffffffffffffffffffffffffffffffffffffff1916817bffffffffffffffffffffffffffffffffffffffffffffffffffffffff191614915050613403565b600190505b949350505050565b505050565b6008805490506009600083815260200190815260200160002081905550600881908060018154018082558091505060019003906000526020600020016000909190919091505550565b6000600161346684611440565b6134709190614a68565b9050600060076000848152602001908152602001600020549050818114613555576000600660008673ffffffffffffffffffffffffffffffffffffffff1673ffffffffffffffffffffffffffffffffffffffff168152602001908152602001600020600084815260200190815260200160002054905080600660008773ffffffffffffffffffffffffffffffffffffffff1673ffffffffffffffffffffffffffffffffffffffff168152602001908152602001600020600084815260200190815260200160002081905550816007600083815260200190815260200160002081905550505b6007600084815260200190815260200160002060009055600660008573ffffffffffffffffffffffffffffffffffffffff1673ffffffffffffffffffffffffffffffffffffffff16815260200190815260200160002060008381526020019081526020016000206000905550505050565b600060016008805490506135da9190614a68565b905060006009600084815260200190815260200160002054905060006008838154811061360a57613609614b77565b5b90600052602060002001549050806008838154811061362c5761362b614b77565b5b90600052602060002001819055508160096000838152602001908152602001600020819055506009600085815260200190815260200160002060009055600880548061367b5761367a615498565b5b6001900381819060005260206000200160009055905550505050565b60006136a283611440565b905081600660008573ffffffffffffffffffffffffffffffffffffffff1673ffffffffffffffffffffffffffffffffffffffff168152602001908152602001600020600083815260200190815260200160002081905550806007600084815260200190815260200160002081905550505050565b600073ffffffffffffffffffffffffffffffffffffffff168273ffffffffffffffffffffffffffffffffffffffff161415613786576040517f08c379a000000000000000000000000000000000000000000000000000000000815260040161377d90615513565b60405180910390fd5b61378f81612901565b156137cf576040517f08c379a00000000000000000000000000000000000000000000000000000000081526004016137c69061557f565b60405180910390fd5b6137db60008383613105565b6001600360008473ffffffffffffffffffffffffffffffffffffffff1673ffffffffffffffffffffffffffffffffffffffff168152602001908152602001600020600082825461382b91906148e0565b92505081905550816002600083815260200190815260200160002060006101000a81548173ffffffffffffffffffffffffffffffffffffffff021916908373ffffffffffffffffffffffffffffffffffffffff160217905550808273ffffffffffffffffffffffffffffffffffffffff16600073ffffffffffffffffffffffffffffffffffffffff167fddf252ad1be2c89b69c2b068fc378daa952ba7f163c4a11628f55a4df523b3ef60405160405180910390a45050565b600080823b905060008111915050919050565b828054613903906143cf565b90600052602060002090601f016020900481019282613925576000855561396c565b82601f1061393e57805160ff191683800117855561396c565b8280016001018555821561396c579182015b8281111561396b578251825591602001919060010190613950565b5b509050613979919061397d565b5090565b5b8082111561399657600081600090555060010161397e565b5090565b6000604051905090565b600080fd5b600080fd5b60007fffffffff0000000000000000000000000000000000000000000000000000000082169050919050565b6139e3816139ae565b81146139ee57600080fd5b50565b600081359050613a00816139da565b92915050565b600060208284031215613a1c57613a1b6139a4565b5b6000613a2a848285016139f1565b91505092915050565b60008115159050919050565b613a4881613a33565b82525050565b6000602082019050613a636000830184613a3f565b92915050565b600081519050919050565b600082825260208201905092915050565b60005b83811015613aa3578082015181840152602081019050613a88565b83811115613ab2576000848401525b50505050565b6000601f19601f8301169050919050565b6000613ad482613a69565b613ade8185613a74565b9350613aee818560208601613a85565b613af781613ab8565b840191505092915050565b60006020820190508181036000830152613b1c8184613ac9565b905092915050565b6000819050919050565b613b3781613b24565b8114613b4257600080fd5b50565b600081359050613b5481613b2e565b92915050565b600060208284031215613b7057613b6f6139a4565b5b6000613b7e84828501613b45565b91505092915050565b600073ffffffffffffffffffffffffffffffffffffffff82169050919050565b6000613bb282613b87565b9050919050565b613bc281613ba7565b82525050565b6000602082019050613bdd6000830184613bb9565b92915050565b613bec81613ba7565b8114613bf757600080fd5b50565b600081359050613c0981613be3565b92915050565b60008060408385031215613c2657613c256139a4565b5b6000613c3485828601613bfa565b9250506020613c4585828601613b45565b9150509250929050565b613c5881613b24565b82525050565b6000602082019050613c736000830184613c4f565b92915050565b600080600060608486031215613c9257613c916139a4565b5b6000613ca086828701613bfa565b9350506020613cb186828701613bfa565b9250506040613cc286828701613b45565b9150509250925092565b613cd581613a33565b8114613ce057600080fd5b50565b600081359050613cf281613ccc565b92915050565b600060208284031215613d0e57613d0d6139a4565b5b6000613d1c84828501613ce3565b91505092915050565b600080fd5b600080fd5b7f4e487b7100000000000000000000000000000000000000000000000000000000600052604160045260246000fd5b613d6782613ab8565b810181811067ffffffffffffffff82111715613d8657613d85613d2f565b5b80604052505050565b6000613d9961399a565b9050613da58282613d5e565b919050565b600067ffffffffffffffff821115613dc557613dc4613d2f565b5b613dce82613ab8565b9050602081019050919050565b82818337600083830152505050565b6000613dfd613df884613daa565b613d8f565b905082815260208101848484011115613e1957613e18613d2a565b5b613e24848285613ddb565b509392505050565b600082601f830112613e4157613e40613d25565b5b8135613e51848260208601613dea565b91505092915050565b600060208284031215613e7057613e6f6139a4565b5b600082013567ffffffffffffffff811115613e8e57613e8d6139a9565b5b613e9a84828501613e2c565b91505092915050565b600060208284031215613eb957613eb86139a4565b5b6000613ec784828501613bfa565b91505092915050565b600081519050919050565b600082825260208201905092915050565b6000819050602082019050919050565b613f0581613b24565b82525050565b6000613f178383613efc565b60208301905092915050565b6000602082019050919050565b6000613f3b82613ed0565b613f458185613edb565b9350613f5083613eec565b8060005b83811015613f81578151613f688882613f0b565b9750613f7383613f23565b925050600181019050613f54565b5085935050505092915050565b60006020820190508181036000830152613fa88184613f30565b905092915050565b60008060408385031215613fc757613fc66139a4565b5b6000613fd585828601613bfa565b9250506020613fe685828601613ce3565b9150509250929050565b600067ffffffffffffffff82111561400b5761400a613d2f565b5b61401482613ab8565b9050602081019050919050565b600061403461402f84613ff0565b613d8f565b9050828152602081018484840111156140505761404f613d2a565b5b61405b848285613ddb565b509392505050565b600082601f83011261407857614077613d25565b5b8135614088848260208601614021565b91505092915050565b600080600080608085870312156140ab576140aa6139a4565b5b60006140b987828801613bfa565b94505060206140ca87828801613bfa565b93505060406140db87828801613b45565b925050606085013567ffffffffffffffff8111156140fc576140fb6139a9565b5b61410887828801614063565b91505092959194509250565b600067ffffffffffffffff82111561412f5761412e613d2f565b5b602082029050602081019050919050565b600080fd5b600061415861415384614114565b613d8f565b9050808382526020820190506020840283018581111561417b5761417a614140565b5b835b818110156141a457806141908882613bfa565b84526020840193505060208101905061417d565b5050509392505050565b600082601f8301126141c3576141c2613d25565b5b81356141d3848260208601614145565b91505092915050565b6000602082840312156141f2576141f16139a4565b5b600082013567ffffffffffffffff8111156142105761420f6139a9565b5b61421c848285016141ae565b91505092915050565b6000806040838503121561423c5761423b6139a4565b5b600061424a85828601613bfa565b925050602061425b85828601613bfa565b9150509250929050565b600067ffffffffffffffff8211156142805761427f613d2f565b5b602082029050602081019050919050565b60006142a461429f84614265565b613d8f565b905080838252602082019050602084028301858111156142c7576142c6614140565b5b835b818110156142f057806142dc8882613b45565b8452602084019350506020810190506142c9565b5050509392505050565b600082601f83011261430f5761430e613d25565b5b813561431f848260208601614291565b91505092915050565b6000806040838503121561433f5761433e6139a4565b5b600083013567ffffffffffffffff81111561435d5761435c6139a9565b5b614369858286016141ae565b925050602083013567ffffffffffffffff81111561438a576143896139a9565b5b614396858286016142fa565b9150509250929050565b7f4e487b7100000000000000000000000000000000000000000000000000000000600052602260045260246000fd5b600060028204905060018216806143e757607f821691505b602082108114156143fb576143fa6143a0565b5b50919050565b7f4552433732313a20617070726f76656420717565727920666f72206e6f6e657860008201527f697374656e7420746f6b656e0000000000000000000000000000000000000000602082015250565b600061445d602c83613a74565b915061446882614401565b604082019050919050565b6000602082019050818103600083015261448c81614450565b9050919050565b7f4552433732313a20617070726f76616c20746f2063757272656e74206f776e6560008201527f7200000000000000000000000000000000000000000000000000000000000000602082015250565b60006144ef602183613a74565b91506144fa82614493565b604082019050919050565b6000602082019050818103600083015261451e816144e2565b9050919050565b7f4552433732313a20617070726f76652063616c6c6572206973206e6f74206f7760008201527f6e6572206e6f7220617070726f76656420666f7220616c6c0000000000000000602082015250565b6000614581603883613a74565b915061458c82614525565b604082019050919050565b600060208201905081810360008301526145b081614574565b9050919050565b7f4552433732313a207472616e736665722063616c6c6572206973206e6f74206f60008201527f776e6572206e6f7220617070726f766564000000000000000000000000000000602082015250565b6000614613603183613a74565b915061461e826145b7565b604082019050919050565b6000602082019050818103600083015261464281614606565b9050919050565b7f455243373231456e756d657261626c653a206f776e657220696e646578206f7560008201527f74206f6620626f756e6473000000000000000000000000000000000000000000602082015250565b60006146a5602b83613a74565b91506146b082614649565b604082019050919050565b600060208201905081810360008301526146d481614698565b9050919050565b7f4f776e61626c653a2063616c6c6572206973206e6f7420746865206f776e6572600082015250565b6000614711602083613a74565b915061471c826146db565b602082019050919050565b6000602082019050818103600083015261474081614704565b9050919050565b7f57686974656c6973742069736e27742061637469766500000000000000000000600082015250565b600061477d601683613a74565b915061478882614747565b602082019050919050565b600060208201905081810360008301526147ac81614770565b9050919050565b7f4e6f20746f6b656e7320726573657276656420666f7220796f7572206164647260008201527f6573730000000000000000000000000000000000000000000000000000000000602082015250565b600061480f602383613a74565b915061481a826147b3565b604082019050919050565b6000602082019050818103600083015261483e81614802565b9050919050565b7f43616e2774206d696e74206d6f7265207468616e207265736572766564000000600082015250565b600061487b601d83613a74565b915061488682614845565b602082019050919050565b600060208201905081810360008301526148aa8161486e565b9050919050565b7f4e487b7100000000000000000000000000000000000000000000000000000000600052601160045260246000fd5b60006148eb82613b24565b91506148f683613b24565b9250827fffffffffffffffffffffffffffffffffffffffffffffffffffffffffffffffff0382111561492b5761492a6148b1565b5b828201905092915050565b7f43616e2774206d696e74206d6f7265207468616e206d617820737570706c7900600082015250565b600061496c601f83613a74565b915061497782614936565b602082019050919050565b6000602082019050818103600083015261499b8161495f565b9050919050565b60006149ad82613b24565b91506149b883613b24565b9250817fffffffffffffffffffffffffffffffffffffffffffffffffffffffffffffffff04831182151516156149f1576149f06148b1565b5b828202905092915050565b7f57726f6e6720616d6f756e74206f66204554482073656e740000000000000000600082015250565b6000614a32601883613a74565b9150614a3d826149fc565b602082019050919050565b60006020820190508181036000830152614a6181614a25565b9050919050565b6000614a7382613b24565b9150614a7e83613b24565b925082821015614a9157614a906148b1565b5b828203905092915050565b6000614aa782613b24565b91507fffffffffffffffffffffffffffffffffffffffffffffffffffffffffffffffff821415614ada57614ad96148b1565b5b600182019050919050565b7f455243373231456e756d657261626c653a20676c6f62616c20696e646578206f60008201527f7574206f6620626f756e64730000000000000000000000000000000000000000602082015250565b6000614b41602c83613a74565b9150614b4c82614ae5565b604082019050919050565b60006020820190508181036000830152614b7081614b34565b9050919050565b7f4e487b7100000000000000000000000000000000000000000000000000000000600052603260045260246000fd5b7f4552433732313a206f776e657220717565727920666f72206e6f6e657869737460008201527f656e7420746f6b656e0000000000000000000000000000000000000000000000602082015250565b6000614c02602983613a74565b9150614c0d82614ba6565b604082019050919050565b60006020820190508181036000830152614c3181614bf5565b9050919050565b7f4552433732313a2062616c616e636520717565727920666f7220746865207a6560008201527f726f206164647265737300000000000000000000000000000000000000000000602082015250565b6000614c94602a83613a74565b9150614c9f82614c38565b604082019050919050565b60006020820190508181036000830152614cc381614c87565b9050919050565b7f43616e27742072657365727665206d6f7265207468616e2073657420616d6f7560008201527f6e74000000000000000000000000000000000000000000000000000000000000602082015250565b6000614d26602283613a74565b9150614d3182614cca565b604082019050919050565b60006020820190508181036000830152614d5581614d19565b9050919050565b7f4552433732313a20617070726f766520746f2063616c6c657200000000000000600082015250565b6000614d92601983613a74565b9150614d9d82614d5c565b602082019050919050565b60006020820190508181036000830152614dc181614d85565b9050919050565b7f53616c652069736e277420616374697665000000000000000000000000000000600082015250565b6000614dfe601183613a74565b9150614e0982614dc8565b602082019050919050565b60006020820190508181036000830152614e2d81614df1565b9050919050565b7f43616e206f6e6c79206d696e74206265747765656e203120616e64203130207460008201527f6f6b656e73206174206f6e636500000000000000000000000000000000000000602082015250565b6000614e90602d83613a74565b9150614e9b82614e34565b604082019050919050565b60006020820190508181036000830152614ebf81614e83565b9050919050565b7f4552433732314d657461646174613a2055524920717565727920666f72206e6f60008201527f6e6578697374656e7420746f6b656e0000000000000000000000000000000000602082015250565b6000614f22602f83613a74565b9150614f2d82614ec6565b604082019050919050565b60006020820190508181036000830152614f5181614f15565b9050919050565b600081905092915050565b6000614f6e82613a69565b614f788185614f58565b9350614f88818560208601613a85565b80840191505092915050565b6000614fa08285614f63565b9150614fac8284614f63565b91508190509392505050565b7f4f776e61626c653a206e6577206f776e657220697320746865207a65726f206160008201527f6464726573730000000000000000000000000000000000000000000000000000602082015250565b6000615014602683613a74565b915061501f82614fb8565b604082019050919050565b6000602082019050818103600083015261504381615007565b9050919050565b7f43616e206f6e6c79206d696e74206265747765656e203120616e64203230207460008201527f6f6b656e73206174206f6e636500000000000000000000000000000000000000602082015250565b60006150a6602d83613a74565b91506150b18261504a565b604082019050919050565b600060208201905081810360008301526150d581615099565b9050919050565b7f4e487b7100000000000000000000000000000000000000000000000000000000600052601260045260246000fd5b600061511682613b24565b915061512183613b24565b925082615131576151306150dc565b5b828204905092915050565b7f4552433732313a206f70657261746f7220717565727920666f72206e6f6e657860008201527f697374656e7420746f6b656e0000000000000000000000000000000000000000602082015250565b6000615198602c83613a74565b91506151a38261513c565b604082019050919050565b600060208201905081810360008301526151c78161518b565b9050919050565b7f4552433732313a207472616e73666572206f6620746f6b656e2074686174206960008201527f73206e6f74206f776e0000000000000000000000000000000000000000000000602082015250565b600061522a602983613a74565b9150615235826151ce565b604082019050919050565b600060208201905081810360008301526152598161521d565b9050919050565b7f4552433732313a207472616e7366657220746f20746865207a65726f2061646460008201527f7265737300000000000000000000000000000000000000000000000000000000602082015250565b60006152bc602483613a74565b91506152c782615260565b604082019050919050565b600060208201905081810360008301526152eb816152af565b9050919050565b7f4552433732313a207472616e7366657220746f206e6f6e20455243373231526560008201527f63656976657220696d706c656d656e7465720000000000000000000000000000602082015250565b600061534e603283613a74565b9150615359826152f2565b604082019050919050565b6000602082019050818103600083015261537d81615341565b9050919050565b600061538f82613b24565b915061539a83613b24565b9250826153aa576153a96150dc565b5b828206905092915050565b600081519050919050565b600082825260208201905092915050565b60006153dc826153b5565b6153e681856153c0565b93506153f6818560208601613a85565b6153ff81613ab8565b840191505092915050565b600060808201905061541f6000830187613bb9565b61542c6020830186613bb9565b6154396040830185613c4f565b818103606083015261544b81846153d1565b905095945050505050565b600081519050615465816139da565b92915050565b600060208284031215615481576154806139a4565b5b600061548f84828501615456565b91505092915050565b7f4e487b7100000000000000000000000000000000000000000000000000000000600052603160045260246000fd5b7f4552433732313a206d696e7420746f20746865207a65726f2061646472657373600082015250565b60006154fd602083613a74565b9150615508826154c7565b602082019050919050565b6000602082019050818103600083015261552c816154f0565b9050919050565b7f4552433732313a20746f6b656e20616c7265616479206d696e74656400000000600082015250565b6000615569601c83613a74565b915061557482615533565b602082019050919050565b600060208201905081810360008301526155988161555c565b905091905056fea26469706673582212209265b091ccd001be3d2aebab3d8a54885f6bfc8ec6003d27cbd06587dcbe4c3564736f6c63430008090033",
  "immutableReferences": {},
  "source": "// SPDX-License-Identifier: MIT\npragma solidity 0.8.9;\n\nimport '@openzeppelin/contracts/token/ERC721/extensions/ERC721Enumerable.sol';\nimport '@openzeppelin/contracts/access/Ownable.sol';\n\ncontract FunkyCrocs is ERC721Enumerable, Ownable {  \n    using Address for address;\n    \n    // Starting and stopping sale and whitelist\n    bool public saleActive = false;\n    bool public whitelistActive = false;\n    bool public presaleActive = false;\n\n    // Reserved for the team, customs, giveaways, collabs and so on.\n    uint256 public reserved = 150;\n\n    // Price of each token\n    uint256 public initial_price = 0.04 ether;\n    uint256 public presale_price = 0.03 ether;\n    uint256 public price;\n\n    // Maximum limit of tokens that can ever exist\n    uint256 public constant MAX_SUPPLY = 10000;\n    uint256 public constant MAX_PRESALE_SUPPLY = 500;\n    uint256 public constant MAX_MINT_PER_TX = 20;\n\n    // The base link that leads to the image / video of the token\n    string public baseTokenURI = \"https://api.funkycrocs.io/\";\n\n    // Team addresses for withdrawals\n    address public a1;\n    address public a2;\n    address public a3;\n    address public a4;\n    address public a5;\n\n    // List of addresses that have a number of reserved tokens for whitelist\n    mapping (address => uint256) public whitelistReserved;\n\n    constructor () ERC721 (\"Funky Crocs\", \"FNK\") {\n        price = initial_price;\n    }\n\n    // Override so the openzeppelin tokenURI() method will use this method to create the full tokenURI instead\n    function _baseURI() internal view virtual override returns (string memory) {\n        return baseTokenURI;\n    }\n\n    // See which address owns which tokens\n    function tokensOfOwner(address addr) public view returns(uint256[] memory) {\n        uint256 tokenCount = balanceOf(addr);\n        uint256[] memory tokensId = new uint256[](tokenCount);\n        for(uint256 i; i < tokenCount; i++){\n            tokensId[i] = tokenOfOwnerByIndex(addr, i);\n        }\n        return tokensId;\n    }\n\n    // Exclusive whitelist minting\n    function mintWhitelist(uint256 _amount) public payable {\n        uint256 supply = totalSupply();\n        uint256 reservedAmt = whitelistReserved[msg.sender];\n        require( whitelistActive,                   \"Whitelist isn't active\" );\n        require( reservedAmt > 0,                   \"No tokens reserved for your address\" );\n        require( _amount <= reservedAmt,            \"Can't mint more than reserved\" );\n        require( supply + _amount <= MAX_SUPPLY,    \"Can't mint more than max supply\" );\n        require( msg.value == price * _amount,      \"Wrong amount of ETH sent\" );\n        whitelistReserved[msg.sender] = reservedAmt - _amount;\n        for(uint256 i; i < _amount; i++){\n            _safeMint( msg.sender, supply + i );\n        }\n    }\n\n    // Presale minting\n    function mintPresale(uint256 _amount) public payable {\n        uint256 supply = totalSupply();\n        require( presaleActive,                             \"Sale isn't active\" );\n        require( _amount > 0 && _amount <= MAX_MINT_PER_TX,     \"Can only mint between 1 and 20 tokens at once\" );\n        require( supply + _amount <= MAX_PRESALE_SUPPLY,    \"Can't mint more than max supply\" );\n        require( msg.value == price * _amount,              \"Wrong amount of ETH sent\" );\n        for(uint256 i; i < _amount; i++){\n            _safeMint( msg.sender, supply + i );\n        }\n    }\n\n    // Standard mint function\n    function mintToken(uint256 _amount) public payable {\n        uint256 supply = totalSupply();\n        require( saleActive,                                \"Sale isn't active\" );\n        require( _amount > 0 && _amount <= MAX_MINT_PER_TX,     \"Can only mint between 1 and 10 tokens at once\" );\n        require( supply + _amount <= MAX_SUPPLY,            \"Can't mint more than max supply\" );\n        require( msg.value == price * _amount,              \"Wrong amount of ETH sent\" );\n        for(uint256 i; i < _amount; i++){\n            _safeMint( msg.sender, supply + i );\n        }\n    }\n\n    // Admin minting function to reserve tokens for the team, collabs, customs and giveaways\n    function mintReserved(uint256 _amount) public onlyOwner {\n        // Limited to a publicly set amount\n        require( _amount <= reserved, \"Can't reserve more than set amount\" );\n        reserved -= _amount;\n        uint256 supply = totalSupply();\n        for(uint256 i; i < _amount; i++){\n            _safeMint( msg.sender, supply + i );\n        }\n    }\n    \n    // Edit reserved whitelist spots\n    function editWhitelistReserved(address[] memory _a, uint256[] memory _amount) public onlyOwner {\n        for(uint256 i; i < _a.length; i++){\n            whitelistReserved[_a[i]] = _amount[i];\n        }\n    }\n\n    // Start and stop whitelist\n    function setWhitelistActive(bool val) public onlyOwner {\n        whitelistActive = val;\n    }\n\n    // Start and stop presale\n    function setPresaleActive(bool val) public onlyOwner {\n        presaleActive = val;\n    }\n\n    // Start and stop sale\n    function setSaleActive(bool val) public onlyOwner {\n        saleActive = val;\n    }\n\n    // Set new baseURI\n    function setBaseURI(string memory baseURI) public onlyOwner {\n        baseTokenURI = baseURI;\n    }\n\n    // Set a different price in case ETH changes drastically\n    function setPrice(uint256 newPrice) public onlyOwner {\n        price = newPrice;\n    }\n\n    // Set team addresses\n    function setAddresses(address[] memory _a) public onlyOwner {\n        a1 = _a[0];\n        a2 = _a[1];\n        a3 = _a[2];\n        a4 = _a[3];\n        a5 = _a[4];\n    }\n\n    // Withdraw funds from contract for the team\n    function withdrawTeam(uint256 amount) public payable onlyOwner {\n        uint256 percent = amount / 100;\n        // 21% Split evenly among the team\n        require(payable(a1).send(percent * 21));\n        require(payable(a2).send(percent * 21));\n        require(payable(a3).send(percent * 21));\n        require(payable(a4).send(percent * 21));\n        // 16% to the community wallet\n        // Half of that will go to charity\n        // The other half to invest back into community projects\n        require(payable(a5).send(percent * 16));\n    }\n}",
  "sourcePath": "/home/turupawn/Projects/FunkyCrocs/contracts/FunkyCrocs.sol",
  "compiler": {
    "name": "solc",
    "version": "0.8.9+commit.e5eed63a.Emscripten.clang"
  },
  "schemaVersion": "3.4.3",
  "updatedAt": "2021-10-27T19:02:25.604Z",
  "networkType": "ethereum",
  "devdoc": {
    "kind": "dev",
    "methods": {
      "approve(address,uint256)": {
        "details": "See {IERC721-approve}."
      },
      "balanceOf(address)": {
        "details": "See {IERC721-balanceOf}."
      },
      "getApproved(uint256)": {
        "details": "See {IERC721-getApproved}."
      },
      "isApprovedForAll(address,address)": {
        "details": "See {IERC721-isApprovedForAll}."
      },
      "name()": {
        "details": "See {IERC721Metadata-name}."
      },
      "owner()": {
        "details": "Returns the address of the current owner."
      },
      "ownerOf(uint256)": {
        "details": "See {IERC721-ownerOf}."
      },
      "renounceOwnership()": {
        "details": "Leaves the contract without owner. It will not be possible to call `onlyOwner` functions anymore. Can only be called by the current owner. NOTE: Renouncing ownership will leave the contract without an owner, thereby removing any functionality that is only available to the owner."
      },
      "safeTransferFrom(address,address,uint256)": {
        "details": "See {IERC721-safeTransferFrom}."
      },
      "safeTransferFrom(address,address,uint256,bytes)": {
        "details": "See {IERC721-safeTransferFrom}."
      },
      "setApprovalForAll(address,bool)": {
        "details": "See {IERC721-setApprovalForAll}."
      },
      "supportsInterface(bytes4)": {
        "details": "See {IERC165-supportsInterface}."
      },
      "symbol()": {
        "details": "See {IERC721Metadata-symbol}."
      },
      "tokenByIndex(uint256)": {
        "details": "See {IERC721Enumerable-tokenByIndex}."
      },
      "tokenOfOwnerByIndex(address,uint256)": {
        "details": "See {IERC721Enumerable-tokenOfOwnerByIndex}."
      },
      "tokenURI(uint256)": {
        "details": "See {IERC721Metadata-tokenURI}."
      },
      "totalSupply()": {
        "details": "See {IERC721Enumerable-totalSupply}."
      },
      "transferFrom(address,address,uint256)": {
        "details": "See {IERC721-transferFrom}."
      },
      "transferOwnership(address)": {
        "details": "Transfers ownership of the contract to a new account (`newOwner`). Can only be called by the current owner."
      }
    },
    "version": 1
  },
  "userdoc": {
    "kind": "user",
    "methods": {},
    "version": 1
  }
}