{
  "contractName": "FunkyCrocs",
  "abi": [
    {
      "inputs": [],
      "stateMutability": "nonpayable",
      "type": "constructor"
    },
    {
      "anonymous": false,
      "inputs": [
        {
          "indexed": true,
          "internalType": "address",
          "name": "owner",
          "type": "address"
        },
        {
          "indexed": true,
          "internalType": "address",
          "name": "approved",
          "type": "address"
        },
        {
          "indexed": true,
          "internalType": "uint256",
          "name": "tokenId",
          "type": "uint256"
        }
      ],
      "name": "Approval",
      "type": "event"
    },
    {
      "anonymous": false,
      "inputs": [
        {
          "indexed": true,
          "internalType": "address",
          "name": "owner",
          "type": "address"
        },
        {
          "indexed": true,
          "internalType": "address",
          "name": "operator",
          "type": "address"
        },
        {
          "indexed": false,
          "internalType": "bool",
          "name": "approved",
          "type": "bool"
        }
      ],
      "name": "ApprovalForAll",
      "type": "event"
    },
    {
      "anonymous": false,
      "inputs": [
        {
          "indexed": true,
          "internalType": "address",
          "name": "previousOwner",
          "type": "address"
        },
        {
          "indexed": true,
          "internalType": "address",
          "name": "newOwner",
          "type": "address"
        }
      ],
      "name": "OwnershipTransferred",
      "type": "event"
    },
    {
      "anonymous": false,
      "inputs": [
        {
          "indexed": true,
          "internalType": "address",
          "name": "from",
          "type": "address"
        },
        {
          "indexed": true,
          "internalType": "address",
          "name": "to",
          "type": "address"
        },
        {
          "indexed": true,
          "internalType": "uint256",
          "name": "tokenId",
          "type": "uint256"
        }
      ],
      "name": "Transfer",
      "type": "event"
    },
    {
      "inputs": [],
      "name": "MAX_SUPPLY",
      "outputs": [
        {
          "internalType": "uint256",
          "name": "",
          "type": "uint256"
        }
      ],
      "stateMutability": "view",
      "type": "function",
      "constant": true
    },
    {
      "inputs": [],
      "name": "a1",
      "outputs": [
        {
          "internalType": "address",
          "name": "",
          "type": "address"
        }
      ],
      "stateMutability": "view",
      "type": "function",
      "constant": true
    },
    {
      "inputs": [],
      "name": "a2",
      "outputs": [
        {
          "internalType": "address",
          "name": "",
          "type": "address"
        }
      ],
      "stateMutability": "view",
      "type": "function",
      "constant": true
    },
    {
      "inputs": [],
      "name": "a3",
      "outputs": [
        {
          "internalType": "address",
          "name": "",
          "type": "address"
        }
      ],
      "stateMutability": "view",
      "type": "function",
      "constant": true
    },
    {
      "inputs": [],
      "name": "a4",
      "outputs": [
        {
          "internalType": "address",
          "name": "",
          "type": "address"
        }
      ],
      "stateMutability": "view",
      "type": "function",
      "constant": true
    },
    {
      "inputs": [],
      "name": "a5",
      "outputs": [
        {
          "internalType": "address",
          "name": "",
          "type": "address"
        }
      ],
      "stateMutability": "view",
      "type": "function",
      "constant": true
    },
    {
      "inputs": [
        {
          "internalType": "address",
          "name": "to",
          "type": "address"
        },
        {
          "internalType": "uint256",
          "name": "tokenId",
          "type": "uint256"
        }
      ],
      "name": "approve",
      "outputs": [],
      "stateMutability": "nonpayable",
      "type": "function"
    },
    {
      "inputs": [
        {
          "internalType": "address",
          "name": "owner",
          "type": "address"
        }
      ],
      "name": "balanceOf",
      "outputs": [
        {
          "internalType": "uint256",
          "name": "",
          "type": "uint256"
        }
      ],
      "stateMutability": "view",
      "type": "function",
      "constant": true
    },
    {
      "inputs": [],
      "name": "baseTokenURI",
      "outputs": [
        {
          "internalType": "string",
          "name": "",
          "type": "string"
        }
      ],
      "stateMutability": "view",
      "type": "function",
      "constant": true
    },
    {
      "inputs": [
        {
          "internalType": "uint256",
          "name": "tokenId",
          "type": "uint256"
        }
      ],
      "name": "getApproved",
      "outputs": [
        {
          "internalType": "address",
          "name": "",
          "type": "address"
        }
      ],
      "stateMutability": "view",
      "type": "function",
      "constant": true
    },
    {
      "inputs": [],
      "name": "initial_price",
      "outputs": [
        {
          "internalType": "uint256",
          "name": "",
          "type": "uint256"
        }
      ],
      "stateMutability": "view",
      "type": "function",
      "constant": true
    },
    {
      "inputs": [
        {
          "internalType": "address",
          "name": "owner",
          "type": "address"
        },
        {
          "internalType": "address",
          "name": "operator",
          "type": "address"
        }
      ],
      "name": "isApprovedForAll",
      "outputs": [
        {
          "internalType": "bool",
          "name": "",
          "type": "bool"
        }
      ],
      "stateMutability": "view",
      "type": "function",
      "constant": true
    },
    {
      "inputs": [],
      "name": "name",
      "outputs": [
        {
          "internalType": "string",
          "name": "",
          "type": "string"
        }
      ],
      "stateMutability": "view",
      "type": "function",
      "constant": true
    },
    {
      "inputs": [],
      "name": "owner",
      "outputs": [
        {
          "internalType": "address",
          "name": "",
          "type": "address"
        }
      ],
      "stateMutability": "view",
      "type": "function",
      "constant": true
    },
    {
      "inputs": [
        {
          "internalType": "uint256",
          "name": "tokenId",
          "type": "uint256"
        }
      ],
      "name": "ownerOf",
      "outputs": [
        {
          "internalType": "address",
          "name": "",
          "type": "address"
        }
      ],
      "stateMutability": "view",
      "type": "function",
      "constant": true
    },
    {
      "inputs": [],
      "name": "presaleActive",
      "outputs": [
        {
          "internalType": "bool",
          "name": "",
          "type": "bool"
        }
      ],
      "stateMutability": "view",
      "type": "function",
      "constant": true
    },
    {
      "inputs": [],
      "name": "presale_price",
      "outputs": [
        {
          "internalType": "uint256",
          "name": "",
          "type": "uint256"
        }
      ],
      "stateMutability": "view",
      "type": "function",
      "constant": true
    },
    {
      "inputs": [],
      "name": "price",
      "outputs": [
        {
          "internalType": "uint256",
          "name": "",
          "type": "uint256"
        }
      ],
      "stateMutability": "view",
      "type": "function",
      "constant": true
    },
    {
      "inputs": [],
      "name": "renounceOwnership",
      "outputs": [],
      "stateMutability": "nonpayable",
      "type": "function"
    },
    {
      "inputs": [],
      "name": "reserved",
      "outputs": [
        {
          "internalType": "uint256",
          "name": "",
          "type": "uint256"
        }
      ],
      "stateMutability": "view",
      "type": "function",
      "constant": true
    },
    {
      "inputs": [
        {
          "internalType": "address",
          "name": "from",
          "type": "address"
        },
        {
          "internalType": "address",
          "name": "to",
          "type": "address"
        },
        {
          "internalType": "uint256",
          "name": "tokenId",
          "type": "uint256"
        }
      ],
      "name": "safeTransferFrom",
      "outputs": [],
      "stateMutability": "nonpayable",
      "type": "function"
    },
    {
      "inputs": [
        {
          "internalType": "address",
          "name": "from",
          "type": "address"
        },
        {
          "internalType": "address",
          "name": "to",
          "type": "address"
        },
        {
          "internalType": "uint256",
          "name": "tokenId",
          "type": "uint256"
        },
        {
          "internalType": "bytes",
          "name": "_data",
          "type": "bytes"
        }
      ],
      "name": "safeTransferFrom",
      "outputs": [],
      "stateMutability": "nonpayable",
      "type": "function"
    },
    {
      "inputs": [],
      "name": "saleActive",
      "outputs": [
        {
          "internalType": "bool",
          "name": "",
          "type": "bool"
        }
      ],
      "stateMutability": "view",
      "type": "function",
      "constant": true
    },
    {
      "inputs": [
        {
          "internalType": "address",
          "name": "operator",
          "type": "address"
        },
        {
          "internalType": "bool",
          "name": "approved",
          "type": "bool"
        }
      ],
      "name": "setApprovalForAll",
      "outputs": [],
      "stateMutability": "nonpayable",
      "type": "function"
    },
    {
      "inputs": [
        {
          "internalType": "bytes4",
          "name": "interfaceId",
          "type": "bytes4"
        }
      ],
      "name": "supportsInterface",
      "outputs": [
        {
          "internalType": "bool",
          "name": "",
          "type": "bool"
        }
      ],
      "stateMutability": "view",
      "type": "function",
      "constant": true
    },
    {
      "inputs": [],
      "name": "symbol",
      "outputs": [
        {
          "internalType": "string",
          "name": "",
          "type": "string"
        }
      ],
      "stateMutability": "view",
      "type": "function",
      "constant": true
    },
    {
      "inputs": [
        {
          "internalType": "uint256",
          "name": "index",
          "type": "uint256"
        }
      ],
      "name": "tokenByIndex",
      "outputs": [
        {
          "internalType": "uint256",
          "name": "",
          "type": "uint256"
        }
      ],
      "stateMutability": "view",
      "type": "function",
      "constant": true
    },
    {
      "inputs": [
        {
          "internalType": "address",
          "name": "owner",
          "type": "address"
        },
        {
          "internalType": "uint256",
          "name": "index",
          "type": "uint256"
        }
      ],
      "name": "tokenOfOwnerByIndex",
      "outputs": [
        {
          "internalType": "uint256",
          "name": "",
          "type": "uint256"
        }
      ],
      "stateMutability": "view",
      "type": "function",
      "constant": true
    },
    {
      "inputs": [
        {
          "internalType": "uint256",
          "name": "tokenId",
          "type": "uint256"
        }
      ],
      "name": "tokenURI",
      "outputs": [
        {
          "internalType": "string",
          "name": "",
          "type": "string"
        }
      ],
      "stateMutability": "view",
      "type": "function",
      "constant": true
    },
    {
      "inputs": [],
      "name": "totalSupply",
      "outputs": [
        {
          "internalType": "uint256",
          "name": "",
          "type": "uint256"
        }
      ],
      "stateMutability": "view",
      "type": "function",
      "constant": true
    },
    {
      "inputs": [
        {
          "internalType": "address",
          "name": "from",
          "type": "address"
        },
        {
          "internalType": "address",
          "name": "to",
          "type": "address"
        },
        {
          "internalType": "uint256",
          "name": "tokenId",
          "type": "uint256"
        }
      ],
      "name": "transferFrom",
      "outputs": [],
      "stateMutability": "nonpayable",
      "type": "function"
    },
    {
      "inputs": [
        {
          "internalType": "address",
          "name": "newOwner",
          "type": "address"
        }
      ],
      "name": "transferOwnership",
      "outputs": [],
      "stateMutability": "nonpayable",
      "type": "function"
    },
    {
      "inputs": [],
      "name": "whitelistActive",
      "outputs": [
        {
          "internalType": "bool",
          "name": "",
          "type": "bool"
        }
      ],
      "stateMutability": "view",
      "type": "function",
      "constant": true
    },
    {
      "inputs": [
        {
          "internalType": "address",
          "name": "",
          "type": "address"
        }
      ],
      "name": "whitelistReserved",
      "outputs": [
        {
          "internalType": "uint256",
          "name": "",
          "type": "uint256"
        }
      ],
      "stateMutability": "view",
      "type": "function",
      "constant": true
    },
    {
      "inputs": [
        {
          "internalType": "address",
          "name": "addr",
          "type": "address"
        }
      ],
      "name": "tokensOfOwner",
      "outputs": [
        {
          "internalType": "uint256[]",
          "name": "",
          "type": "uint256[]"
        }
      ],
      "stateMutability": "view",
      "type": "function",
      "constant": true
    },
    {
      "inputs": [
        {
          "internalType": "uint256",
          "name": "_amount",
          "type": "uint256"
        }
      ],
      "name": "mintWhitelist",
      "outputs": [],
      "stateMutability": "payable",
      "type": "function",
      "payable": true
    },
    {
      "inputs": [],
      "name": "mintPresale",
      "outputs": [],
      "stateMutability": "payable",
      "type": "function",
      "payable": true
    },
    {
      "inputs": [
        {
          "internalType": "uint256",
          "name": "_amount",
          "type": "uint256"
        }
      ],
      "name": "mintToken",
      "outputs": [],
      "stateMutability": "payable",
      "type": "function",
      "payable": true
    },
    {
      "inputs": [
        {
          "internalType": "uint256",
          "name": "_amount",
          "type": "uint256"
        }
      ],
      "name": "mintReserved",
      "outputs": [],
      "stateMutability": "nonpayable",
      "type": "function"
    },
    {
      "inputs": [
        {
          "internalType": "address[]",
          "name": "_a",
          "type": "address[]"
        },
        {
          "internalType": "uint256[]",
          "name": "_amount",
          "type": "uint256[]"
        }
      ],
      "name": "editWhitelistReserved",
      "outputs": [],
      "stateMutability": "nonpayable",
      "type": "function"
    },
    {
      "inputs": [
        {
          "internalType": "bool",
          "name": "val",
          "type": "bool"
        }
      ],
      "name": "setWhitelistActive",
      "outputs": [],
      "stateMutability": "nonpayable",
      "type": "function"
    },
    {
      "inputs": [
        {
          "internalType": "bool",
          "name": "val",
          "type": "bool"
        }
      ],
      "name": "setPresaleActive",
      "outputs": [],
      "stateMutability": "nonpayable",
      "type": "function"
    },
    {
      "inputs": [
        {
          "internalType": "bool",
          "name": "val",
          "type": "bool"
        }
      ],
      "name": "setSaleActive",
      "outputs": [],
      "stateMutability": "nonpayable",
      "type": "function"
    },
    {
      "inputs": [
        {
          "internalType": "string",
          "name": "baseURI",
          "type": "string"
        }
      ],
      "name": "setBaseURI",
      "outputs": [],
      "stateMutability": "nonpayable",
      "type": "function"
    },
    {
      "inputs": [
        {
          "internalType": "uint256",
          "name": "newPrice",
          "type": "uint256"
        }
      ],
      "name": "setPrice",
      "outputs": [],
      "stateMutability": "nonpayable",
      "type": "function"
    },
    {
      "inputs": [
        {
          "internalType": "address[]",
          "name": "_a",
          "type": "address[]"
        }
      ],
      "name": "setAddresses",
      "outputs": [],
      "stateMutability": "nonpayable",
      "type": "function"
    },
    {
      "inputs": [
        {
          "internalType": "uint256",
          "name": "amount",
          "type": "uint256"
        }
      ],
      "name": "withdrawTeam",
      "outputs": [],
      "stateMutability": "payable",
      "type": "function",
      "payable": true
    }
  ],
  "bytecode": "0x60806040526000600a60146101000a81548160ff0219169083151502179055506000600a60156101000a81548160ff0219169083151502179055506000600a60166101000a81548160ff0219169083151502179055506096600b55668e1bc9bf040000600c55666a94d74f430000600d556040518060400160405280601a81526020017f68747470733a2f2f6170692e66756e6b7963726f63732e696f2f000000000000815250600f9080519060200190620000bd92919062000269565b50348015620000cb57600080fd5b506040518060400160405280600b81526020017f46756e6b792043726f63730000000000000000000000000000000000000000008152506040518060400160405280600481526020017f464b59430000000000000000000000000000000000000000000000000000000081525081600090805190602001906200015092919062000269565b5080600190805190602001906200016992919062000269565b5050506200018c620001806200019b60201b60201c565b620001a360201b60201c565b600c54600e819055506200037e565b600033905090565b6000600a60009054906101000a900473ffffffffffffffffffffffffffffffffffffffff16905081600a60006101000a81548173ffffffffffffffffffffffffffffffffffffffff021916908373ffffffffffffffffffffffffffffffffffffffff1602179055508173ffffffffffffffffffffffffffffffffffffffff168173ffffffffffffffffffffffffffffffffffffffff167f8be0079c531659141344cd1fd0a4f28419497f9722a3daafe3b4186f6b6457e060405160405180910390a35050565b828054620002779062000348565b90600052602060002090601f0160209004810192826200029b5760008555620002e7565b82601f10620002b657805160ff1916838001178555620002e7565b82800160010185558215620002e7579182015b82811115620002e6578251825591602001919060010190620002c9565b5b509050620002f69190620002fa565b5090565b5b8082111562000315576000816000905550600101620002fb565b5090565b7f4e487b7100000000000000000000000000000000000000000000000000000000600052602260045260246000fd5b600060028204905060018216806200036157607f821691505b6020821081141562000378576200037762000319565b5b50919050565b61552e806200038e6000396000f3fe6080604052600436106102885760003560e01c80638462151c1161015a578063b9571721116100c1578063e985e9c51161007a578063e985e9c5146109a7578063f14c0bcc146109e4578063f2fde38b14610a0d578063f74ea41814610a36578063fd2b049214610a61578063fe60d12c14610a7d57610288565b8063b9571721146108c7578063c3b754dc146108f0578063c634d03214610919578063c87b56dd14610935578063d547cfb714610972578063db5996981461099d57610288565b8063969e9d0c11610113578063969e9d0c146107cb5780639a5d140b146107f6578063a035b1fe1461081f578063a22cb4651461084a578063ab3f5a1a14610873578063b88d4fde1461089e57610288565b80638462151c146106b95780638da5cb5b146106f657806391b7f5ed146107215780639426eef81461074a57806395d89b4114610775578063969745e8146107a057610288565b806342842e0e116101fe5780636352211e116101b75780636352211e1461059757806368428a1b146105d457806370a08231146105ff578063715018a61461063c57806372e3a3eb14610653578063841718a61461069057610288565b806342842e0e146104965780634618163e146104bf5780634f6ccce7146104db57806353135ca01461051857806355f804b314610543578063615db6e11461056c57610288565b8063119552a111610250578063119552a11461038657806318160ddd146103b157806323b872dd146103dc5780632f745c591461040557806332cb6b0c146104425780633f8121a21461046d57610288565b806301ffc9a71461028d57806302ce5813146102ca57806306fdde03146102f5578063081812fc14610320578063095ea7b31461035d575b600080fd5b34801561029957600080fd5b506102b460048036038101906102af91906138f3565b610aa8565b6040516102c1919061393b565b60405180910390f35b3480156102d657600080fd5b506102df610b22565b6040516102ec919061393b565b60405180910390f35b34801561030157600080fd5b5061030a610b35565b60405161031791906139ef565b60405180910390f35b34801561032c57600080fd5b5061034760048036038101906103429190613a47565b610bc7565b6040516103549190613ab5565b60405180910390f35b34801561036957600080fd5b50610384600480360381019061037f9190613afc565b610c4c565b005b34801561039257600080fd5b5061039b610d64565b6040516103a89190613ab5565b60405180910390f35b3480156103bd57600080fd5b506103c6610d8a565b6040516103d39190613b4b565b60405180910390f35b3480156103e857600080fd5b5061040360048036038101906103fe9190613b66565b610d97565b005b34801561041157600080fd5b5061042c60048036038101906104279190613afc565b610df7565b6040516104399190613b4b565b60405180910390f35b34801561044e57600080fd5b50610457610e9c565b6040516104649190613b4b565b60405180910390f35b34801561047957600080fd5b50610494600480360381019061048f9190613be5565b610ea2565b005b3480156104a257600080fd5b506104bd60048036038101906104b89190613b66565b610f3b565b005b6104d960048036038101906104d49190613a47565b610f5b565b005b3480156104e757600080fd5b5061050260048036038101906104fd9190613a47565b6111a7565b60405161050f9190613b4b565b60405180910390f35b34801561052457600080fd5b5061052d611218565b60405161053a919061393b565b60405180910390f35b34801561054f57600080fd5b5061056a60048036038101906105659190613d47565b61122b565b005b34801561057857600080fd5b506105816112c1565b60405161058e9190613ab5565b60405180910390f35b3480156105a357600080fd5b506105be60048036038101906105b99190613a47565b6112e7565b6040516105cb9190613ab5565b60405180910390f35b3480156105e057600080fd5b506105e9611399565b6040516105f6919061393b565b60405180910390f35b34801561060b57600080fd5b5061062660048036038101906106219190613d90565b6113ac565b6040516106339190613b4b565b60405180910390f35b34801561064857600080fd5b50610651611464565b005b34801561065f57600080fd5b5061067a60048036038101906106759190613d90565b6114ec565b6040516106879190613b4b565b60405180910390f35b34801561069c57600080fd5b506106b760048036038101906106b29190613be5565b611504565b005b3480156106c557600080fd5b506106e060048036038101906106db9190613d90565b61159d565b6040516106ed9190613e7b565b60405180910390f35b34801561070257600080fd5b5061070b61164b565b6040516107189190613ab5565b60405180910390f35b34801561072d57600080fd5b5061074860048036038101906107439190613a47565b611675565b005b34801561075657600080fd5b5061075f6116fb565b60405161076c9190613ab5565b60405180910390f35b34801561078157600080fd5b5061078a611721565b60405161079791906139ef565b60405180910390f35b3480156107ac57600080fd5b506107b56117b3565b6040516107c29190613b4b565b60405180910390f35b3480156107d757600080fd5b506107e06117b9565b6040516107ed9190613ab5565b60405180910390f35b34801561080257600080fd5b5061081d60048036038101906108189190613a47565b6117df565b005b34801561082b57600080fd5b506108346118fd565b6040516108419190613b4b565b60405180910390f35b34801561085657600080fd5b50610871600480360381019061086c9190613e9d565b611903565b005b34801561087f57600080fd5b50610888611a84565b6040516108959190613b4b565b60405180910390f35b3480156108aa57600080fd5b506108c560048036038101906108c09190613f7e565b611a8a565b005b3480156108d357600080fd5b506108ee60048036038101906108e991906140c9565b611aec565b005b3480156108fc57600080fd5b5061091760048036038101906109129190613be5565b611d37565b005b610933600480360381019061092e9190613a47565b611dd0565b005b34801561094157600080fd5b5061095c60048036038101906109579190613a47565b611f51565b60405161096991906139ef565b60405180910390f35b34801561097e57600080fd5b50610987611ff8565b60405161099491906139ef565b60405180910390f35b6109a5612086565b005b3480156109b357600080fd5b506109ce60048036038101906109c99190614112565b61218f565b6040516109db919061393b565b60405180910390f35b3480156109f057600080fd5b50610a0b6004803603810190610a069190614215565b612223565b005b348015610a1957600080fd5b50610a346004803603810190610a2f9190613d90565b61233b565b005b348015610a4257600080fd5b50610a4b612433565b604051610a589190613ab5565b60405180910390f35b610a7b6004803603810190610a769190613a47565b612459565b005b348015610a8957600080fd5b50610a92612706565b604051610a9f9190613b4b565b60405180910390f35b60007f780e9d63000000000000000000000000000000000000000000000000000000007bffffffffffffffffffffffffffffffffffffffffffffffffffffffff1916827bffffffffffffffffffffffffffffffffffffffffffffffffffffffff19161480610b1b5750610b1a8261270c565b5b9050919050565b600a60159054906101000a900460ff1681565b606060008054610b44906142bc565b80601f0160208091040260200160405190810160405280929190818152602001828054610b70906142bc565b8015610bbd5780601f10610b9257610100808354040283529160200191610bbd565b820191906000526020600020905b815481529060010190602001808311610ba057829003601f168201915b5050505050905090565b6000610bd2826127ee565b610c11576040517f08c379a0000000000000000000000000000000000000000000000000000000008152600401610c0890614360565b60405180910390fd5b6004600083815260200190815260200160002060009054906101000a900473ffffffffffffffffffffffffffffffffffffffff169050919050565b6000610c57826112e7565b90508073ffffffffffffffffffffffffffffffffffffffff168373ffffffffffffffffffffffffffffffffffffffff161415610cc8576040517f08c379a0000000000000000000000000000000000000000000000000000000008152600401610cbf906143f2565b60405180910390fd5b8073ffffffffffffffffffffffffffffffffffffffff16610ce761285a565b73ffffffffffffffffffffffffffffffffffffffff161480610d165750610d1581610d1061285a565b61218f565b5b610d55576040517f08c379a0000000000000000000000000000000000000000000000000000000008152600401610d4c90614484565b60405180910390fd5b610d5f8383612862565b505050565b601060009054906101000a900473ffffffffffffffffffffffffffffffffffffffff1681565b6000600880549050905090565b610da8610da261285a565b8261291b565b610de7576040517f08c379a0000000000000000000000000000000000000000000000000000000008152600401610dde90614516565b60405180910390fd5b610df28383836129f9565b505050565b6000610e02836113ac565b8210610e43576040517f08c379a0000000000000000000000000000000000000000000000000000000008152600401610e3a906145a8565b60405180910390fd5b600660008473ffffffffffffffffffffffffffffffffffffffff1673ffffffffffffffffffffffffffffffffffffffff168152602001908152602001600020600083815260200190815260200160002054905092915050565b61271081565b610eaa61285a565b73ffffffffffffffffffffffffffffffffffffffff16610ec861164b565b73ffffffffffffffffffffffffffffffffffffffff1614610f1e576040517f08c379a0000000000000000000000000000000000000000000000000000000008152600401610f1590614614565b60405180910390fd5b80600a60166101000a81548160ff02191690831515021790555050565b610f5683838360405180602001604052806000815250611a8a565b505050565b6000610f65610d8a565b90506000601560003373ffffffffffffffffffffffffffffffffffffffff1673ffffffffffffffffffffffffffffffffffffffff168152602001908152602001600020549050600a60159054906101000a900460ff16610ffa576040517f08c379a0000000000000000000000000000000000000000000000000000000008152600401610ff190614680565b60405180910390fd5b6000811161103d576040517f08c379a000000000000000000000000000000000000000000000000000000000815260040161103490614712565b60405180910390fd5b80831115611080576040517f08c379a00000000000000000000000000000000000000000000000000000000081526004016110779061477e565b60405180910390fd5b612710838361108f91906147cd565b11156110d0576040517f08c379a00000000000000000000000000000000000000000000000000000000081526004016110c79061486f565b60405180910390fd5b82600e546110de919061488f565b341461111f576040517f08c379a000000000000000000000000000000000000000000000000000000000815260040161111690614935565b60405180910390fd5b828161112b9190614955565b601560003373ffffffffffffffffffffffffffffffffffffffff1673ffffffffffffffffffffffffffffffffffffffff1681526020019081526020016000208190555060005b838110156111a15761118e33828561118991906147cd565b612c55565b808061119990614989565b915050611171565b50505050565b60006111b1610d8a565b82106111f2576040517f08c379a00000000000000000000000000000000000000000000000000000000081526004016111e990614a44565b60405180910390fd5b6008828154811061120657611205614a64565b5b90600052602060002001549050919050565b600a60169054906101000a900460ff1681565b61123361285a565b73ffffffffffffffffffffffffffffffffffffffff1661125161164b565b73ffffffffffffffffffffffffffffffffffffffff16146112a7576040517f08c379a000000000000000000000000000000000000000000000000000000000815260040161129e90614614565b60405180910390fd5b80600f90805190602001906112bd9291906137e4565b5050565b601460009054906101000a900473ffffffffffffffffffffffffffffffffffffffff1681565b6000806002600084815260200190815260200160002060009054906101000a900473ffffffffffffffffffffffffffffffffffffffff169050600073ffffffffffffffffffffffffffffffffffffffff168173ffffffffffffffffffffffffffffffffffffffff161415611390576040517f08c379a000000000000000000000000000000000000000000000000000000000815260040161138790614b05565b60405180910390fd5b80915050919050565b600a60149054906101000a900460ff1681565b60008073ffffffffffffffffffffffffffffffffffffffff168273ffffffffffffffffffffffffffffffffffffffff16141561141d576040517f08c379a000000000000000000000000000000000000000000000000000000000815260040161141490614b97565b60405180910390fd5b600360008373ffffffffffffffffffffffffffffffffffffffff1673ffffffffffffffffffffffffffffffffffffffff168152602001908152602001600020549050919050565b61146c61285a565b73ffffffffffffffffffffffffffffffffffffffff1661148a61164b565b73ffffffffffffffffffffffffffffffffffffffff16146114e0576040517f08c379a00000000000000000000000000000000000000000000000000000000081526004016114d790614614565b60405180910390fd5b6114ea6000612c73565b565b60156020528060005260406000206000915090505481565b61150c61285a565b73ffffffffffffffffffffffffffffffffffffffff1661152a61164b565b73ffffffffffffffffffffffffffffffffffffffff1614611580576040517f08c379a000000000000000000000000000000000000000000000000000000000815260040161157790614614565b60405180910390fd5b80600a60146101000a81548160ff02191690831515021790555050565b606060006115aa836113ac565b905060008167ffffffffffffffff8111156115c8576115c7613c1c565b5b6040519080825280602002602001820160405280156115f65781602001602082028036833780820191505090505b50905060005b828110156116405761160e8582610df7565b82828151811061162157611620614a64565b5b602002602001018181525050808061163890614989565b9150506115fc565b508092505050919050565b6000600a60009054906101000a900473ffffffffffffffffffffffffffffffffffffffff16905090565b61167d61285a565b73ffffffffffffffffffffffffffffffffffffffff1661169b61164b565b73ffffffffffffffffffffffffffffffffffffffff16146116f1576040517f08c379a00000000000000000000000000000000000000000000000000000000081526004016116e890614614565b60405180910390fd5b80600e8190555050565b601260009054906101000a900473ffffffffffffffffffffffffffffffffffffffff1681565b606060018054611730906142bc565b80601f016020809104026020016040519081016040528092919081815260200182805461175c906142bc565b80156117a95780601f1061177e576101008083540402835291602001916117a9565b820191906000526020600020905b81548152906001019060200180831161178c57829003601f168201915b5050505050905090565b600d5481565b601160009054906101000a900473ffffffffffffffffffffffffffffffffffffffff1681565b6117e761285a565b73ffffffffffffffffffffffffffffffffffffffff1661180561164b565b73ffffffffffffffffffffffffffffffffffffffff161461185b576040517f08c379a000000000000000000000000000000000000000000000000000000000815260040161185290614614565b60405180910390fd5b600b548111156118a0576040517f08c379a000000000000000000000000000000000000000000000000000000000815260040161189790614c29565b60405180910390fd5b80600b60008282546118b29190614955565b9250508190555060006118c3610d8a565b905060005b828110156118f8576118e53382846118e091906147cd565b612c55565b80806118f090614989565b9150506118c8565b505050565b600e5481565b61190b61285a565b73ffffffffffffffffffffffffffffffffffffffff168273ffffffffffffffffffffffffffffffffffffffff161415611979576040517f08c379a000000000000000000000000000000000000000000000000000000000815260040161197090614c95565b60405180910390fd5b806005600061198661285a565b73ffffffffffffffffffffffffffffffffffffffff1673ffffffffffffffffffffffffffffffffffffffff16815260200190815260200160002060008473ffffffffffffffffffffffffffffffffffffffff1673ffffffffffffffffffffffffffffffffffffffff16815260200190815260200160002060006101000a81548160ff0219169083151502179055508173ffffffffffffffffffffffffffffffffffffffff16611a3361285a565b73ffffffffffffffffffffffffffffffffffffffff167f17307eab39ab6107e8899845ad3d59bd9653f200f220920489ca2b5937696c3183604051611a78919061393b565b60405180910390a35050565b600c5481565b611a9b611a9561285a565b8361291b565b611ada576040517f08c379a0000000000000000000000000000000000000000000000000000000008152600401611ad190614516565b60405180910390fd5b611ae684848484612d39565b50505050565b611af461285a565b73ffffffffffffffffffffffffffffffffffffffff16611b1261164b565b73ffffffffffffffffffffffffffffffffffffffff1614611b68576040517f08c379a0000000000000000000000000000000000000000000000000000000008152600401611b5f90614614565b60405180910390fd5b80600081518110611b7c57611b7b614a64565b5b6020026020010151601060006101000a81548173ffffffffffffffffffffffffffffffffffffffff021916908373ffffffffffffffffffffffffffffffffffffffff16021790555080600181518110611bd857611bd7614a64565b5b6020026020010151601160006101000a81548173ffffffffffffffffffffffffffffffffffffffff021916908373ffffffffffffffffffffffffffffffffffffffff16021790555080600281518110611c3457611c33614a64565b5b6020026020010151601260006101000a81548173ffffffffffffffffffffffffffffffffffffffff021916908373ffffffffffffffffffffffffffffffffffffffff16021790555080600381518110611c9057611c8f614a64565b5b6020026020010151601360006101000a81548173ffffffffffffffffffffffffffffffffffffffff021916908373ffffffffffffffffffffffffffffffffffffffff16021790555080600481518110611cec57611ceb614a64565b5b6020026020010151601460006101000a81548173ffffffffffffffffffffffffffffffffffffffff021916908373ffffffffffffffffffffffffffffffffffffffff16021790555050565b611d3f61285a565b73ffffffffffffffffffffffffffffffffffffffff16611d5d61164b565b73ffffffffffffffffffffffffffffffffffffffff1614611db3576040517f08c379a0000000000000000000000000000000000000000000000000000000008152600401611daa90614614565b60405180910390fd5b80600a60156101000a81548160ff02191690831515021790555050565b6000611dda610d8a565b9050600a60149054906101000a900460ff16611e2b576040517f08c379a0000000000000000000000000000000000000000000000000000000008152600401611e2290614d01565b60405180910390fd5b600082118015611e3b5750600b82105b611e7a576040517f08c379a0000000000000000000000000000000000000000000000000000000008152600401611e7190614d93565b60405180910390fd5b6127108282611e8991906147cd565b1115611eca576040517f08c379a0000000000000000000000000000000000000000000000000000000008152600401611ec19061486f565b60405180910390fd5b81600e54611ed8919061488f565b3414611f19576040517f08c379a0000000000000000000000000000000000000000000000000000000008152600401611f1090614935565b60405180910390fd5b60005b82811015611f4c57611f39338284611f3491906147cd565b612c55565b8080611f4490614989565b915050611f1c565b505050565b6060611f5c826127ee565b611f9b576040517f08c379a0000000000000000000000000000000000000000000000000000000008152600401611f9290614e25565b60405180910390fd5b6000611fa5612d95565b90506000815111611fc55760405180602001604052806000815250611ff0565b80611fcf84612e27565b604051602001611fe0929190614e81565b6040516020818303038152906040525b915050919050565b600f8054612005906142bc565b80601f0160208091040260200160405190810160405280929190818152602001828054612031906142bc565b801561207e5780601f106120535761010080835404028352916020019161207e565b820191906000526020600020905b81548152906001019060200180831161206157829003601f168201915b505050505081565b6000612090610d8a565b9050600a60169054906101000a900460ff166120e1576040517f08c379a00000000000000000000000000000000000000000000000000000000081526004016120d890614ef1565b60405180910390fd5b6101f46001826120f191906147cd565b1115612132576040517f08c379a000000000000000000000000000000000000000000000000000000000815260040161212990614f83565b60405180910390fd5b600d543414612176576040517f08c379a000000000000000000000000000000000000000000000000000000000815260040161216d90614935565b60405180910390fd5b61218c3360018361218791906147cd565b612c55565b50565b6000600560008473ffffffffffffffffffffffffffffffffffffffff1673ffffffffffffffffffffffffffffffffffffffff16815260200190815260200160002060008373ffffffffffffffffffffffffffffffffffffffff1673ffffffffffffffffffffffffffffffffffffffff16815260200190815260200160002060009054906101000a900460ff16905092915050565b61222b61285a565b73ffffffffffffffffffffffffffffffffffffffff1661224961164b565b73ffffffffffffffffffffffffffffffffffffffff161461229f576040517f08c379a000000000000000000000000000000000000000000000000000000000815260040161229690614614565b60405180910390fd5b60005b8251811015612336578181815181106122be576122bd614a64565b5b6020026020010151601560008584815181106122dd576122dc614a64565b5b602002602001015173ffffffffffffffffffffffffffffffffffffffff1673ffffffffffffffffffffffffffffffffffffffff16815260200190815260200160002081905550808061232e90614989565b9150506122a2565b505050565b61234361285a565b73ffffffffffffffffffffffffffffffffffffffff1661236161164b565b73ffffffffffffffffffffffffffffffffffffffff16146123b7576040517f08c379a00000000000000000000000000000000000000000000000000000000081526004016123ae90614614565b60405180910390fd5b600073ffffffffffffffffffffffffffffffffffffffff168173ffffffffffffffffffffffffffffffffffffffff161415612427576040517f08c379a000000000000000000000000000000000000000000000000000000000815260040161241e90615015565b60405180910390fd5b61243081612c73565b50565b601360009054906101000a900473ffffffffffffffffffffffffffffffffffffffff1681565b61246161285a565b73ffffffffffffffffffffffffffffffffffffffff1661247f61164b565b73ffffffffffffffffffffffffffffffffffffffff16146124d5576040517f08c379a00000000000000000000000000000000000000000000000000000000081526004016124cc90614614565b60405180910390fd5b60006064826124e49190615064565b9050601060009054906101000a900473ffffffffffffffffffffffffffffffffffffffff1673ffffffffffffffffffffffffffffffffffffffff166108fc60158361252f919061488f565b9081150290604051600060405180830381858888f1935050505061255257600080fd5b601160009054906101000a900473ffffffffffffffffffffffffffffffffffffffff1673ffffffffffffffffffffffffffffffffffffffff166108fc60158361259b919061488f565b9081150290604051600060405180830381858888f193505050506125be57600080fd5b601260009054906101000a900473ffffffffffffffffffffffffffffffffffffffff1673ffffffffffffffffffffffffffffffffffffffff166108fc601583612607919061488f565b9081150290604051600060405180830381858888f1935050505061262a57600080fd5b601360009054906101000a900473ffffffffffffffffffffffffffffffffffffffff1673ffffffffffffffffffffffffffffffffffffffff166108fc601583612673919061488f565b9081150290604051600060405180830381858888f1935050505061269657600080fd5b601460009054906101000a900473ffffffffffffffffffffffffffffffffffffffff1673ffffffffffffffffffffffffffffffffffffffff166108fc6010836126df919061488f565b9081150290604051600060405180830381858888f1935050505061270257600080fd5b5050565b600b5481565b60007f80ac58cd000000000000000000000000000000000000000000000000000000007bffffffffffffffffffffffffffffffffffffffffffffffffffffffff1916827bffffffffffffffffffffffffffffffffffffffffffffffffffffffff191614806127d757507f5b5e139f000000000000000000000000000000000000000000000000000000007bffffffffffffffffffffffffffffffffffffffffffffffffffffffff1916827bffffffffffffffffffffffffffffffffffffffffffffffffffffffff1916145b806127e757506127e682612f88565b5b9050919050565b60008073ffffffffffffffffffffffffffffffffffffffff166002600084815260200190815260200160002060009054906101000a900473ffffffffffffffffffffffffffffffffffffffff1673ffffffffffffffffffffffffffffffffffffffff1614159050919050565b600033905090565b816004600083815260200190815260200160002060006101000a81548173ffffffffffffffffffffffffffffffffffffffff021916908373ffffffffffffffffffffffffffffffffffffffff160217905550808273ffffffffffffffffffffffffffffffffffffffff166128d5836112e7565b73ffffffffffffffffffffffffffffffffffffffff167f8c5be1e5ebec7d5bd14f71427d1e84f3dd0314c0f7b2291e5b200ac8c7c3b92560405160405180910390a45050565b6000612926826127ee565b612965576040517f08c379a000000000000000000000000000000000000000000000000000000000815260040161295c90615107565b60405180910390fd5b6000612970836112e7565b90508073ffffffffffffffffffffffffffffffffffffffff168473ffffffffffffffffffffffffffffffffffffffff1614806129df57508373ffffffffffffffffffffffffffffffffffffffff166129c784610bc7565b73ffffffffffffffffffffffffffffffffffffffff16145b806129f057506129ef818561218f565b5b91505092915050565b8273ffffffffffffffffffffffffffffffffffffffff16612a19826112e7565b73ffffffffffffffffffffffffffffffffffffffff1614612a6f576040517f08c379a0000000000000000000000000000000000000000000000000000000008152600401612a6690615199565b60405180910390fd5b600073ffffffffffffffffffffffffffffffffffffffff168273ffffffffffffffffffffffffffffffffffffffff161415612adf576040517f08c379a0000000000000000000000000000000000000000000000000000000008152600401612ad69061522b565b60405180910390fd5b612aea838383612ff2565b612af5600082612862565b6001600360008573ffffffffffffffffffffffffffffffffffffffff1673ffffffffffffffffffffffffffffffffffffffff1681526020019081526020016000206000828254612b459190614955565b925050819055506001600360008473ffffffffffffffffffffffffffffffffffffffff1673ffffffffffffffffffffffffffffffffffffffff1681526020019081526020016000206000828254612b9c91906147cd565b92505081905550816002600083815260200190815260200160002060006101000a81548173ffffffffffffffffffffffffffffffffffffffff021916908373ffffffffffffffffffffffffffffffffffffffff160217905550808273ffffffffffffffffffffffffffffffffffffffff168473ffffffffffffffffffffffffffffffffffffffff167fddf252ad1be2c89b69c2b068fc378daa952ba7f163c4a11628f55a4df523b3ef60405160405180910390a4505050565b612c6f828260405180602001604052806000815250613106565b5050565b6000600a60009054906101000a900473ffffffffffffffffffffffffffffffffffffffff16905081600a60006101000a81548173ffffffffffffffffffffffffffffffffffffffff021916908373ffffffffffffffffffffffffffffffffffffffff1602179055508173ffffffffffffffffffffffffffffffffffffffff168173ffffffffffffffffffffffffffffffffffffffff167f8be0079c531659141344cd1fd0a4f28419497f9722a3daafe3b4186f6b6457e060405160405180910390a35050565b612d448484846129f9565b612d5084848484613161565b612d8f576040517f08c379a0000000000000000000000000000000000000000000000000000000008152600401612d86906152bd565b60405180910390fd5b50505050565b6060600f8054612da4906142bc565b80601f0160208091040260200160405190810160405280929190818152602001828054612dd0906142bc565b8015612e1d5780601f10612df257610100808354040283529160200191612e1d565b820191906000526020600020905b815481529060010190602001808311612e0057829003601f168201915b5050505050905090565b60606000821415612e6f576040518060400160405280600181526020017f30000000000000000000000000000000000000000000000000000000000000008152509050612f83565b600082905060005b60008214612ea1578080612e8a90614989565b915050600a82612e9a9190615064565b9150612e77565b60008167ffffffffffffffff811115612ebd57612ebc613c1c565b5b6040519080825280601f01601f191660200182016040528015612eef5781602001600182028036833780820191505090505b5090505b60008514612f7c57600182612f089190614955565b9150600a85612f1791906152dd565b6030612f2391906147cd565b60f81b818381518110612f3957612f38614a64565b5b60200101907effffffffffffffffffffffffffffffffffffffffffffffffffffffffffffff1916908160001a905350600a85612f759190615064565b9450612ef3565b8093505050505b919050565b60007f01ffc9a7000000000000000000000000000000000000000000000000000000007bffffffffffffffffffffffffffffffffffffffffffffffffffffffff1916827bffffffffffffffffffffffffffffffffffffffffffffffffffffffff1916149050919050565b612ffd8383836132f8565b600073ffffffffffffffffffffffffffffffffffffffff168373ffffffffffffffffffffffffffffffffffffffff1614156130405761303b816132fd565b61307f565b8173ffffffffffffffffffffffffffffffffffffffff168373ffffffffffffffffffffffffffffffffffffffff161461307e5761307d8382613346565b5b5b600073ffffffffffffffffffffffffffffffffffffffff168273ffffffffffffffffffffffffffffffffffffffff1614156130c2576130bd816134b3565b613101565b8273ffffffffffffffffffffffffffffffffffffffff168273ffffffffffffffffffffffffffffffffffffffff1614613100576130ff8282613584565b5b5b505050565b6131108383613603565b61311d6000848484613161565b61315c576040517f08c379a0000000000000000000000000000000000000000000000000000000008152600401613153906152bd565b60405180910390fd5b505050565b60006131828473ffffffffffffffffffffffffffffffffffffffff166137d1565b156132eb578373ffffffffffffffffffffffffffffffffffffffff1663150b7a026131ab61285a565b8786866040518563ffffffff1660e01b81526004016131cd9493929190615363565b602060405180830381600087803b1580156131e757600080fd5b505af192505050801561321857506040513d601f19601f8201168201806040525081019061321591906153c4565b60015b61329b573d8060008114613248576040519150601f19603f3d011682016040523d82523d6000602084013e61324d565b606091505b50600081511415613293576040517f08c379a000000000000000000000000000000000000000000000000000000000815260040161328a906152bd565b60405180910390fd5b805181602001fd5b63150b7a0260e01b7bffffffffffffffffffffffffffffffffffffffffffffffffffffffff1916817bffffffffffffffffffffffffffffffffffffffffffffffffffffffff1916149150506132f0565b600190505b949350505050565b505050565b6008805490506009600083815260200190815260200160002081905550600881908060018154018082558091505060019003906000526020600020016000909190919091505550565b60006001613353846113ac565b61335d9190614955565b9050600060076000848152602001908152602001600020549050818114613442576000600660008673ffffffffffffffffffffffffffffffffffffffff1673ffffffffffffffffffffffffffffffffffffffff168152602001908152602001600020600084815260200190815260200160002054905080600660008773ffffffffffffffffffffffffffffffffffffffff1673ffffffffffffffffffffffffffffffffffffffff168152602001908152602001600020600084815260200190815260200160002081905550816007600083815260200190815260200160002081905550505b6007600084815260200190815260200160002060009055600660008573ffffffffffffffffffffffffffffffffffffffff1673ffffffffffffffffffffffffffffffffffffffff16815260200190815260200160002060008381526020019081526020016000206000905550505050565b600060016008805490506134c79190614955565b90506000600960008481526020019081526020016000205490506000600883815481106134f7576134f6614a64565b5b90600052602060002001549050806008838154811061351957613518614a64565b5b906000526020600020018190555081600960008381526020019081526020016000208190555060096000858152602001908152602001600020600090556008805480613568576135676153f1565b5b6001900381819060005260206000200160009055905550505050565b600061358f836113ac565b905081600660008573ffffffffffffffffffffffffffffffffffffffff1673ffffffffffffffffffffffffffffffffffffffff168152602001908152602001600020600083815260200190815260200160002081905550806007600084815260200190815260200160002081905550505050565b600073ffffffffffffffffffffffffffffffffffffffff168273ffffffffffffffffffffffffffffffffffffffff161415613673576040517f08c379a000000000000000000000000000000000000000000000000000000000815260040161366a9061546c565b60405180910390fd5b61367c816127ee565b156136bc576040517f08c379a00000000000000000000000000000000000000000000000000000000081526004016136b3906154d8565b60405180910390fd5b6136c860008383612ff2565b6001600360008473ffffffffffffffffffffffffffffffffffffffff1673ffffffffffffffffffffffffffffffffffffffff168152602001908152602001600020600082825461371891906147cd565b92505081905550816002600083815260200190815260200160002060006101000a81548173ffffffffffffffffffffffffffffffffffffffff021916908373ffffffffffffffffffffffffffffffffffffffff160217905550808273ffffffffffffffffffffffffffffffffffffffff16600073ffffffffffffffffffffffffffffffffffffffff167fddf252ad1be2c89b69c2b068fc378daa952ba7f163c4a11628f55a4df523b3ef60405160405180910390a45050565b600080823b905060008111915050919050565b8280546137f0906142bc565b90600052602060002090601f0160209004810192826138125760008555613859565b82601f1061382b57805160ff1916838001178555613859565b82800160010185558215613859579182015b8281111561385857825182559160200191906001019061383d565b5b509050613866919061386a565b5090565b5b8082111561388357600081600090555060010161386b565b5090565b6000604051905090565b600080fd5b600080fd5b60007fffffffff0000000000000000000000000000000000000000000000000000000082169050919050565b6138d08161389b565b81146138db57600080fd5b50565b6000813590506138ed816138c7565b92915050565b60006020828403121561390957613908613891565b5b6000613917848285016138de565b91505092915050565b60008115159050919050565b61393581613920565b82525050565b6000602082019050613950600083018461392c565b92915050565b600081519050919050565b600082825260208201905092915050565b60005b83811015613990578082015181840152602081019050613975565b8381111561399f576000848401525b50505050565b6000601f19601f8301169050919050565b60006139c182613956565b6139cb8185613961565b93506139db818560208601613972565b6139e4816139a5565b840191505092915050565b60006020820190508181036000830152613a0981846139b6565b905092915050565b6000819050919050565b613a2481613a11565b8114613a2f57600080fd5b50565b600081359050613a4181613a1b565b92915050565b600060208284031215613a5d57613a5c613891565b5b6000613a6b84828501613a32565b91505092915050565b600073ffffffffffffffffffffffffffffffffffffffff82169050919050565b6000613a9f82613a74565b9050919050565b613aaf81613a94565b82525050565b6000602082019050613aca6000830184613aa6565b92915050565b613ad981613a94565b8114613ae457600080fd5b50565b600081359050613af681613ad0565b92915050565b60008060408385031215613b1357613b12613891565b5b6000613b2185828601613ae7565b9250506020613b3285828601613a32565b9150509250929050565b613b4581613a11565b82525050565b6000602082019050613b606000830184613b3c565b92915050565b600080600060608486031215613b7f57613b7e613891565b5b6000613b8d86828701613ae7565b9350506020613b9e86828701613ae7565b9250506040613baf86828701613a32565b9150509250925092565b613bc281613920565b8114613bcd57600080fd5b50565b600081359050613bdf81613bb9565b92915050565b600060208284031215613bfb57613bfa613891565b5b6000613c0984828501613bd0565b91505092915050565b600080fd5b600080fd5b7f4e487b7100000000000000000000000000000000000000000000000000000000600052604160045260246000fd5b613c54826139a5565b810181811067ffffffffffffffff82111715613c7357613c72613c1c565b5b80604052505050565b6000613c86613887565b9050613c928282613c4b565b919050565b600067ffffffffffffffff821115613cb257613cb1613c1c565b5b613cbb826139a5565b9050602081019050919050565b82818337600083830152505050565b6000613cea613ce584613c97565b613c7c565b905082815260208101848484011115613d0657613d05613c17565b5b613d11848285613cc8565b509392505050565b600082601f830112613d2e57613d2d613c12565b5b8135613d3e848260208601613cd7565b91505092915050565b600060208284031215613d5d57613d5c613891565b5b600082013567ffffffffffffffff811115613d7b57613d7a613896565b5b613d8784828501613d19565b91505092915050565b600060208284031215613da657613da5613891565b5b6000613db484828501613ae7565b91505092915050565b600081519050919050565b600082825260208201905092915050565b6000819050602082019050919050565b613df281613a11565b82525050565b6000613e048383613de9565b60208301905092915050565b6000602082019050919050565b6000613e2882613dbd565b613e328185613dc8565b9350613e3d83613dd9565b8060005b83811015613e6e578151613e558882613df8565b9750613e6083613e10565b925050600181019050613e41565b5085935050505092915050565b60006020820190508181036000830152613e958184613e1d565b905092915050565b60008060408385031215613eb457613eb3613891565b5b6000613ec285828601613ae7565b9250506020613ed385828601613bd0565b9150509250929050565b600067ffffffffffffffff821115613ef857613ef7613c1c565b5b613f01826139a5565b9050602081019050919050565b6000613f21613f1c84613edd565b613c7c565b905082815260208101848484011115613f3d57613f3c613c17565b5b613f48848285613cc8565b509392505050565b600082601f830112613f6557613f64613c12565b5b8135613f75848260208601613f0e565b91505092915050565b60008060008060808587031215613f9857613f97613891565b5b6000613fa687828801613ae7565b9450506020613fb787828801613ae7565b9350506040613fc887828801613a32565b925050606085013567ffffffffffffffff811115613fe957613fe8613896565b5b613ff587828801613f50565b91505092959194509250565b600067ffffffffffffffff82111561401c5761401b613c1c565b5b602082029050602081019050919050565b600080fd5b600061404561404084614001565b613c7c565b905080838252602082019050602084028301858111156140685761406761402d565b5b835b81811015614091578061407d8882613ae7565b84526020840193505060208101905061406a565b5050509392505050565b600082601f8301126140b0576140af613c12565b5b81356140c0848260208601614032565b91505092915050565b6000602082840312156140df576140de613891565b5b600082013567ffffffffffffffff8111156140fd576140fc613896565b5b6141098482850161409b565b91505092915050565b6000806040838503121561412957614128613891565b5b600061413785828601613ae7565b925050602061414885828601613ae7565b9150509250929050565b600067ffffffffffffffff82111561416d5761416c613c1c565b5b602082029050602081019050919050565b600061419161418c84614152565b613c7c565b905080838252602082019050602084028301858111156141b4576141b361402d565b5b835b818110156141dd57806141c98882613a32565b8452602084019350506020810190506141b6565b5050509392505050565b600082601f8301126141fc576141fb613c12565b5b813561420c84826020860161417e565b91505092915050565b6000806040838503121561422c5761422b613891565b5b600083013567ffffffffffffffff81111561424a57614249613896565b5b6142568582860161409b565b925050602083013567ffffffffffffffff81111561427757614276613896565b5b614283858286016141e7565b9150509250929050565b7f4e487b7100000000000000000000000000000000000000000000000000000000600052602260045260246000fd5b600060028204905060018216806142d457607f821691505b602082108114156142e8576142e761428d565b5b50919050565b7f4552433732313a20617070726f76656420717565727920666f72206e6f6e657860008201527f697374656e7420746f6b656e0000000000000000000000000000000000000000602082015250565b600061434a602c83613961565b9150614355826142ee565b604082019050919050565b600060208201905081810360008301526143798161433d565b9050919050565b7f4552433732313a20617070726f76616c20746f2063757272656e74206f776e6560008201527f7200000000000000000000000000000000000000000000000000000000000000602082015250565b60006143dc602183613961565b91506143e782614380565b604082019050919050565b6000602082019050818103600083015261440b816143cf565b9050919050565b7f4552433732313a20617070726f76652063616c6c6572206973206e6f74206f7760008201527f6e6572206e6f7220617070726f76656420666f7220616c6c0000000000000000602082015250565b600061446e603883613961565b915061447982614412565b604082019050919050565b6000602082019050818103600083015261449d81614461565b9050919050565b7f4552433732313a207472616e736665722063616c6c6572206973206e6f74206f60008201527f776e6572206e6f7220617070726f766564000000000000000000000000000000602082015250565b6000614500603183613961565b915061450b826144a4565b604082019050919050565b6000602082019050818103600083015261452f816144f3565b9050919050565b7f455243373231456e756d657261626c653a206f776e657220696e646578206f7560008201527f74206f6620626f756e6473000000000000000000000000000000000000000000602082015250565b6000614592602b83613961565b915061459d82614536565b604082019050919050565b600060208201905081810360008301526145c181614585565b9050919050565b7f4f776e61626c653a2063616c6c6572206973206e6f7420746865206f776e6572600082015250565b60006145fe602083613961565b9150614609826145c8565b602082019050919050565b6000602082019050818103600083015261462d816145f1565b9050919050565b7f57686974656c6973742069736e27742061637469766500000000000000000000600082015250565b600061466a601683613961565b915061467582614634565b602082019050919050565b600060208201905081810360008301526146998161465d565b9050919050565b7f4e6f20746f6b656e7320726573657276656420666f7220796f7572206164647260008201527f6573730000000000000000000000000000000000000000000000000000000000602082015250565b60006146fc602383613961565b9150614707826146a0565b604082019050919050565b6000602082019050818103600083015261472b816146ef565b9050919050565b7f43616e2774206d696e74206d6f7265207468616e207265736572766564000000600082015250565b6000614768601d83613961565b915061477382614732565b602082019050919050565b600060208201905081810360008301526147978161475b565b9050919050565b7f4e487b7100000000000000000000000000000000000000000000000000000000600052601160045260246000fd5b60006147d882613a11565b91506147e383613a11565b9250827fffffffffffffffffffffffffffffffffffffffffffffffffffffffffffffffff038211156148185761481761479e565b5b828201905092915050565b7f43616e2774206d696e74206d6f7265207468616e206d617820737570706c7900600082015250565b6000614859601f83613961565b915061486482614823565b602082019050919050565b600060208201905081810360008301526148888161484c565b9050919050565b600061489a82613a11565b91506148a583613a11565b9250817fffffffffffffffffffffffffffffffffffffffffffffffffffffffffffffffff04831182151516156148de576148dd61479e565b5b828202905092915050565b7f57726f6e6720616d6f756e74206f66204554482073656e740000000000000000600082015250565b600061491f601883613961565b915061492a826148e9565b602082019050919050565b6000602082019050818103600083015261494e81614912565b9050919050565b600061496082613a11565b915061496b83613a11565b92508282101561497e5761497d61479e565b5b828203905092915050565b600061499482613a11565b91507fffffffffffffffffffffffffffffffffffffffffffffffffffffffffffffffff8214156149c7576149c661479e565b5b600182019050919050565b7f455243373231456e756d657261626c653a20676c6f62616c20696e646578206f60008201527f7574206f6620626f756e64730000000000000000000000000000000000000000602082015250565b6000614a2e602c83613961565b9150614a39826149d2565b604082019050919050565b60006020820190508181036000830152614a5d81614a21565b9050919050565b7f4e487b7100000000000000000000000000000000000000000000000000000000600052603260045260246000fd5b7f4552433732313a206f776e657220717565727920666f72206e6f6e657869737460008201527f656e7420746f6b656e0000000000000000000000000000000000000000000000602082015250565b6000614aef602983613961565b9150614afa82614a93565b604082019050919050565b60006020820190508181036000830152614b1e81614ae2565b9050919050565b7f4552433732313a2062616c616e636520717565727920666f7220746865207a6560008201527f726f206164647265737300000000000000000000000000000000000000000000602082015250565b6000614b81602a83613961565b9150614b8c82614b25565b604082019050919050565b60006020820190508181036000830152614bb081614b74565b9050919050565b7f43616e27742072657365727665206d6f7265207468616e2073657420616d6f7560008201527f6e74000000000000000000000000000000000000000000000000000000000000602082015250565b6000614c13602283613961565b9150614c1e82614bb7565b604082019050919050565b60006020820190508181036000830152614c4281614c06565b9050919050565b7f4552433732313a20617070726f766520746f2063616c6c657200000000000000600082015250565b6000614c7f601983613961565b9150614c8a82614c49565b602082019050919050565b60006020820190508181036000830152614cae81614c72565b9050919050565b7f53616c652069736e277420616374697665000000000000000000000000000000600082015250565b6000614ceb601183613961565b9150614cf682614cb5565b602082019050919050565b60006020820190508181036000830152614d1a81614cde565b9050919050565b7f43616e206f6e6c79206d696e74206265747765656e203120616e64203130207460008201527f6f6b656e73206174206f6e636500000000000000000000000000000000000000602082015250565b6000614d7d602d83613961565b9150614d8882614d21565b604082019050919050565b60006020820190508181036000830152614dac81614d70565b9050919050565b7f4552433732314d657461646174613a2055524920717565727920666f72206e6f60008201527f6e6578697374656e7420746f6b656e0000000000000000000000000000000000602082015250565b6000614e0f602f83613961565b9150614e1a82614db3565b604082019050919050565b60006020820190508181036000830152614e3e81614e02565b9050919050565b600081905092915050565b6000614e5b82613956565b614e658185614e45565b9350614e75818560208601613972565b80840191505092915050565b6000614e8d8285614e50565b9150614e998284614e50565b91508190509392505050565b7f50726573616c652069736e277420616374697665000000000000000000000000600082015250565b6000614edb601483613961565b9150614ee682614ea5565b602082019050919050565b60006020820190508181036000830152614f0a81614ece565b9050919050565b7f43616e2774206d696e74206d6f7265207468616e2035303020647572696e672060008201527f50726573616c6500000000000000000000000000000000000000000000000000602082015250565b6000614f6d602783613961565b9150614f7882614f11565b604082019050919050565b60006020820190508181036000830152614f9c81614f60565b9050919050565b7f4f776e61626c653a206e6577206f776e657220697320746865207a65726f206160008201527f6464726573730000000000000000000000000000000000000000000000000000602082015250565b6000614fff602683613961565b915061500a82614fa3565b604082019050919050565b6000602082019050818103600083015261502e81614ff2565b9050919050565b7f4e487b7100000000000000000000000000000000000000000000000000000000600052601260045260246000fd5b600061506f82613a11565b915061507a83613a11565b92508261508a57615089615035565b5b828204905092915050565b7f4552433732313a206f70657261746f7220717565727920666f72206e6f6e657860008201527f697374656e7420746f6b656e0000000000000000000000000000000000000000602082015250565b60006150f1602c83613961565b91506150fc82615095565b604082019050919050565b60006020820190508181036000830152615120816150e4565b9050919050565b7f4552433732313a207472616e73666572206f6620746f6b656e2074686174206960008201527f73206e6f74206f776e0000000000000000000000000000000000000000000000602082015250565b6000615183602983613961565b915061518e82615127565b604082019050919050565b600060208201905081810360008301526151b281615176565b9050919050565b7f4552433732313a207472616e7366657220746f20746865207a65726f2061646460008201527f7265737300000000000000000000000000000000000000000000000000000000602082015250565b6000615215602483613961565b9150615220826151b9565b604082019050919050565b6000602082019050818103600083015261524481615208565b9050919050565b7f4552433732313a207472616e7366657220746f206e6f6e20455243373231526560008201527f63656976657220696d706c656d656e7465720000000000000000000000000000602082015250565b60006152a7603283613961565b91506152b28261524b565b604082019050919050565b600060208201905081810360008301526152d68161529a565b9050919050565b60006152e882613a11565b91506152f383613a11565b92508261530357615302615035565b5b828206905092915050565b600081519050919050565b600082825260208201905092915050565b60006153358261530e565b61533f8185615319565b935061534f818560208601613972565b615358816139a5565b840191505092915050565b60006080820190506153786000830187613aa6565b6153856020830186613aa6565b6153926040830185613b3c565b81810360608301526153a4818461532a565b905095945050505050565b6000815190506153be816138c7565b92915050565b6000602082840312156153da576153d9613891565b5b60006153e8848285016153af565b91505092915050565b7f4e487b7100000000000000000000000000000000000000000000000000000000600052603160045260246000fd5b7f4552433732313a206d696e7420746f20746865207a65726f2061646472657373600082015250565b6000615456602083613961565b915061546182615420565b602082019050919050565b6000602082019050818103600083015261548581615449565b9050919050565b7f4552433732313a20746f6b656e20616c7265616479206d696e74656400000000600082015250565b60006154c2601c83613961565b91506154cd8261548c565b602082019050919050565b600060208201905081810360008301526154f1816154b5565b905091905056fea26469706673582212205a7156b8f84b532c947890a19feef1b3e97877bfff8b33d90b4b37afbd7296fc64736f6c63430008090033",
  "immutableReferences": {},
  "source": "// SPDX-License-Identifier: MIT\npragma solidity 0.8.9;\n\nimport '@openzeppelin/contracts/token/ERC721/extensions/ERC721Enumerable.sol';\nimport '@openzeppelin/contracts/access/Ownable.sol';\n\ncontract FunkyCrocs is ERC721Enumerable, Ownable {  \n    using Address for address;\n    \n    // Starting and stopping sale and whitelist\n    bool public saleActive = false;\n    bool public whitelistActive = false;\n    bool public presaleActive = false;\n\n    // Reserved for the team, customs, giveaways, collabs and so on.\n    uint256 public reserved = 150;\n\n    // Price of each token\n    uint256 public initial_price = 0.04 ether;\n    uint256 public presale_price = 0.03 ether;\n    uint256 public price;\n\n    // Maximum limit of tokens that can ever exist\n    uint256 public constant MAX_SUPPLY = 10000;\n\n    // The base link that leads to the image / video of the token\n    string public baseTokenURI = \"https://api.funkycrocs.io/\";\n\n    // Team addresses for withdrawals\n    address public a1;\n    address public a2;\n    address public a3;\n    address public a4;\n    address public a5;\n\n    // List of addresses that have a number of reserved tokens for whitelist\n    mapping (address => uint256) public whitelistReserved;\n\n    constructor () ERC721 (\"Funky Crocs\", \"FKYC\") {\n        price = initial_price;\n    }\n\n    // Override so the openzeppelin tokenURI() method will use this method to create the full tokenURI instead\n    function _baseURI() internal view virtual override returns (string memory) {\n        return baseTokenURI;\n    }\n\n    // See which address owns which tokens\n    function tokensOfOwner(address addr) public view returns(uint256[] memory) {\n        uint256 tokenCount = balanceOf(addr);\n        uint256[] memory tokensId = new uint256[](tokenCount);\n        for(uint256 i; i < tokenCount; i++){\n            tokensId[i] = tokenOfOwnerByIndex(addr, i);\n        }\n        return tokensId;\n    }\n\n    // Exclusive whitelist minting\n    function mintWhitelist(uint256 _amount) public payable {\n        uint256 supply = totalSupply();\n        uint256 reservedAmt = whitelistReserved[msg.sender];\n        require( whitelistActive,                  \"Whitelist isn't active\" );\n        require( reservedAmt > 0,                \"No tokens reserved for your address\" );\n        require( _amount <= reservedAmt,         \"Can't mint more than reserved\" );\n        require( supply + _amount <= MAX_SUPPLY, \"Can't mint more than max supply\" );\n        require( msg.value == price * _amount,   \"Wrong amount of ETH sent\" );\n        whitelistReserved[msg.sender] = reservedAmt - _amount;\n        for(uint256 i; i < _amount; i++){\n            _safeMint( msg.sender, supply + i );\n        }\n    }\n\n    // Presale minting\n    function mintPresale() public payable {\n        uint256 supply = totalSupply();\n        require( presaleActive,             \"Presale isn't active\" );\n        require( supply + 1 <= 500,         \"Can't mint more than 500 during Presale\" );\n        require( msg.value == presale_price,   \"Wrong amount of ETH sent\" );\n        _safeMint( msg.sender, supply + 1 );\n    }\n\n    // Standard mint function\n    function mintToken(uint256 _amount) public payable {\n        uint256 supply = totalSupply();\n        require( saleActive,                     \"Sale isn't active\" );\n        require( _amount > 0 && _amount < 11,    \"Can only mint between 1 and 10 tokens at once\" );\n        require( supply + _amount <= MAX_SUPPLY, \"Can't mint more than max supply\" );\n        require( msg.value == price * _amount,   \"Wrong amount of ETH sent\" );\n        for(uint256 i; i < _amount; i++){\n            _safeMint( msg.sender, supply + i );\n        }\n    }\n\n    // Admin minting function to reserve tokens for the team, collabs, customs and giveaways\n    function mintReserved(uint256 _amount) public onlyOwner {\n        // Limited to a publicly set amount\n        require( _amount <= reserved, \"Can't reserve more than set amount\" );\n        reserved -= _amount;\n        uint256 supply = totalSupply();\n        for(uint256 i; i < _amount; i++){\n            _safeMint( msg.sender, supply + i );\n        }\n    }\n    \n    // Edit reserved whitelist spots\n    function editWhitelistReserved(address[] memory _a, uint256[] memory _amount) public onlyOwner {\n        for(uint256 i; i < _a.length; i++){\n            whitelistReserved[_a[i]] = _amount[i];\n        }\n    }\n\n    // Start and stop whitelist\n    function setWhitelistActive(bool val) public onlyOwner {\n        whitelistActive = val;\n    }\n\n    // Start and stop presale\n    function setPresaleActive(bool val) public onlyOwner {\n        presaleActive = val;\n    }\n\n    // Start and stop sale\n    function setSaleActive(bool val) public onlyOwner {\n        saleActive = val;\n    }\n\n    // Set new baseURI\n    function setBaseURI(string memory baseURI) public onlyOwner {\n        baseTokenURI = baseURI;\n    }\n\n    // Set a different price in case ETH changes drastically\n    function setPrice(uint256 newPrice) public onlyOwner {\n        price = newPrice;\n    }\n\n    // Set team addresses\n    function setAddresses(address[] memory _a) public onlyOwner {\n        a1 = _a[0];\n        a2 = _a[1];\n        a3 = _a[2];\n        a4 = _a[3];\n        a5 = _a[4];\n    }\n\n    // Withdraw funds from contract for the team\n    function withdrawTeam(uint256 amount) public payable onlyOwner {\n        uint256 percent = amount / 100;\n        // 21% Split evenly among the team\n        require(payable(a1).send(percent * 21));\n        require(payable(a2).send(percent * 21));\n        require(payable(a3).send(percent * 21));\n        require(payable(a4).send(percent * 21));\n        // 16% to the community wallet\n        // Half of that will go to charity\n        // The other half to invest back into community projects\n        require(payable(a5).send(percent * 16));\n    }\n}",
  "sourcePath": "/home/turupawn/Projects/FunkyCrocs/contracts/FunkyCrocs.sol",
  "compiler": {
    "name": "solc",
    "version": "0.8.9+commit.e5eed63a.Emscripten.clang"
  },
  "schemaVersion": "3.4.3",
  "updatedAt": "2021-10-27T16:16:46.875Z",
  "networkType": "ethereum",
  "devdoc": {
    "kind": "dev",
    "methods": {
      "approve(address,uint256)": {
        "details": "See {IERC721-approve}."
      },
      "balanceOf(address)": {
        "details": "See {IERC721-balanceOf}."
      },
      "getApproved(uint256)": {
        "details": "See {IERC721-getApproved}."
      },
      "isApprovedForAll(address,address)": {
        "details": "See {IERC721-isApprovedForAll}."
      },
      "name()": {
        "details": "See {IERC721Metadata-name}."
      },
      "owner()": {
        "details": "Returns the address of the current owner."
      },
      "ownerOf(uint256)": {
        "details": "See {IERC721-ownerOf}."
      },
      "renounceOwnership()": {
        "details": "Leaves the contract without owner. It will not be possible to call `onlyOwner` functions anymore. Can only be called by the current owner. NOTE: Renouncing ownership will leave the contract without an owner, thereby removing any functionality that is only available to the owner."
      },
      "safeTransferFrom(address,address,uint256)": {
        "details": "See {IERC721-safeTransferFrom}."
      },
      "safeTransferFrom(address,address,uint256,bytes)": {
        "details": "See {IERC721-safeTransferFrom}."
      },
      "setApprovalForAll(address,bool)": {
        "details": "See {IERC721-setApprovalForAll}."
      },
      "supportsInterface(bytes4)": {
        "details": "See {IERC165-supportsInterface}."
      },
      "symbol()": {
        "details": "See {IERC721Metadata-symbol}."
      },
      "tokenByIndex(uint256)": {
        "details": "See {IERC721Enumerable-tokenByIndex}."
      },
      "tokenOfOwnerByIndex(address,uint256)": {
        "details": "See {IERC721Enumerable-tokenOfOwnerByIndex}."
      },
      "tokenURI(uint256)": {
        "details": "See {IERC721Metadata-tokenURI}."
      },
      "totalSupply()": {
        "details": "See {IERC721Enumerable-totalSupply}."
      },
      "transferFrom(address,address,uint256)": {
        "details": "See {IERC721-transferFrom}."
      },
      "transferOwnership(address)": {
        "details": "Transfers ownership of the contract to a new account (`newOwner`). Can only be called by the current owner."
      }
    },
    "version": 1
  },
  "userdoc": {
    "kind": "user",
    "methods": {},
    "version": 1
  }
}